:10000000002F0020B5440000CBEF00008944000021
:100010008944000089440000894400000000000079
:10002000000000000000000000000000D13C0000C3
:100030008944000000000000413C000089440000A9
:100040008D3E00008D3E00008D3E00008D3E000084
:100050008D3E00008D3E00008D3E00008D3E000074
:100060008D3E00008D3E00008D3E00008D3E000064
:100070008D3E00008D3E00008D3E00008D3E000054
:100080008D3E00008D3E00008D3E00008D3E000044
:100090008D3E00008D3E00008D3E00008D3E000034
:1000A0008D3E00008D3E00008D3E00008D3E000024
:1000B0008D3E00008D3E00008D3E00008D3E000014
:1000C0008D3E00008D3E00008D3E00008D3E000004
:1000D0008D3E00008D3E00008D3E00008D3E0000F4
:1000E0008D3E00008D3E00008D3E00008D3E0000E4
:1000F0008D3E00008D3E00008D3E00008D3E0000D4
:1001000001F0FF01102A2BDB10F0070F08D010F8C8
:10011000013B013A8B422DD010F0070F42B3F6D1CC
:10012000F0B441EA012141EA014122F007047FF0E5
:1001300000070023F0E80256083C85EA010586EA3C
:10014000010685FA47F5A3FA87F586FA47F6A5FA78
:1001500087F68EB9EED1F0BC01F0FF0102F0070284
:1001600032B110F8013B013A83EA010313B1F8D12F
:100170000020704701387047002D06BF3546033810
:10018000073815F0010F07D1013015F4807F02BF49
:10019000013015F4C03F0130F0BC0138704700BF9A
:1001A00081F0004102E000BF83F0004330B54FEA28
:1001B00041044FEA430594EA050F08BF90EA020F95
:1001C0001FBF54EA000C55EA020C7FEA645C7FEA28
:1001D000655C00F0E2804FEA5454D4EB5555B8BF4B
:1001E0006D420CDD2C4480EA020281EA030382EABC
:1001F000000083EA010180EA020281EA0303362D4E
:1002000088BF30BD11F0004F4FEA01314FF4801C20
:100210004CEA113102D0404261EB410113F0004F32
:100220004FEA03334CEA133302D0524263EB4303E9
:1002300094EA050F00F0A780A4F10104D5F1200E87
:100240000DDB02FA0EFC22FA05F2801841F10001E2
:1002500003FA0EF2801843FA05F359410EE0A5F1B6
:1002600020050EF1200E012A03FA0EFC28BF4CF0E7
:10027000020C43FA05F3C01851EBE37101F000459D
:1002800007D54FF0000EDCF1000C7EEB00006EEBAA
:100290000101B1F5801F1BD3B1F5001F0CD3490834
:1002A0005FEA30004FEA3C0C04F101044FEA44528B
:1002B00012F5800F80F09A80BCF1004F08BF5FEA12
:1002C000500C50F1000041EB045141EA050130BDF2
:1002D0005FEA4C0C404141EB0101013C28BFB1F504
:1002E000801FE9D291F0000F04BF01460020B1FA4F
:1002F00081F308BF2033A3F10B03B3F120020CDA22
:100300000C3208DD02F1140CC2F10C0201FA0CF0FF
:1003100021FA02F10CE002F11402D8BFC2F1200C64
:1003200001FA02F120FA0CFCDCBF41EA0C0190401A
:10033000E41AA2BF01EB0451294330BD6FEA040463
:100340001F3C1CDA0C340EDC04F11404C4F120024E
:1003500020FA04F001FA02F340EA030021FA04F360
:1003600045EA030130BDC4F10C04C4F1200220FAB7
:1003700002F001FA04F340EA0300294630BD21FAF5
:1003800004F0294630BD94F0000F83F4801306BFBB
:1003900081F480110134013D4EE77FEA645C18BFAF
:1003A0007FEA655C29D094EA050F08BF90EA020F46
:1003B00005D054EA000C04BF1946104630BD91EA3E
:1003C000030F1EBF0021002030BD5FEA545C05D141
:1003D0004000494128BF41F0004130BD14F5800480
:1003E0003CBF01F5801130BD01F0004545F0FE41F4
:1003F00041F470014FF0000030BD7FEA645C1ABF29
:10040000194610467FEA655C1CBF0B46024650EA5F
:10041000013406BF52EA033591EA030F41F400218B
:1004200030BD00BF90F0000F04BF0021704730B511
:100430004FF4806404F132044FF000054FF00001E6
:1004400050E700BF90F0000F04BF0021704730B5A7
:100450004FF4806404F1320410F0004548BF40427C
:100460004FF000013EE700BF42004FEAE2014FEAD1
:1004700031014FEA02701FBF12F07F4393F07F4FAC
:1004800081F06051704732F07F4208BF704793F0AF
:100490007F4F04BF41F40021704730B54FF46074C2
:1004A00001F0004521F000411CE700BF50EA0102C5
:1004B00008BF704730B54FF000050AE050EA01026E
:1004C00008BF704730B511F0004502D5404261EBDE
:1004D00041014FF4806404F132045FEA915C3FF41F
:1004E000D8AE4FF003025FEADC0C18BF03325FEABC
:1004F000DC0C18BF033202EBDC02C2F1200300FA6D
:1005000003FC20FA02F001FA03FE40EA0E0021FA91
:1005100002F11444BDE600BF70B54FF0FF0C4CF47F
:10052000E06C1CEA11541DBF1CEA135594EA0C0F31
:1005300095EA0C0F00F0DEF82C4481EA030621EA6C
:100540004C5123EA4C5350EA013518BF52EA0335A7
:1005500041F4801143F4801338D0A0FB02CE4FF059
:100560000005E1FB02E506F00042E0FB03E54FF089
:100570000006E1FB03569CF0000F18BF4EF0010E81
:10058000A4F1FF04B6F5007F64F5407404D25FEA7D
:100590004E0E6D4146EB060642EAC62141EA555130
:1005A0004FEAC52040EA5E504FEACE2EB4F1FD0C72
:1005B00088BFBCF5E06F1ED8BEF1004F08BF5FEAF0
:1005C000500E50F1000041EB045170BD06F00046A2
:1005D00046EA010140EA020081EA0301B4EB5C044F
:1005E000C2BFD4EB0C0541EA045170BD41F4801147
:1005F0004FF0000E013C00F3AB8014F1360FDEBF6C
:10060000002001F0004170BDC4F10004203C35DA47
:100610000C341BDC04F11404C4F1200500FA05F3CA
:1006200020FA04F001FA05F240EA020001F000426B
:1006300021F0004110EBD37021FA04F642EB0601E1
:100640005EEA430E08BF20EAD37070BDC4F10C040B
:10065000C4F1200500FA04F320FA05F001FA04F2CF
:1006600040EA020001F0004110EBD37041F10001BB
:100670005EEA430E08BF20EAD37070BDC4F12005C6
:1006800000FA05F24EEA020E20FA04F301FA05F22E
:1006900043EA020321FA04F001F0004121FA04F2D6
:1006A00020EA020000EBD3705EEA430E08BF20EAA6
:1006B000D37070BD94F0000F0FD101F000464000E0
:1006C00041EB010111F4801F08BF013CF7D041EA62
:1006D000060195F0000F18BF704703F00046520066
:1006E00043EB030313F4801F08BF013DF7D043EA37
:1006F0000603704794EA0C0F0CEA135518BF95EAED
:100700000C0F0CD050EA410618BF52EA4306D1D173
:1007100081EA030101F000414FF0000070BD50EA92
:10072000410606BF1046194652EA430619D094EA1C
:100730000C0F02D150EA013613D195EA0C0F05D106
:1007400052EA03361CBF104619460AD181EA03015A
:1007500001F0004141F0FE4141F470014FF0000012
:1007600070BD41F0FE4141F4780170BD70B54FF0AD
:10077000FF0C4CF4E06C1CEA11541DBF1CEA13552D
:1007800094EA0C0F95EA0C0F00F0A7F8A4EB05040F
:1007900081EA030E52EA03354FEA013100F0888006
:1007A0004FEA03334FF0805545EA131343EA1263CF
:1007B0004FEA022245EA111545EA10654FEA002684
:1007C0000EF000419D4208BF964244F1FD0404F53D
:1007D000407402D25B084FEA3202B61A65EB030599
:1007E0005B084FEA32024FF480104FF4002CB6EB56
:1007F000020E75EB030E22BFB61A754640EA0C00D6
:100800005B084FEA3202B6EB020E75EB030E22BF15
:10081000B61A754640EA5C005B084FEA3202B6EB56
:10082000020E75EB030E22BFB61A754640EA9C0015
:100830005B084FEA3202B6EB020E75EB030E22BFE5
:10084000B61A754640EADC0055EA060E18D04FEAA3
:10085000051545EA16754FEA06164FEAC30343EA43
:1008600052734FEAC2025FEA1C1CC0D111F4801F10
:100870000BD141EA00014FF000004FF0004CB6E709
:1008800011F4801F04BF01430020B4F1FD0C88BFA8
:10089000BCF5E06F3FF6AFAEB5EB030C04BFB6EBB3
:1008A000020C5FEA500C50F1000041EB045170BDA6
:1008B0000EF0004E4EEA113114EB5C04C2BFD4EBD3
:1008C0000C0541EA045170BD41F480114FF0000E57
:1008D000013C90E645EA060E8DE60CEA135594EAD3
:1008E0000C0F08BF95EA0C0F3FF43BAF94EA0C0FD6
:1008F0000AD150EA01347FF434AF95EA0C0F7FF44B
:1009000025AF104619462CE795EA0C0F06D152EA9E
:1009100003353FF4FDAE1046194622E750EA410682
:1009200018BF52EA43067FF4C5AE50EA41047FF493
:100930000DAF52EA43057FF4EBAE12E753B94AB963
:10094000002908BF00281CBF4FF0FF314FF0FF30D7
:1009500000F00CB8ADF1080C6DE904CE00F0E1F840
:10096000DDF804E0DDE9022304B07047704700BF02
:100970004FF0FF3C06E000BF4FF0010C02E000BF6B
:100980004FF0010C4DF804CD4FEA410C7FEA6C5C4E
:100990004FEA430C18BF7FEA6C5C1BD001B050EAF1
:1009A000410C0CBF52EA430C91EA030F02BF90EADC
:1009B000020F0020704710F1000F91EA030F58BF9B
:1009C000994208BF90422CBFD8176FEAE37040F0FD
:1009D000010070474FEA410C7FEA6C5C02D150EA9B
:1009E000013C07D14FEA430C7FEA6C5CD6D152EA56
:1009F000033CD3D05DF8040B704700BF844610461B
:100A000062468C461946634600E000BF01B5FFF719
:100A1000B7FF002848BF10F1000F01BD4DF808EDE9
:100A2000FFF7F4FF0CBF012000205DF808FB00BFBA
:100A30004DF808EDFFF7EAFF34BF012000205DF814
:100A400008FB00BF4DF808EDFFF7E0FF94BF012061
:100A500000205DF808FB00BF4DF808EDFFF7CEFF62
:100A600094BF012000205DF808FB00BF4DF808EDA1
:100A7000FFF7C4FF34BF012000205DF808FB00BF72
:100A80004FEA410C7FEA6C5C02D150EA013C0AD18A
:100A90004FEA430C7FEA6C5C02D152EA033C02D17C
:100AA0004FF0000070474FF0010070474FEA4102DD
:100AB00012F5001215D211D56FF47873B3EB6252B0
:100AC00012D94FEAC12343F0004343EA505311F0D7
:100AD000004F23FA02F018BF404270474FF0000069
:100AE000704750EA013005D111F0004008BF6FF0A7
:100AF000004070474FF00000704700BF430803F00C
:100B00005533C01A00F03333800800F033301844F6
:100B100000EB10104FF0013300F00F305843000E7F
:100B200070472DE9F04786468C460846089E1546D4
:100B300074461946002B40F0C2808542B2FA82F218
:100B400045D94AB1C2F1200300FA02FC2EFA03F3A0
:100B5000954043EA0C0C94404FEA154EA8B2BCFBFA
:100B6000FEF8230C0EFB18CC08FB00F943EA0C43FB
:100B7000994528D9EB1808F1FF3704D2994502D9D5
:100B8000A8F102072B44A3EB0903A4B2B3FBFEFCBC
:100B90000EFB1C330CFB00F044EA0344A04214D9C2
:100BA0002C190CF1FF3304D2A04202D9ACF102039C
:100BB0002C44241A43EA07401EB1D4400023346079
:100BC0007360BDE8F0874746DDE76346F1E792BB17
:100BD000431B01214FEA154EAFB2B3FBFEFC200CC4
:100BE0000EFB1C330CFB07F840EA0343984562D91F
:100BF000EB180CF1FF3004D2984502D9ACF1020099
:100C00002B44A3EB0803A4B2B3FBFEFC0EFB1C3386
:100C10000CFB07F744EA0344A7424ED92C190CF108
:100C2000FF3304D2A74202D9ACF102032C44E41BE7
:100C300043EA0040C0E7C2F1200320FA03F19540E7
:100C400090402EFA03F303434FEA154EAFB2B1FBC7
:100C5000FEFC0EFB1C10190C0CFB07F841EA0041CE
:100C6000884504FA02F422D969180CF1FF3004D245
:100C7000884502D9ACF102002944A1EB08019BB2DE
:100C8000B1FBFEFC0EFB1C110CFB07F743EA014312
:100C90009F420ED9EB180CF1FF3104D29F4202D9CA
:100CA000ACF102012B44DB1B41EA004192E76046B4
:100CB000E3E76146F7E76046A3E76346B7E78342A9
:100CC00006D916B9002108467BE7C6E900E0F9E736
:100CD000B3FA83F78FB9834201D3724508D8BEEBCC
:100CE000020460EB030301209C461EB9002168E763
:100CF0003846FAE7C6E9004CF8E7C7F1200CBB40DC
:100D000022FA0CF41C432EFA0CF120FA0CF3B84032
:100D100001434FEA14490EFA07F5B3FBF9F81FFA3D
:100D200084FE09FB18300B0C08FB0EFA43EA004363
:100D30009A4502FA07F240D9E31808F1FF3004D2CD
:100D40009A4502D9A8F102002344A3EB0A0389B211
:100D5000B3FBF9F809FB183308FB0EFE41EA034127
:100D60008E452CD9611808F1FF3304D28E4502D983
:100D7000A8F10203214443EA0040A0FB0298A1EB42
:100D80000E014145CE46434602D306D14D4504D21D
:100D9000B9EB020E68EB04030138002EA6D0B5EBC8
:100DA0000E0261EB030101FA0CFC22FA07F34CEA94
:100DB0000303F940C6E9003198E74046C5E74346DA
:100DC000D9E710F8012B11F8013B012A28BF9A42FC
:100DD000F7D0D01A7047034613F8012B002AFBD135
:100DE000181A0138704700002DE9F04F9FB0824675
:100DF000039116461C460025307810B9284600F0AD
:100E000085BD731C2528069306D00399D04700287A
:100E1000C0F27C8501351BE21822002110A810F0D9
:100E2000F8FC7378252B00F0BA800023711C9846DB
:100E30009E469C4618460F4611F8012B2B2A00F0BF
:100E4000DD8000F2D480202A00F0DB80232A00F02D
:100E5000DB802BB19DF8483043F040038DF84830DB
:100E6000B8F1000F05D09DF8483043F020038DF80D
:100E70004830BEF1000F05D09DF8483043F0100314
:100E80008DF84830BCF1000F05D09DF8483043F094
:100E900008038DF8483028B19DF8483043F004032A
:100EA0008DF848309DF8483003F04401442903D1BF
:100EB0006FF386138DF848309DF848300E9743F055
:100EC00080032A2A8DF8483040F0A3809DF84930ED
:100ED00043F001038DF849307B1C1A782E2A9DF8C7
:100EE00049200CBF0121002161F341028DF8492006
:100EF0000CD15A1C0E925A782A2A40F09A809DF8FA
:100F0000492042F004028DF8492002331A786C2AF5
:100F100000F0BB8000F29D80682A00F0A3806A2A5E
:100F200000F0BC804C2A00F0C18013F8012B06931E
:100F3000782A8DF84B2000F201816D2A00F2C380DF
:100F4000692A00F2FB80572A00F2DA80412A04D095
:100F5000A2F14503022B00F2F1809DF84A3002F025
:100F6000DF020421A2F1410761F302037A429DF8F6
:100F700049108DF84A307A4162F3C7110A068DF89C
:100F80004910CBB200F1198103F07802182A40F021
:100F900003816FF3C6038DF849300023F2E0B21CE1
:100FA00006928DF84B309DF84930D90740F1078102
:100FB00054F8042B0492002A08DA9DF8482042F0E5
:100FC00004028DF84820049A524204925A0740F1D4
:100FD000FE8054F8047B002F80F2FD809DF849309C
:100FE0006FF341038DF849304FF0FF37F3E02D2ABE
:100FF0000DD0302A7FF42DAF01231CE74FF0010CF8
:1010000019E74FF0010E16E74FF0010813E7012032
:1010100011E70EA801F0DEFF0E9BBB423FF45DAF6F
:101020009DF848201390C00F60F341028DF84820CE
:1010300053E70EA801F0CEFF9DF848301490C3F39B
:10104000400242EAD07262F341038DF848300E9BB1
:101050005CE7742A26D07A2A7FF467AF9DF849208E
:1010600006210CE05A78682A9DF8492006D1012112
:1010700061F3C6028DF84920023356E7022161F37D
:10108000C6028DF8492001334FE75A786C2A9DF843
:10109000492001D10421EBE70321F0E79DF8492025
:1010A0000521ECE79DF849200721E8E7BDF8482035
:1010B00022F4F04222F0020242F4804242F00202A4
:1010C000ADF84820DFE76E3AD3B201229A4040F2F1
:1010D00082431A429DF8493037D112F0240F5FD174
:1010E000D1072BD59DF84A2003F07803A3F14000E7
:1010F000032161F3020243428DF84A20434141E05B
:10110000A2F15801C9B2012000FA01F111F4624FB5
:101110007FF423AF40F6010319429DF849301AD1FC
:1011200011F4043F0AD09DF84A2060F3020203F054
:101130007803402B8DF84A207FF42FAF9DF848307C
:1011400043F001038DF8483027E79DF84A2002213B
:1011500061F30202EBE79DF84A10022003F07803E6
:1011600060F30201402B8DF84A1002BF9DF8481031
:1011700041F001018DF84810632A7FF40EAF003B67
:1011800018BF01239DF84820C2F340010B4363F3CD
:1011900041028DF8482006E713F0380FCED1FCE667
:1011A0009DF84A20032113F0780F61F302028DF8B5
:1011B0004A2014BF01230023E4E70123E2E79DF95D
:1011C0004820002AB4BF139A4FF0FF32FDE69F0774
:1011D0007FF50AAF149F9DF84A200023CDE9133311
:1011E00002F00703042B9DF8493007D1980705D476
:1011F0009DF949100029ACBF06270D2702F0070210
:10120000012AC3F3C30333D1DA1E042A04D8DFE86A
:1012100002F02146462121002268012B4FEAE271AB
:10122000CDE910211CD19DF94020D117CDE9102125
:1012300004349DF848200792910750D0069B0399EB
:10124000324650460DF0CBFD0028C0F25F830544C6
:10125000069ED1E554F8042BD117CDE91021E8E71B
:10126000022BE5D111B242F3C032CDE91012DFE713
:10127000022A24D1DA1E042A04D8DFE802F018106A
:1012800010181800012B54F8042B4FF0000114D053
:10129000022BCDE91021CCD192B21092C9E70734CC
:1012A00024F00704F4E80201CDE91001C1E754F885
:1012B000042B109200221192BBE7D2B2CDE7042A90
:1012C00008D1073424F00704D4E900010834CDE93B
:1012D0001001AEE7032AACD154F8042BDDE79DF8EA
:1012E0004BB0BBF1780FB3D8BBF1570F49D8BBF166
:1012F000250F00F09180BBF1240FA9D9BBF1410F5C
:1013000003D0ABF14503022BA2D8DDE91013002B6B
:10131000C0F23781079A160700F13681C2F300192F
:101320004FEA4919C3F30A50C3F31303002840F0EE
:101330002E8151EA030614BF01260026DB0243EA90
:101340005153C902BBF1460F40EA010E43EAE07C6B
:1013500008BF4FF0660B5EEA0C0CCDE90C1300F0F1
:101360009D81002E40F04A810D9B43F00043A0F286
:10137000FE380D930020DDE90C1306464FF0050CF6
:1013800056E1ABF1580120293FF662AF01A050F8B9
:1013900021F000BF21150000511200005112000081
:1013A00051120000511200005112000051120000B1
:1013B00051120000511200000B13000051120000E6
:1013C000A5140000B91400000B1300000B1300005B
:1013D0000B13000051120000B9140000511200005C
:1013E0005112000051120000511200005B15000064
:1013F00021150000271500005112000051120000B5
:101400001F140000511200002115000051120000AD
:10141000511200002115000003995846F6E4002FF0
:10142000109E3BDB3946304610F04EFB002E3FF459
:101430000FAF3718BB1B4FF000099DF84A2012F080
:101440001001059100F05782023312F04002DDF8DE
:101450004C80089218BF149ACDF81C80434418BFE2
:101460009B18049A002A40F36182D31A04939DF8D2
:1014700048305807C3F3800B00F15882590640F1F9
:101480004882B9F1000F07D003994846D047002899
:10149000C0F23C820135D94630233BE23046FFF7AB
:1014A0009AFCC6E7109B8DF85C304FF000090DF1F7
:1014B0005D0717AE0123C0E7079B1A0758BFC3F3A8
:1014C0000019DDE9102354BF4FEA49194FF02B09E9
:1014D000002B06DA524263EB4303CDE910234FF0B1
:1014E0002D090DF175030093DDE9100117AB12AA68
:1014F00001F086FD0646002F0CDB9DF848200DF11B
:1015000075039B1B6FF386129F428DF8482001D90B
:10151000FB1A1393002E3FF49BAE0DF175075BE0B1
:101520004FF00009DDE71098002800F0DF810DF191
:101530007503009312AA17AB002101F061FDBDF8FD
:101540004A3003F0EF0343F4F04343F01003064640
:10155000ADF84A304FF00009CDE7109A072B3FF65F
:1015600077AEDFE803F00C04060C08080C0C1570CD
:101570006EE615806CE6EB17C2E9005368E615606D
:1015800066E64FF02D09CDE64FF02B09CAE640F292
:10159000FF76B0422FD10BF101029F48D2B20B432C
:1015A000825C02F003021ED1012A0BBF492369238A
:1015B0004E216E210CBF462266228DF85C309DF8CC
:1015C00048308DF85D106FF386138DF85E208DF82E
:1015D00048300DF15F0717AEBB1BB9F1000F3FF4A8
:1015E0002CAF013329E7012A15BF6E234E23612159
:1015F00041211A46E1E70026A0E6013849185B417F
:10160000002BFADACDE90C13AEE6490841EAC371C2
:101610005B08B3F1333F404608F10108F5D20CFBFB
:1016200003FEA1FB0C1300F102087344013E0120EC
:1016300018F1020FE9DB08B1CDE90C13B8F1000F86
:10164000DDE90C312DDCC8F10400A0F1200C08F11B
:101650001C08C34001FA08F821FA0CFCC1400BF049
:10166000DF0043EA0803472843EA0C033AD1F01CA1
:1016700001DBB7422BDAABF10202002F5FFA82FBEB
:101680007DDD9DF84800820607F1FF3777D43A1ECA
:1016900018BF0122059207F101082DE04FF0000864
:1016A00068E6023341F100010CA8CDE90C310DF0E0
:1016B00067FBDDE90C3108F1FF380136DB184941E1
:1016C000002908F1FF38F9DACDE90C31B6E79DF8C9
:1016D00048209006A7EB06074FD43A1E18BF0122F8
:1016E000059204E00022BBF1660F0592D3D117EBFF
:1016F00006084FF0660B44D4B8F1100FA8BF4FF0A6
:1017000010089FED437B8DED0E7B10200B90DDE9E3
:101710000E02B8F1000F37D1C01842EB0103B3F14C
:10172000805F41D2CDE90C03079BBBF1660F03F04C
:10173000200340F0BA80002E41DC30218DF85C108F
:10174000002B6BD1002F40F3B4812E238DF85D3038
:1017500086B17342BB42A8BF3B469DF84A10139323
:10176000002BA7EB0307D4BF0023012363F345112C
:101770008DF84A100DF15E0839E00022B0E7002232
:1017800088E74FF00008BCE7400840EAC270520802
:10179000CDE90E020EA8CDE9083108F1FF380DF0B1
:1017A000EFFADDE90831B2E7400840EAC3705B08B0
:1017B000CDE90C030CA80DF0E3FA0136B4E70DF106
:1017C0005C080B99002909DD0BA90CA807930DF003
:1017D000EFFA013E08F8010B079BF2D113969BB973
:1017E000002F40F364812E2108F8011B0026002FF2
:1017F0001DDD0B9B002B1ADD0BA90CA80DF0D8FAF0
:10180000013F08F8010BF2E72E2308F8013BEDE752
:101810000000000000000008F93E01002E238DF8B2
:101820005D30002EA6D0002F93DC0DF15E08059BE5
:10183000002B4ED1149747460BF0DF03452B23D1E5
:10184000002EBABF76422D232B23632EC8BF6421FE
:101850007B70D1BFBA1CB6FBF1F3FA1C03F1300068
:10186000C8BF01FB13664FF00A01C8BFB87087F804
:1018700000B0B6FBF1F3174603F1300001FB136330
:10188000303307F8020B5370139B002B2CDC149B96
:10189000002BD4BF002301239DF84A2063F3861256
:1018A00000238DF84A203B7095E60BA90CA80793FE
:1018B0000DF07EFA079B8DF85C00302818BF06F10A
:1018C000FF3613B9002F40F3F4802E238DF85D30DE
:1018D00050E7474608F1FF3817F8013C302BF8D0A5
:1018E0002E2B08BF4746A7E70123D5E7724F814655
:1018F0007E1F0523A1E5110748BF0133A5E5184662
:1019000009930399D0470028099B05DA1FB0BDE869
:10191000F08F2023DDF810B05A46002A0BF1FF3B70
:10192000EDDC049BCDF810B02B449D1AB9F1000FEB
:1019300005D003994846D0470028E7DB0135089BCE
:10194000002B79D09DF94930002B29DBDFF86C9111
:101950003346187819F8002052079B4603F101031B
:101960003FD49DF84A30AE1B98065E4407D44246E9
:10197000002A08F1FF383BDC079B33449E1A9BF892
:1019800000002E280AD10399D0470028BEDBB8F109
:10199000000F06F1010631DC0BF1010B5D4638E06A
:1019A000B14699F800007028C84609F1010913D121
:1019B000AE1B149D46443544AB1B002B34DC03990D
:1019C0003B46424650460DF00AFA00289EDB304462
:1019D000049E0546064465E00399D0470028E0DAF6
:1019E00094E705930399D0470028059BB1DA8DE76A
:1019F00003993020D0470028B9DA87E703993020CF
:101A0000D04708F1FF38C0E70399D0470028FFF618
:101A10007DAF287819F800305907A84605F101056F
:101A2000F2D4A6EB0B06C4E703993020D047002878
:101A3000FFF66CAF0136BFE79DF84A30DA0601D4F5
:101A40001B0706D503993020D0470028FFF65EAF6C
:101A50000135059B3BB103999DF84B00D047002809
:101A6000FFF654AF0135A84406E003993020D04773
:101A70000028FFF64BAF0135A8EB0503002BF4DC83
:101A800003993B46324650460DF0A9F90028FFF66F
:101A90003DAF28449CE703992020D0470028FFF65B
:101AA00035AF0135731B002BF5DCFFF7D1BB1E46AC
:101AB000BDE60DF15D08BAE6D02C0100FA3E01004A
:101AC0002DE9F04F476A97B08DED000B55EC104BA8
:101AD000209E089183460C9212937FB910200BF040
:101AE00027F80246CBF8240020B9A74BEA21A748E3
:101AF0000CF09CF8C0E901770760C760DBF8243080
:101B0000196859B15A684A60012393408B6058465E
:101B10000BF0B6FCDBF8243000221A602B1EB9BF94
:101B200023F00043019300233360019F984BBCBF17
:101B300001223260BB4319D1129A42F20F73136033
:101B4000C7F31303234300F0DD85219B53B9914B69
:101B500021E0914B03930833219A1360039817B047
:101B6000BDE8F08F8B4B03930333F5E79DED007BCE
:101B7000002251EC170B00238DED0A7BFEF74EFF80
:101B8000804650B1129A01231360219B13B1219A10
:101B9000824B1360824B0393E0E79DED0A0B14AA7E
:101BA00015A958460BF0EEFEC7F30A560290002E18
:101BB00078D00B9BCDF84C80C3F31303DDE90A0109
:101BC00043F07F5343F44013A6F2FF361946002238
:101BD000744BFEF7E9FA66A3D3E90023FEF79CFCF9
:101BE00065A3D3E90023FEF7E1FA044630460D462B
:101BF000FEF728FC62A3D3E90023FEF78DFC024622
:101C00000B4620462946FEF7D1FA04460D46FEF75C
:101C10004DFF00220746002320462946FEF708FF15
:101C200040B13846FEF70EFC22462B46FEF7F6FE84
:101C300000B9013F162F52D85B4B03EBC703D3E922
:101C40000023DDE90A01FEF7F3FE002849D0013F39
:101C500000231193149B9B1B5A1E45BFC3F1010324
:101C6000069300230023079254BF06930793002F87
:101C700039DB079B10973B44079300230993089B8C
:101C8000092B66D8052BC4BF043B0893089BA3F11E
:101C90000203CCBF00240124032B65D8DFE803F046
:101CA0002B383657DDE914631E4406F23243202BED
:101CB000C1BFC3F140039F4006F2124324FA03F36D
:101CC000D6BFC3F1200347EA030004FA03F0FEF78E
:101CD000A9FB0122A1F1F873013E139276E70123DB
:101CE000B7E71190B6E7069BDB1B06937B4209938F
:101CF00000231093C3E700230D930C9B002B57DCAC
:101D00000123049399461A460C920CE00123F3E751
:101D100000230D930C9BFB1803F1010904934B4620
:101D2000012BB8BF0123DBF824000021042202F1BB
:101D300014059D4240D9416058460BF061FB039069
:101D400000283CD1194B02464FF4D571CFE6012350
:101D5000DFE70124002308930D944FF0FF33049331
:101D6000994600221223CFE701230D93F5E700BF28
:101D700061436F63A787D23FB3C8608B288AC63F91
:101D8000FB799F501344D33F354001004C40010084
:101D90000000F07F314001002840010011380100AF
:101DA000103801000000F83F20250100A840010084
:101DB0000C9B04939946B6E701315200B7E7DBF874
:101DC0002430039A1A60B9F10E0F6FD8002C6DD031
:101DD000002F36DDA14B07F00F0203EBC20393ED9A
:101DE000007BF8058DED0E7B4FEA271417D59C4B31
:101DF000DDE90A01D3E90823FEF7B8FCCDE90001CB
:101E000004F00F044FF00308954D5CB9DDE90E2393
:101E1000DDE90001FEF7AAFCCDE900012BE04FF05F
:101E20000208F1E7E10709D5DDE90E01D5E9002354
:101E3000FEF772FBCDE90E0108F1010864100835C8
:101E4000E3E700F007817C42844B854D04F00F02EC
:101E500003EBC203D3E90023DDE90A01FEF75CFBD3
:101E6000CDE90001241100234FF00208002C40F0BE
:101E7000E580002BD0D1119BDDE90045002B00F05F
:101E80004C81784B002220462946FEF7D1FD0028E0
:101E900000F04381B9F1000F00F03F81049B002B5B
:101EA00000F3E480DDE90A34CDE90034159B002B12
:101EB00002DB0E2F40F342820D9A002A40F0678227
:101EC000099CDDF818800025B8F1000F0DD0079BA4
:101ED000002B0ADD4345069AA8BF4346D21A069254
:101EE000079AA8EB0308D31A0793099B0BB30D9B22
:101EF000002B00F0A682002C00F0A1822946224689
:101F000058460BF0E5FB029A0146054658460BF091
:101F100035FB0299064658460BF0B2FA099B1B1B8B
:101F2000099300F09182099A314658460BF0D0FB94
:101F30000290012158460BF00BFB109B0446002B2E
:101F400000F084821A46014658460BF0C1FB089BFC
:101F5000012B044603DC009B002B00F07C82002652
:101F6000236904EB830318690FF052FE1096C0F149
:101F70002000079B184410F01F0000F09182C0F170
:101F80002003042B40F38182069BC0F11C00034414
:101F90000693079B034480440793069B002B05DDB3
:101FA00002991A4658460BF0EDFB0290079B002B56
:101FB00005DD21461A4658460BF0E4FB0446119B0A
:101FC000002B00F07682029821460FF070FE002868
:101FD00080F26F82002302990A2258460BF072FAAF
:101FE0000D9B02907E1E002B00F05C820023294690
:101FF0000A2258460BF066FA049B002B054603DCC8
:10200000089B022B00F35E82B8F1000F05DD294624
:10201000424658460BF0B6FB0546109B002B00F0DD
:10202000D082696858460BF0EBF90746002840F06B
:102030007F820D4B024640F2EA2158E5E20706D5C1
:10204000D5E90023FEF768FA08F1010801236410BE
:1020500008350BE74FF002080DE700BF202501000F
:10206000F82401000000F03FA84001002046AD4BDD
:1020700000222946FEF750FACDE90001049C7E1E9D
:1020800008F101084046FEF7DDF9DDE90023FEF71F
:1020900043FAA54B0022FEF789F8A1F15073CDE970
:1020A0000E010F93002C3BD1DDE900019F4B002274
:1020B000FEF77AF802460B46CDE90023DDE90E2350
:1020C000FEF7D4FC002840F05781DDE90E2101F134
:1020D0000043DDE90001FEF7ABFC00283FF4E2AE6F
:1020E000002425460C9BDDF80CA0DE434FF00008D1
:1020F000214658460BF0C4F9002D00F0A980B8F134
:10210000000F05D0A84503D0414658460BF0B8F95A
:10211000294658460BF0B4F99AE03E464C46B1E7E2
:10212000834B03EBC40353E90201039B1C440D9B47
:10213000002B4AD002460B4600207E49FEF716FBD4
:10214000DDE90E23FEF730F8CDE90E01DDF80CA035
:10215000DDE90001FEF7AAFC0546FEF773F9024629
:102160000B46DDE90001FEF71FF83035CDE900012F
:1021700002460B460AF8015BDDE90E01FEF776FC2C
:10218000002865D1DDE900236B490020FEF70CF83B
:1021900002460B46DDE90E01FEF768FC002840F020
:1021A0000D81A24500F0EA80DDE90E015D4B0022C1
:1021B000FEF7B2F95B4BCDE90E010022DDE900012B
:1021C000FEF7AAF9CDE90001C2E7DDE90E23FEF72B
:1021D000A3F9CDE90E01DDF80CA0A046DDE9000170
:1021E000FEF764FC0546FEF72DF902460B46DDE9D5
:1021F0000001FDF7D9FF30350AF8015B02460B46B6
:10220000A245CDE900234FF0000223D1494BDDE97F
:102210000E01FDF7CBFF02460B46DDE90001FEF79C
:1022200025FC002840F0CA80DDE90E23414900204A
:10223000FDF7BAFF02460B46DDE90001FEF7F8FBA9
:1022400070B1C24608F1FF381AF8013C302BF8D0C3
:10225000374655E0334BFEF75FF9CDE90001BDE7A6
:10226000DDE90A34CDE90034159B002BFFF628AEDA
:102270000E2F3FF725AE2E4B03EBC70393ED007BEC
:102280000C9B002B8DED047B02DAB9F1000F64D0BA
:10229000DDE90045DDF80CA0DDE9042320462946F0
:1022A000FEF764FAFEF702FC0646FEF7CBF8DDE91E
:1022B0000423FEF731F902460B462046294606F173
:1022C0003004FDF771FF0AF8014B039CAAEB0404EC
:1022D000A14502460B4640F08280FDF767FFDDE92D
:1022E000042304460D46FEF7C1FB002865D1DDE955
:1022F000042320462946FEF791FB08B1F3075CD47E
:10230000029958460BF0BCF800238AF80030129B63
:1023100001371F60219B002B3FF420ACC3F800A0C5
:102320001CE400BF0000244000001C4000001440DA
:10233000202501000000E03F0000F03FA24B03EB2E
:10234000C70393ED007B0C9B002B8DED047B9FDA84
:10235000B9F1000F9CDC7FF4C3AE9C4B0022DDE999
:102360000401FEF7D9F8DDE90023FEF775FB04460A
:1023700000287FF4B5AE3E462546B4E0DDE90A34D8
:10238000CDE90034159B002B01DB0E2FD6DD089A1A
:10239000012A36DC139A82B303F23343099CDDF839
:1023A0001880069A1A440692079A01211A44584640
:1023B00007920BF0CDF8054686E53E4653469A4611
:1023C00013F8012D392A06D1039A9A42F7D10399BD
:1023D000302201360A701A7801321A7038E77C4BC5
:1023E0000022FEF799F80022002304460D46FEF76E
:1023F00015FB00283FF450AF82E7149BC3F136036E
:10240000CCE7099B09F1FF34A34208DBB9F1000FC7
:10241000A3EB04040EDBDDF818804B46C1E7099BF3
:10242000109A0994E31A1A44DDF8188010924B466A
:102430000024B6E7069BA3EB09080023B1E7029E40
:1024400071E5099A029970E5029672E5089B012BE5
:1024500017DC009BABB9019BC3F313039BB9019B32
:1024600023F00046360D360536B1069B0133069340
:10247000079B013307930126109B002B7FF470AD5F
:102480001096012075E50026F6E73FF486AD069A22
:102490001C331A440692079A1A44984407927CE522
:1024A0000346F4E7049B002B2BDC089B022B09DC82
:1024B00027E0B9F1000F1DDC089B022B1ADDCDF8D7
:1024C00010903E46049B002B7FF40CAE2146052263
:1024D00058460AF0F7FF0146044602980FF0E7FB62
:1024E00000287FF7FFADDDF80CA031230AF8013B8F
:1024F0000136FBE50D9BCDF810903E46002B7FF496
:1025000083AD039F029821460FF0FAFA00F13009DB
:1025100007F8019B039B049AFB1A9A4240F3CB8075
:10252000029900230A2258460AF0CCFF0290E9E7FC
:102530002A690232920005F10C010C300FF05BF9B0
:102540000122394658460BF01DF9039B03F1010A9D
:10255000DDE9032313440793009B03F00103A8461E
:10256000099305460AF1FF332146029804930FF0C0
:10257000C7FA4146069000F1300902980FF097FB28
:102580002A462146074658460BF068F9C2680146BC
:1025900002B358460AF074FF002F3ADA029901227A
:1025A00058460BF0EFF8214602900FF080FB002810
:1025B00003DC29D119F0010F26D0B9F1390F1DD153
:1025C00032E02846C1E700BF20250100000014408A
:1025D000000024400A9002980FF069FB0A990C90C1
:1025E00058460AF04DFF0C9A5ABB089B53B9099BF9
:1025F00043B9B9F1390F17D0002F05DD069B03F160
:10260000310901E0002F2ADADDF810A00AF8019B59
:102610006EE5089B3B4304D1009B03F00103002BB4
:10262000BCD0B9F1390F36D1049F392307F8013BEB
:10263000BA46013F1AF8013C392B5BD001333B709D
:1026400056E5002F06DB089B3B4306D1009B03F0B9
:10265000010313B9002AA1DCD6E7002AE1DC079BBD
:102660000AF8019C534557462FD0029900230A22AD
:1026700058460AF027FFA84502904FF000034FF09C
:102680000A02414658460BD10AF01CFF8046054617
:102690000AF1010A66E7DDF810A009F10109B5E7C2
:1026A0000AF010FF2946804600230A2258460AF005
:1026B00009FF0546ECE7049B002BC8BF1F46039BA0
:1026C000D8BF01271F444FF0000802990122584645
:1026D0000BF058F8214602900FF0E9FA0028A7DC29
:1026E00002D119F0010FA3D1BA4617F8013D302BE2
:1026F000FAD0FDE4039BBB429AD1039A3123013601
:102700001370F5E4219B002B7FF423AA014BFFF704
:1027100042BA00BF2840010030B5234DCBB00024A1
:10272000294606A8CDE9064402F00AFA00280DDA87
:102730001E4B1F490094CDE90350CDE9014301220E
:10274000234620460CF01EF84BB030BD194B0395C4
:10275000CDE901430094234620461549164C144DFB
:1027600003220CF00FF808A906A802F05BFA034652
:1027700010B99DF821201AB906A802F0D3FAE3E7B0
:102780009DF8202049990591002A14BF4422462231
:102790000DF12101CDE90321CDE90134009303229C
:1027A00029460BF0EFFFDEE7042B01000E2B0100A2
:1027B00088240100292B0100362B010030B5CBB055
:1027C000244B254A80210AA80AF0D6FD00240122C4
:1027D0000AA907A8CDE90744099402F0DDF800280A
:1027E0000EDA0AAB03931D4B0490CDE901431C495B
:1027F00000942346012220460BF0C4FF4BB030BDAD
:102800002AAD7F22294607A802F056F9002816DDD6
:1028100000F594730DEB03000AAB00F8804C0393B2
:10282000104B0F490495CDE9014300942346032240
:1028300020460BF0A7FF07A802F01AF9DEE70A4BC3
:1028400007490094CDE901430122234620460BF0BD
:1028500099FFF0E7492B0100522B01005F2B01008B
:1028600088240100822B0100932B010030B5ADB00C
:1028700054480DF018F80446524806AA00210DF0FD
:102880000DF8034640BB079A4F49009054434F4A06
:102890000394CDE9010203220BF074FF00244C4B9A
:1028A0004C4D49490293032223462046CDE900447A
:1028B0000BF068FF284602F0AFFA002816DA464B04
:1028C0000390CDE90143404900942346012220466C
:1028D0000BF058FF2DB030BD404B02930023039006
:1028E000CDE90033384901221846D5E7EB68039358
:1028F0003B4B35490094CDE9014303222346204652
:102900000BF040FF374802F033FA002830DA10F1BC
:10291000110F2DD0344B0390CDE901432A49009487
:102920002346012220460BF02DFF304B304A8021F8
:102930000CA80AF021FD002432220CA909A8CDE937
:1029400009440B9402F028F800281CDA0CAB03931E
:10295000284B0490CDE901431B49009423460122F2
:1029600020460BF00FFFFFF729FFFFF7D5FEB1E779
:10297000214B02930023CDE900331349032218466B
:102980000BF000FFD1E71D49132209A802F0B6F8A9
:1029900000280EDA1A4B0390CDE901430094234638
:1029A0000122184608490BF0EDFE09A802F060F874
:1029B000D9E70CAB0393134B0094CDE901430322F9
:1029C0002346EEE78422010088240100A82B0100A1
:1029D000EC2B010098000020012C0100C82B010005
:1029E000122C0100042B0100292C0100492B0100AD
:1029F000522B0100582C01003A2C01007B2C0100C5
:102A00008F2C0100A12C01002DE9F04F91B084071B
:102A1000009302F004030293C2F3C20303F1010323
:102A2000DDF86890039205460E46059340F0BA81A2
:102A3000041D30B1072909D86FF01B0011B0BDE8A3
:102A4000F08F01F00706341DC6F10806009B4FF019
:102A50000008591E4FF0040A4FF0FF330193CDF8E0
:102A600010804746C34653460DB100982060059834
:102A7000002800F3E8809848009A824203D39748E0
:102A80008242C0F0E080039AA4EB050E92074FEA61
:102A90009E0000F103810F2F00F2B180002D00F0A5
:102AA000058107F140020DEB020C019A0CF8200C95
:102AB0000CF8102C049801300490E7E07A285DD8D7
:102AC0004B280ED8472859D829282DD8252852D048
:102AD00054D820287AD02338D0F1000B4BEB000BD0
:102AE00074E04C382E2849D8DFE800F07048484898
:102AF00048484848484848484B4848484848484853
:102B00004859484B4B595959704B6D487048184BB0
:102B1000184848827F4B48484B487F0000204FF0C0
:102B2000000B4FF0040A38E02A38C0B2012202FA42
:102B300000F010EA0E0F49D110F0625C2FD110EABC
:102B4000020B43D06046013C5444B4FBFAF40AFB48
:102B500004F4002D61D0A3EB050CA4446645FFF4FA
:102B60006BAF002868D1042B47D159F8043B236090
:102B7000043404232AE0019A013A01924FF0000B39
:102B800024E011F8010C6C2834D111F8023C00202B
:102B90006C2B8346C5D14FF0080A5346D3E709F1A1
:102BA000070929F007090734F9E802AB24F0070404
:102BB00035B106982044B0423FF63EAFC4E900ABC1
:102BC00008344FF0000B4FF0080A534611F8010F7C
:102BD000002878D0BBF1000F7FF470AF2528F5D125
:102BE000019B013301934FF0010B4FF0040AECE716
:102BF000584694E700208346A5E7082B02D06FF0E3
:102C000015001BE709F1070929F00709B9EC027B58
:102C100084ED007B08340823D8E768B9042B02D17F
:102C200009F10409A4E7082BE9D109F1070929F002
:102C3000070909F10809EDE705980138059059F8E9
:102C4000040B009010E7039A900720D5A4EB050E23
:102C50004FEA9E004FF0010CBEF5007FCFD20F2F40
:102C6000CDD8F5B107F140020DEB020EC0B2019ACA
:102C70000EF8200C0EF8102CBCF1000F3FF41AAF28
:102C800060F07F000EF8200C08F101080137C5F153
:102C90000802043406924FF6DA7E97E74FF0000CF4
:102CA000DAE7BCF1000F01D00136EFE7029A0236F5
:102CB000002AEBD10098CDE90631FEF78CF8DDE96A
:102CC00006310644E2E7631BB3F5806F97D23DB946
:102CD000A6F10804E018B1E6202101006C410100D2
:102CE000029A28609B082B709DF81030C2B1EB70DF
:102CF00085F80280B8F1000F05D008A80022C5F1C0
:102D0000010C97420ED1C5F101030DF120094FF0DE
:102D1000000A01930DF1300B574512D1601B8DE66F
:102D20006B70E5E710F8013B190608D504EB0C0EB3
:102D3000764503F07F03FFF47FAE04F8013B0132D8
:102D4000DFE7B8F1000F03D099F90020002A17DB64
:102D5000029BD3B11AF80B2004F8012B0022019B2F
:102D6000981820448642FFF467AE99F8000004F8F2
:102D7000010B0099039220460EF03DFD039A144486
:102D80000AF1010A09F10109C6E799F8002055F88E
:102D900022300093029B45F822300098FEF71BF882
:102DA000421CDCE76FF00D0048E600BF014B1860E5
:102DB000704700BFC00100202DE9F047058B044695
:102DC0002807904611D4022905F0070540F0CD8070
:102DD00020460BF0FBFE78B10138218B042811D876
:102DE000DFE800F0C3106D85950001290CBF45F0A8
:102DF000100545F02005258388F31188BFF36F8FF8
:102E0000BDE8F08701F0070AAA4500F0A680002778
:102E1000B9463E46A368002B00F0BD8041F0080192
:102E2000218388F31188BFF36F8FA168002900F018
:102E3000BB800D68002900F0B780D1F804803346CC
:102E400052462046C047002D76D02B6829461D46A5
:102E5000F0E701F007035A1F012A1BD8002221F0D6
:102E60000701062B276889B2C4E9002209D13B4635
:102E700003E0628B013262831B68002BF9D141F0C1
:102E80000201218320460BF0A1FE00287BD041F0F7
:102E9000200177E0042B0AD121F0070189B22183B8
:102EA00020460BF093FE10B141F020012183218BCD
:102EB00001F0070AAA4550D00027B946AAE72369BE
:102EC00021F0070141F00601062DD3F8009021837F
:102ED0002DD1B9F1000F40D041F00801218388F3D2
:102EE0001188BFF36F8F3A492046C84729E021F087
:102EF0000701236941F0040189B2042DD3F804903D
:102F00002183E6D000273E464FF0040A82E721F0F5
:102F10000701236941F0050189B2052DD3F8089016
:102F20002183D6D000273E464FF0050A72E70027DE
:102F30003E464FF0060A6DE72B4687E7B9F1000FD2
:102F4000D1D14FF02003EFF3118883F31288BFF340
:102F50006F8F238B23F008032383258BEA062ED55E
:102F600025F01003238305F007056669218B002EE9
:102F7000BFF66FAF00232768C4E9003321F00701D3
:102F800041F001012183218B01F0070AAA454FF08E
:102F900000097FF43FAF002F9BD041F0080121834F
:102FA00088F31188BFF36F8F002FC7D03D68394673
:102FB0003346524620460BF035FE2F46F4E7AB066B
:102FC0007FF51AAF25F02003238305F00705FFE600
:102FD00051EC0000F0B5094E016802460A270020B6
:102FE0000B4601311C78355D6D0701D41360F0BDCF
:102FF00007FB0043A3F13000F2E700BFFA3E0100F7
:103000002DE9F84F15469A46D378224A12F803B0B4
:103010006F2B80460F460BF0030B29D024D8582B7A
:103020000CBF10260A26DDF82890324600234046C1
:103030003946FDF783FC092AD4B21ED83034B04596
:10304000E4B277F1000709F8014D01D3D14511D859
:103050002B789B0605D5082E15D1AB7843F00803D5
:10306000AB704846BDE8F88F03F0F703702BD7E745
:103070000826D8E780460F46D7E7BBF1010F0CBF03
:1030800037345734DBE7102EEBD1AB7843F0100325
:10309000E6E700BFFA3E010008B504464FF0200203
:1030A000EFF3118382F31288BFF36F8F04F08CFD6E
:1030B000204601F029FA03480BF0A6FB00F08EFC35
:1030C000FCE700BFD12C010004F0D8BD2DE9F84F7A
:1030D00081462F480F460BF09EFE064670B92D4CD8
:1030E000DFF8B4A00546A0464FF0010B544507D3C6
:1030F000B9F1000F02D04FF0010AE5B9BDE8F88F31
:10310000237B73B12368DB680BB1204698472368A3
:103110001B6943B9636804221968204600F0C8F8A7
:1031200001361034E2E7204698470028F2D00BFA27
:1031300006F31D43F4E7A94695FAA5F4B4FA84F41E
:103140000AFA04F3260108EB04146FEA030B25EADC
:103150000305237B63B158F806301B6993B94644D5
:10316000042273682046196809EA0B0900F0A0F8E8
:10317000002DE1D127B14FF4A470002109F04EFADF
:103180004D46BAE7204698470028F1D1E7E700BF4F
:10319000700A0020D0240100E0240100014B53F804
:1031A00020007047E825010008B5034608462BB10A
:1031B000044A136000F082FA002008BD6FF0150089
:1031C000FBE700BFC4010020054A06480023137036
:1031D000054A1360054A4FF400411360FFF7E4BF4E
:1031E0009014002013EE0000680A00206C0A0020F2
:1031F00070B50B4D297841B90120FFF767FF094CE5
:10320000094EB44202D301232B7070BD63685B7911
:103210001BB1236820469B6898471034F1E700BF34
:1032200090140020D0240100E024010010B50446D1
:1032300008480BF0F0FD5CB1BFF35B8F064B53E821
:10324000001F013943E80012002AF8D1BFF35B8F59
:1032500010BD00BF680A00206C0A002070B50A4B40
:103260000A4C1B680A4E05469847A860B44200D332
:1032700070BD63685B7923B1236829461B682046CB
:1032800098471034F2E700BFC4010020D0240100A9
:10329000E0240100044A054B9B1AB1EBD30F34BF65
:1032A00052F831000020704718240100D02401009A
:1032B000084BC31A10B41B114468013323714368CF
:1032C0009A7143681960436801225A715DF8044B92
:1032D0000BF0C3BDD02401002DE9F04F85B002AF43
:1032E000D7E90EA93D6B04460E4693469846BAF1BF
:1032F000000F33D0C7F80490CDF8009010217A6BFE
:1033000053460020FFF780FB0146154A04F00704EE
:103310000BF0070BE40044EA8B1402EA4122144349
:1033200044EA055417350D4425F00705ADEB050DAE
:1033300002ADBAF1000F07D0CDF800907A6B53467A
:1033400005F11000FFF760FB434622463146284650
:103350000BF086FD0C37BD46BDE8F08F5146D4E733
:1033600000FE0F000EB403B503AB014653F8042B67
:10337000044801930BF0B6FD02B05DF804EB03B016
:10338000704700BF93EE0000CA0605D48B064CBF01
:1033900002490349FFF7E6BF704700BF082D01004F
:1033A000072D01002DE9F04F8BB09A46DDE9167329
:1033B0009DF854B00693189B199E089204460D463A
:1033C0000593BBF1000F00F0858006F0010309931F
:1033D00006F0080307930BF041FD06F002090246D0
:1033E000002847D084492046FFF7BCFF8046B9F14A
:1033F000000F08D016F0440F3ED180492A462046DF
:10340000FFF7B0FF8044099B53B17D4B7D4953F8D2
:103410002B207D4B2046002A08BF1A46FFF7A2FF4B
:10342000079B002B54D0794B794953F82B20204629
:10343000FFF798FF0546089B2BB176491A462046B0
:10344000FFF790FF0544BAF1000F05D072495246CC
:103450002046FFF787FF05444544002F48D1059BD0
:10346000002B4ED1F30700F1C08031462046FFF714
:103470008BFFB4E08046BAE7684B18680028C1D0DB
:10348000674B4FF47A791B68B5FBF3F54FF4616134
:10349000B5FBF0F300FB135509FB05F54FF03C0CB1
:1034A000B3FBF1F201FB1231B5FBF0FEB1FBFCF313
:1034B00000FB1E550CFB131109FB05F50091B5FB34
:1034C000F0F55849CDE901E52046FFF74BFF99E7B4
:1034D000079DB0E7BAF1010F06D1002F65D1059B1A
:1034E000002B7CD000250CE0002FF8D04E485DE08A
:1034F0004E484F493B4622460BF053F9059B002BA3
:1035000069D0DFF84081DFF84091059F3146102FE8
:10351000204628BF1027FFF737FF4FF0000A554518
:1035200046DC069B49461A782046FFF71BFF4FF002
:10353000010A1AF0070F03D141462046FFF712FF98
:1035400057453CD9069B494613F80A202046FFF709
:1035500009FF0AF1010ABAF1100FEAD135492046F4
:103560004FF0000AFFF7FEFE5246069B9A5C324B74
:10357000995C11F0970F08BF2E2230492046FFF7C3
:10358000F1FE0AF1010ABAF1100F1DD01AF0070F6F
:1035900003D141462046FFF7E5FE57455246E4D8A1
:1035A00041462046FFF7DEFEEBE720485D46A0E7F8
:1035B00041462046FFF7D6FE0AF1010AAFE720494F
:1035C0002046FFF7CFFEC4E7069B3B440693059BCE
:1035D000DB1B059399D1BBF1000F7FF443AF20466D
:1035E0000BB0BDE8F04F0BF084BC074A05492046FC
:1035F000FFF7B8FE39E700BF0F2D0100132D0100C2
:10360000F8250100143501000A2D01000C260100E7
:10361000382D01003E2D0100422D0100780A0020C6
:10362000740A00201C2D0100AFEE000093EE000094
:10363000E5EE0000512D0100FA3E0100532D01007E
:103640004D2D01004F2D0100472D01002DE9F041C6
:103650000F884B688E6886B005460C469046C7F3C7
:1036600082175BB1144A9B1A43F3CF01002920DB78
:103670002078C0F3C200FFF70DFE034621466088A4
:1036800051F8102B0197C2F34A22002A01EB0204E1
:10369000C0F30B1008BF00210022CDE90408CDE9DA
:1036A0000214009231462846FFF77CFE06B0BDE8C2
:1036B000F0810023E2E700BF18240100074A00213F
:1036C0000123904206D8064A01B901231360054B35
:1036D0001860704740085B000121F2E740420F008C
:1036E000740A0020780A0020014B01221A707047EA
:1036F00091140020014B002019607047900A0020AF
:10370000024B034801221A700BF0F3BB9214002005
:103710003C26010010B5064B18680C46FFF73EFD2D
:1037200021460346BDE8104002480F22184700BF5B
:10373000900A00203C260100F8B5194D07460E46B8
:10374000042432463946002008F0B6F8C8B10123F7
:103750002B70144B1B782BB93046F8BD5CB92C701C
:103760004FF0FF34002008F017F90028F4D02B7830
:10377000002BF3D1F0E7013C41F288300DF0A9FDB8
:10378000F0E72B7813B1013C04D12C702B78002B7F
:10379000D7D1E1E741F288300DF09BFDF6E700BF9D
:1037A000911400209214002070B5114B1C680D4636
:1037B000DCB1104B196800238B4202DB6FF0010073
:1037C00070BD224612F8106B864202D001331446B7
:1037D000F2E7E06810B96FF01200F1E70DF07EFD3E
:1037E0000028F8D02C600020EAE76FF00C00E7E733
:1037F000C80100204C26010001480AF01FBE00BF8E
:10380000A026010038B5044618B90F4B0F485B6875
:1038100098476168B1F5683F10D0B1F5680F0DD0D9
:103820000B4DA9420AD011F46861206807D0014607
:1038300008480DF009FE00232360656038BD14229E
:103840000DF0E7FFF9E700BF900600208F2D010083
:103850002C5F5CA9940F002008B520B34368B3F532
:10386000683F10D101220368BFF35B8F53E8001F4C
:10387000002903D143E800200028F7D1BFF35B8F74
:103880000DD1002008BD094A93420AD000684FF0CC
:10389000FF324FF0FF3308F0DFFA0028F1D0044880
:1038A000F0E70448EEE76FF4E040EBE72C5F5CA93B
:1038B000E98FFFFFEA8FFFFF08B5D8B14368B3F582
:1038C000683F10D100220368BFF35B8F53E8001FED
:1038D000012903D143E800200028F7D1BFF35B8F13
:1038E0000BD1002008BD074A934208D0006808F0B9
:1038F0002DFBF6E76FF4E040F4E70348F2E70348F6
:10390000F0E700BF2C5F5CA9E98FFFFFEA8FFFFFA4
:1039100010B5044618B91D4B1D485B68984763688D
:10392000B3F5683F2FD0B3F5680F2CD0194A9342F6
:1039300019D1236803BB18484FF0FF324FF0FF3313
:10394000214608F0CDF908B923681BB90F4B13487D
:103950005B6898472068142200210DF05AFF4FF44D
:103960006863636008E0B3F5683F0DD83A2B03D075
:1039700040F6BA629342DED120680DF0A7FD63687D
:1039800043F03A03636010BD054AF3E79006002058
:103990008F2D01002C5F5CA9940F0020B52D010034
:1039A0003A00003A08B506490648402314220DF0B3
:1039B0003DFDBDE80840044904480AF0B1BD00BF20
:1039C000940A0020940F0020A8260100BC260100C4
:1039D000014910220A60704710ED00E072B64040C5
:1039E00080F31188BFF36F8FBFF34F8F30BF62B684
:1039F000BFF36F8F704700BF72B6494081F31188E3
:103A0000BFF34F8F20BF80F3118862B6704700BFAD
:103A10002DE9F04780468CB00D46002967D08B68B1
:103A200005934B6804930B6803930024334B34498C
:103A30000293012223462046CDE900440BF0ADFA63
:103A40006B6905932B690493EB6803932D4B2C4909
:103A50000094CDE901430122234620460BF09DFA54
:103A6000EB690393284B26490094CDE901430122D9
:103A7000234620460BF091FADFF898A0DFF88090FB
:103A80002F462646FB6A0A93E31C0993BB6A0893F8
:103A9000A31C07937B6A0693631C05933B6A0096FD
:103AA000CDE903430023CDE9016A012249461846C6
:103AB00004340BF072FA102C07F11007E2D12B6ED0
:103AC0000393124B0E490096CDE90163002318467B
:103AD00001220BF062FAAB6903930D4B0849009683
:103AE000CDE901630023012218460BF056FA29465E
:103AF00040460CB0BDE8F04707F068BFE22D01007A
:103B000098240100112E0100402E0100922E010088
:103B1000A12E01004F2E010040B2002807DB044A0D
:103B20004109012300F01F00834042F82130704713
:103B300000E100E040B200280CDB4309064900F038
:103B40001F0020330122824041F82320BFF34F8F12
:103B5000BFF36F8F704700BF00E100E0054B4209E3
:103B600000F01F0053F82220012303FA00F0104058
:103B7000704700BF00E100E040B20028A8BF00F19C
:103B8000604001F10101B8BF064B4FEA4111ACBFE3
:103B900000F5614000F00F00C9B2B4BF195480F8BD
:103BA0000013704714ED00E030BFFFF7FDBF00BF0A
:103BB000144A08B5144B22F07F029A60BFF34F8F6E
:103BC000BFF36F8FD3F8882022F47002C3F88820E7
:103BD000D3F8882042F4A002C3F888204FF0404276
:103BE000C3F83422BFF34F8FBFF36F8F0023E1EE92
:103BF000103A07F08DFF08F095FD00F04FFC07F03C
:103C0000D9FF00BF0000000000ED00E0094A0A49AA
:103C1000936809689967094958674B6843F080536E
:103C20004B60002383F31188BFF36F8F9368986F05
:103C3000704700BF74120020DC29010000ED00E095
:103C400021498A6882F8BDE04FF030001044EFF35C
:103C5000098C80E8F01F1EF0100F03D102F17C00E8
:103C600080EC108A202080F31288BFF36F8F174FEB
:103C70004FF000668A698A603E6092F9BDE0506F3D
:103C80000023536780F311881EF0100F03D0002328
:103C9000E1EE103A03E002F17C0090EC108AEFF3C1
:103CA000148323F0040383F31488BFF36F8F04B5E8
:103CB000104600F0A1FCBDE8044002F1300090E89D
:103CC000F01F8CF3098870477412002004ED00E0A7
:103CD0001EF0040F0CBFEFF30880EFF30980816939
:103CE00011F8021C0229FFD001B50BF066F901BDE5
:103CF000017B890705D5416E40314166816E4039AF
:103D0000816642F8203C009B42F81C3C0F49019B15
:103D100042F8183C029B42F8143C21F001014FF09C
:103D2000807342F8043C42F8081C00234367037B7D
:103D300013F0020FA2F120024FF6085308BF4FF410
:103D40007D430265C0F8BC30704700BF23E8000027
:103D5000037B13F0020F194B03D190F8BD20D2065C
:103D600017D45A6B42F080425A63D0F8BC3019071E
:103D700009D443F00803C0F8BC30436E40334366B7
:103D8000836E403B8366037B43F002030373802012
:103D900070475A6B22F080425A63D0F8BC301A0741
:103DA00001D44020704723F00803C0F8BC30436EB4
:103DB000403B4366836E40338366F2E700EF00E0EA
:103DC0000C4A03469068A0B1D0F8BC20406E12F0B7
:103DD000080F0CBF4022802213F1160F04D0821A64
:103DE0009A4205D8834203D2814228BF00207047FF
:103DF0000020704774120020114B9B6883421BD136
:103E0000EFF30580C0B94FF02002EFF3118182F388
:103E10001288BFF36F8F1A7B22F002021A73EFF33E
:103E2000148323F0040383F31488BFF36F8F81F3AB
:103E30001188BFF36F8F70476FF01500704700BF98
:103E40007412002008B514460D460022E1EE102A37
:103E5000EFF3148222F0040282F31488BFF36F8F11
:103E6000BFF36F8F084A906000F0C6FB204685F3D1
:103E70000988002163B681F31188BFF36F8F002298
:103E800000230AF0CEFC00BF7412002001B5EFF34E
:103E90000580A0F110004FEAC0000449014409C99F
:103EA0009847BDE8014002490847000098220100F8
:103EB000B53E0000044B99689869884203D00349D5
:103EC0004FF080520A6070477412002004ED00E049
:103ED000F0B585B00024434B0293CDE9004423465E
:103EE00007460E460122404920460BF075F83F4B2D
:103EF0009B6ADB0465D53E4B3B490094CDE9014309
:103F00002046234601220BF067F81720374B9B6AA7
:103F10001D050AD5374B029300231846CDE900331F
:103F2000314901220BF058F81820304DAB6A9C053E
:103F30001FD50024304B0293012223462046CDE9B1
:103F4000004429490BF048F8AB6BAA6A10040FD55E
:103F500003932A4B24490094CDE9014301222346CF
:103F600020460BF039F81FB1AB6A23F40043AB6273
:103F700019201E4B9B6A59050AD5214B0293002339
:103F80001846CDE90033184901220BF025F81A2014
:103F9000164A936A13F4807315D01A4B02930023C8
:103FA0001846CDE90033104901220BF015F81B200B
:103FB0000E4A936A43F47F4393620023337005B043
:103FC000F0BD1620A2E7926A9204F1D50E4A064986
:103FD0000093CDE90132184601220AF0FDFF1C20B2
:103FE000E6E700BFCF2E01009824010000ED00E0BD
:103FF000E52E0100F62E0100092F0100222F0100FD
:10400000372F0100522F01006A2F01001FB5002435
:10401000374B029301222346CDE90044354920461F
:104020000AF0DAFF344B9B6A9A015ED5334B314973
:104030000094CDE901432046234601220AF0CCFF3B
:104040001E202D4B9B6ADB010AD52D4B02930023CA
:104050001846CDE90033274901220AF0BDFF1F2091
:10406000254B9B6A1C030AD5264B02930023184656
:10407000CDE900331F4901220AF0AEFF21201E4B7B
:104080009B6A59030AD5204B029300231846CDE9B9
:104090000033184901220AF09FFF2220164B9B6A29
:1040A0009A030AD5194B029300231846CDE9003331
:1040B000104901220AF090FF23200F4B9B6ADB037B
:1040C0000AD5134B029300231846CDE90033094962
:1040D00001220AF081FF2420074A936A6FEA034312
:1040E0006FEA1343936204B010BD1D20A9E700BF1F
:1040F000992F01009824010000ED00E0B12F01008C
:10410000C42F0100DE2F0100FC2F0100213001002F
:104110003B3001002DE9F04385B000244D4B029364
:10412000CDE9004423468046894616464A49012285
:1041300020460AF051FF494B9B6ADF0640D5484BA9
:104140000094CDE9014320462346434901220AF069
:1041500043FF1124414B9B6A1D070AD5414B029333
:104160000023CDE900333C49012218460AF034FF10
:1041700012243A4DAB6A980724D500243A4B3649AD
:104180000293CDE900442346012220460AF024FF91
:104190006F6BAB6A190659D5344B2F490397CDE99C
:1041A000014300942346012220460AF015FFB9F18D
:1041B000000F03D0AB6A23F08003AB62132403E04B
:1041C0001024C7E76FF01507244B9B6ADA070AD55E
:1041D000274B02930023CDE900331F4901221846E3
:1041E0000AF0FAFE14241D4B9B6A9B060AD5214B4C
:1041F00002930023CDE900331749012218460AF043
:10420000EBFE1524154B9A6AD50602D49A6A9007DC
:104210000AD55B68190507D541463846FFF7D0FD3A
:1042200010B180F3098802240C4B9A6A920642BFAF
:104230005A6A22F400525A629A6A42F0FF029A6263
:1042400020460023337005B0BDE8F0836FF01507FA
:10425000B4E700BF663001009824010000ED00E0E3
:104260007C300100F62E0100AF300100C7300100A4
:10427000DD3001006A2F01002DE9F041724B5F68CB
:10428000A2B00546C7F30804002383F31188BFF3E7
:104290006F8F02F07F40B0F17F4F0CD102F00C0025
:1042A000082819D1694A6A490093CDE901321846B4
:1042B00001220AF091FE002635464FF00008E31E69
:1042C0008DF81F80092B00F2A580DFE803F00B9921
:1042D0009D95A3A3A3A3A3A1120746BF0D461E4607
:1042E0000126EAE75B4B5A49574FCDF80080CDE9EC
:1042F00001830023012218460AF06EFE8DF81F800C
:10430000FC6A14F0020405D0534BCDF80080CDE9CF
:10431000018306E0FB6A002B0BDA504B0094CDE9D9
:10432000014300234A49012218460AF055FE0024A1
:104330003AE0FB6A5B00FAD5494B45490094CDE968
:1043400001430122234620460AF046FE7B69AA6902
:1043500043F480737B61BFF34F8FBFF36F8F7B6933
:1043600032F8022C23F480737B61BFF34F8FBFF3CD
:104370006F8F4DF602739A4209D0BB6ADBB26BB302
:104380000DF11F0201212846FFF7C4FE36E02B681D
:104390000393344B0094CDE90143204623462C4936
:1043A00001220AF019FE2C689DF81F309BB9682283
:1043B000294608A80DF01FFA0F9B002E3ED0C3F32C
:1043C000080222B96FEA53236FEA43230F9308A927
:1043D0002046FFF71DFB22B0BDE8F081BB6A13F455
:1043E0007F4F05D00DF11F010120FFF771FD05E0A2
:1043F000BB6AB3F5803F9AD3FFF708FE0446D3E7C4
:104400000DF11F020021BEE70DF11F010020ECE7B6
:10441000154B7AE7154A164B0D4917F4F87F18BF6C
:104420001346103CCDE90334124B02930023CDE92F
:104430000033012218460AF0CFFD78E723F4FF731A
:1044400023F00103C2E700BF00ED00E02A310100C4
:1044500098240100553101006C3101008D310100BB
:104460009B310100BA310100D63101001131010048
:10447000FC300100FA310100024A536943F0100395
:104480005361704700ED00E0EFF30880EFF309811E
:1044900001B57246FFF7F0FE01BD00BF04480023DE
:1044A0002021C2180133302B82F80013F9D1704754
:1044B00000E100E0002080F31488BFF36F8FFEF767
:1044C00003FE00200D490860BFF34F8F0C4880F3B6
:1044D000088800F03DF8202080F3118809484FF447
:1044E0008861401880F30988EFF3148002210843A3
:1044F00080F31488BFF36F8FFFF75AFB94ED00E051
:10450000002F002000190020BFF34F8F0549064BF4
:10451000CA6802F4E0621343CB60BFF34F8F00BF61
:10452000FDE700BF00ED00E00400FA050749D1F8FF
:1045300090200023C2F307221846934200DB704705
:10454000C1F89830C1F8A0000133F6E700ED00E0B3
:1045500008B572B6002383F31388FFF7E7FF144B07
:104560004FF0FF32C3F88020C3F88420C3F88820BE
:10457000C3F88C20C3F89020C3F89420C3F8982087
:10458000C3F89C20C3F88021C3F88421C3F8882194
:10459000C3F88C21C3F89021C3F89421C3F8982163
:1045A000C3F89C2162B6BFF34F8FBFF36F8F08BD76
:1045B00000E100E0084B9B6883420BD1EFF30583D9
:1045C00043B1064B5A6842F080525A605A6A22F44C
:1045D00000425A6208F042B87412002000ED00E078
:1045E000024B034A0348012100F08CB8000004206C
:1045F00000000020CC26010010B50446FFF7A8FB00
:10460000626E03460548D21AC0E90023044B83605A
:10461000BDE81040012100F07FB800BFB00F0020BE
:1046200000000B15F0B5284E85B000258D4215DA37
:104630004468002C45D0D3B104F1FF3C14EA0C0FC0
:104640000FD0224B0395029300230122CDE90033C2
:104650001F4918460AF0D0FC6FF01502104605B04D
:10466000F0BD1F2CEDD907681CEA070FE9D1202CFB
:104670000768D0F808C05FFA82FE10D9B4F1004F85
:104680000FD8013CB4FA84F4C4F11F046400BEF1F5
:10469000070F4CEA040C06D90E4B0392D3E708240B
:1046A000F5E73E24F3E727F01F04144344F0100419
:1046B000C6F89820C6F89C404CF00104C6F8A0400B
:1046C000013201350C30B1E700ED00E0113201009C
:1046D0009024010034320100044B0522C3F89420D9
:1046E000BFF34F8FBFF36F8F704700BF00ED00E047
:1046F000BFF35F8F024B0022C3F89420704700BFC6
:1047000000ED00E010B5034C01232278FFF78AFF8B
:10471000207010BD9414002008B5094A00231278B7
:10472000FFF780FF10F1160F03D0064B0022072879
:1047300000DD08BDC3F89800C3F8A0200130F6E7FB
:104740009414002000ED00E014490868082810B512
:1047500021D8FFF7CDFF124C49680022904201F1A9
:104760000C0105D10F4B1870FFF7B6FF002010BDEC
:10477000C4F8982051F80C3C23F01F03134343F076
:104780001003C4F89C3051F8043C43F00103C4F812
:10479000A0300132E2E74FF0FF30E8E7D826010011
:1047A00000ED00E094140020014B1860704700BF3A
:1047B000F0010020F8B5084F06460D460024AC4233
:1047C00008DA3B6898470A28305504F1010401D003
:1047D0000D28F4D12046F8BDEC010020F8B50A4FB1
:1047E0000D46461EC0F10104A3199D4201DC284676
:1047F000F8BD73780A2B02D13B680D2098473B68BF
:1048000016F8010F9847EFE7F001002010B5074CAC
:104810002368C2180648C0F1005101F580218A4280
:104820003ABF2260C0184FF0FF3010BDBC0F00200F
:104830002073002008B5044809F0E6FF404080F3EB
:1048400011884FF0040002DF5A3201000E4A0123A2
:10485000C2F840354FF080424FF08051C2F87835B1
:10486000D1F83001082808D1D1F83411052904D82D
:104870000648415C09B1C2F838364FF08043012246
:10488000C3F880250020704700E00140723201002B
:1048900020B1034B800143F001031847704700BF6C
:1048A000F0240100084B5968024611B1196888428A
:1048B00007D0D86830B1996804488A4218BF0020F0
:1048C00070471846704700BFC00F0020C80F002077
:1048D00008B504480CF0FAFD034BC3E9003300208F
:1048E00008BD00BFD00F0020E40F002002460B4699
:1048F000014807F0B1BA00BFD00F0020014807F00F
:1049000025BB00BFD00F00202DE9F74F8246084697
:104910000F469046FCF75FFA4FF0FF3183464FF0A9
:10492000FF30FFF7E3FF1B4B1C684FF000099C4270
:1049300008BF00245B684E465CB9FFF7DFFF36B363
:10494000CAF80060B8F1000F1DD1002003B0BDE827
:10495000F08FA569A94512D8AB4510D3012D03D915
:104960007A5D2F2A00D052B9E16801932A46384671
:104970000DF085F8019B002804BFA94626469C42FD
:10498000DBD02468D8E7B369C8F80030DDE76FF002
:104990000100DBE7E40F00202DE9F041054686B079
:1049A00017460E4639B10846FCF715FA012802D918
:1049B00033782F2B0FD02A4B02930023CDE90033FD
:1049C0002849012218460AF057FB6FF015042046CB
:1049D00006B0BDE8F081D5F80480B8F1000F36D1FB
:1049E0004246314605A8FFF78FFF041E0BDA1E4B27
:1049F0001C49CDF80080CDE90183012243464046A1
:104A00000AF03AFBE3E7059B93F82020920702D5D2
:104A100017F0120F1ED1DA691268F2B16B60DB6910
:104A20003A461B68314628469847041E0DDA002690
:104A30000E4B0293CDE900660A49039433460122E6
:104A400030460AF019FB6E60C1E72F72BFE76FF0C6
:104A50000F04BCE76FF01D04B9E76FF08504B6E7FB
:104A60007C3201006824010090320100A83201006C
:104A700030B5446885B005468CB1E369DB699BB10C
:104A80009847041E4FF000030CDA094A09490394C1
:104A9000CDE901320093012218460AF0EDFA2046D2
:104AA00005B030BD6B60FAE76FF08504F7E700BF33
:104AB000BD320100682401001FB543689BB1DB696A
:104AC0005B689BB19847041E0ADA0A4B02930023E5
:104AD000CDE9003308490394012218460AF0CCFAC4
:104AE000204604B010BD6FF00804F9E76FF08504AC
:104AF000F6E700BFD3320100682401001FB5436808
:104B00009BB1DB699B689BB19847041E0ADA0A4B8C
:104B100002930023CDE9003308490394012218468B
:104B20000AF0AAFA204604B010BD6FF00804F9E7B5
:104B30006FF08504F6E700BFE83201006824010049
:104B4000F0B5064687B00F4611B10B782F2B0ED06B
:104B50002E4B02930023CDE900332D490122184644
:104B60000AF08AFA6FF01504204607B0F0BD4368DA
:104B7000002B45D10568002D42D126493846FCF767
:104B800020F9044680B94FF0FF304FF0FF31FFF7B6
:104B9000ADFE214A74601368934214BF1D4625463A
:104BA0003560FFF7ABFEDFE72A46394605A8FFF779
:104BB000ABFE041E0ADA194B15490095CDE90153E5
:104BC00001222B4628460AF057FACDE7059BDA6901
:104BD000126AC2B17360DB6939461B6A3046984776
:104BE000041EC1DA0E4B0A49C6E900550122CDE97F
:104BF0000153039400952B4628460AF03DFAB3E78B
:104C00006FF00F04B0E76FF08504ADE7FE320100EE
:104C100068240100402D0100E40F002090320100C3
:104C2000173301002DE9F043476885B006460D466D
:104C3000002F31D0FB695B6A002B66D0DFF8D8907B
:104C4000DFF8D8804F1C7368DB6929465B6A304601
:104C50009847041E14DB6B7873B12B78012B0BD1B2
:104C600049463846FCF7ADF80028ECD041463846B6
:104C7000FCF7A7F80028E6D0204605B0BDE8F08391
:104C8000234B02930023CDE90033224903940122F0
:104C900018460AF0F1F9EFE7036813B94B700024E6
:104CA000EAE7DFF87C804FF0FF304FF0FF31FFF78D
:104CB0001DFED8F80040D8F80430444508BF002451
:104CC00024B9FFF71BFE6FF00104D5E73268A2425A
:104CD00017D12846012300F8013BE1684FF48072A8
:104CE00019440CF0DEFE002385F80131C5F80431CB
:104CF000D8F804309C4218BF2768FFF7FFFD3760E3
:104D0000CDE79C42DDD02468DAE76FF08504B3E795
:104D10003133010068240100FF2B0100FE2B01004C
:104D2000E40F002030B5446885B005461CB9046026
:104D3000204605B030BDE3699B6A93B19847041ED5
:104D40004FF000030ADA084A08490394CDE901321A
:104D50000093012218460AF08FF9E9E7C5E900330C
:104D6000E6E76FF08504E3E74B33010068240100B8
:104D700070B5064686B030B1FCF72DF8012802D98F
:104D800033782F2B0ED0204B02930023CDE9003334
:104D90001E49012218460AF06FF96FF015042046EB
:104DA00006B070BD0022314605A8FFF7ADFD041E18
:104DB0000ADA174B02930023CDE90033134901228D
:104DC00018460AF059F9EAE7059890F8205015F0CE
:104DD000020512D1C369DB6B93B131469847041EBB
:104DE000DDDA0C4B09490394CDE9015300952B46BC
:104DF000012228460AF040F9D1E76FF01D04CEE702
:104E00006FF08504CBE700BFFE320100682401008B
:104E100090320100663301002DE9FF41044608B1DC
:104E2000C66866B9574B02930023CDE90033564953
:104E3000012218460AF020F96FF015050DE005680B
:104E40007DB1524B02930023CDE900334E4901223C
:104E500018460AF011F96FF00F05284604B0BDE8B6
:104E6000F0813046FBF7B7FF0128074602D93378B7
:104E70002F2B01D0464BD6E7464E4FF0FF304FF078
:104E8000FF31FFF733FD3368D6F80480B34218BF13
:104E90001D46B5B9A5682846FFF704FD20B1D0F836
:104EA0000480B8F1000F34D13B4B02930023CDE9CD
:104EB00000333549012218460AF0DEF86FF001058B
:104EC00012E0AB69BB4220D122692B699A420ED114
:104ED0002E4B02930023CDE900332B4901221846C3
:104EE0000AF0CAF86FF00F05FFF708FDB5E7E968AB
:104EF000E0683A460CF0C3FD034630B9274A224920
:104F00000090CDE901020122EAE74545C2D02D68B3
:104F1000BFE7D8F82C3063B9214A0395CDE90132B7
:104F200019490093012218460AF0A6F86FF085058A
:104F3000DAE7D8F8303053B9E2680392194A1249D7
:104F40000093CDE90132184602220AF095F8D8F80C
:104F50002C3020469847051E0BDA134B0293002392
:104F6000CDE9003308490395012218460AF084F878
:104F7000BAE77368C4E90678C4E900631C6074602A
:104F8000B2E700BF8633010068240100A4330100AA
:104F9000C2330100E40F0020F5330100D8330100D3
:104FA00021340100463401006734010038B504465D
:104FB0000D464FF0FF304FF0FF31FFF797FC2046D2
:104FC000FFF770FC08B143687BB90B4B5A6812B10C
:104FD000DA686AB9012243F8324003EBC2030024C5
:104FE0005D60FFF78BFC204638BD6FF07704F8E773
:104FF0006FF01B04F5E700BFC00F002038B131B1DE
:105000008B691844024B0278002A08BF1846704783
:10501000402D010001490120FFF7C8BFF82601001B
:1050200010B503685A6D04461AB1196E04480CF0A5
:10503000CAF9216803480CF007FA0023236010BD69
:105040005407002008070020002807DA54305228AF
:1050500002D8034B185670476FF00400704700BF2A
:1050600046360100002805DA5A30582804D8044B87
:1050700018567047002070476FF00400704700BF5B
:10508000ED3501002DE9F04F00238BB00D4616469B
:1050900005210222CDE90523CDE903215E4A0093D3
:1050A0000446CDE9013218465C4903220AF046F86D
:1050B000D4F8EC30002B40F0A88032070ED5584AC7
:1050C00056490396CDE901321846009301220AF0B1
:1050D00035F86FF085000BB0BDE8F08F04F1EC01FE
:1050E000E8B2FEF761FB002802DBD4F8EC0068B9F7
:1050F0004C4B02930023CDE900334849039501222C
:1051000018460AF01BF86FF01200E4E709F03FFFC1
:10511000034600286AD0D4F814A0D4F81890E569A2
:10512000D4F8EC00BAF1000F08BF4FF0100AB9F143
:10513000000F08BF4FF0100955B9CDE9080509F077
:1051400026FF394908AA0AF0C2FB099D002D5FD04D
:10515000666A002E56D001DC4FF0FF36D4F8288066
:10516000E76AD4F8EC00B8F1000F08BF4FF0400830
:10517000002F08BF20278368B3FBF5FB09F007FF6A
:10518000CDE90656CDF814B0D4F8EC3023495B686D
:105190000493036803930020244B0293CDE900009D
:1051A0000346032209F0CAFF0020214B0293CDE9F8
:1051B00000000346CDE90587CDE903A9174903227D
:1051C00009F0BCFFD4F8EC3023601A4B63601A4B33
:1051D000A3601A4BE3601A4B2361C4E905A9C4E933
:1051E0000A87C4E9075B6662002074E7D4F8EC2004
:1051F0000A49D26812680392124A0090CDE901026E
:1052000001227EE74FF40076A8E76FF00F0062E717
:105210006FF015005FE700BF7B34010070240100D0
:10522000A6340100E33401009BF0000017350100B3
:105230004A350100F7F00000DBF00000C7F0000085
:1052400097F00000FC3401002DE9F7434368044661
:105250001E6988461546014600222448002306F0B0
:105260003FFD014600283ED12768642238460CF0F5
:10527000D0FAD6F8DC101E48896A002200230CF010
:1052800098F8386660B3B94649F8540F40466168EB
:10529000FFF7B4FE8046304609F05FFF2901AB01FD
:1052A00003F4006301F48071194305F003030B4319
:1052B00042463946CDF8009006F174000BF02BFF02
:1052C000054606F1F00009F04FFF002D02DA2046F6
:1052D000FFF7A6FE284603B0BDE8F043FFF7B4BED3
:1052E0006FF00B05F3E703B0BDE8F083080700207B
:1052F0005407002070B5436804461E690D4600221D
:1053000001460023144806F0EBFC014608BB34229A
:1053100020680CF07EFA61682846FFF76FFE0546AC
:10532000304609F01AFF2A46216806F1740006F09B
:10533000E5F9054606F1F00009F016FF002D03DA45
:10534000216805480CF080F82846BDE87040FFF75A
:105350007BBE6FF00B0070BD2407002070B5436862
:105360001E690446304609F0F8FE216806F1740013
:105370000BF049FF054606F1F00009F0F5FE216843
:1053800003480CF061F82846BDE87040FFF75CBEAA
:10539000240700207FB506690546304609F0DDFE8A
:1053A00006F174000BF0A0FE95F820301B0703D423
:1053B000D6F8EC0009F0AAFD002406F1F000C6F8CA
:1053C000EC4009F0D1FEEB680393064B06490094CC
:1053D000CDE9014320462346032209F0AFFE2046D3
:1053E00004B070BD6F350100702401002DE9F04359
:1053F000066985B0074606F1F00840460CF066F8ED
:10540000304609F0AAFE97F8202079693046FFF768
:1054100039FE041E43DB06F174093146484605F0A7
:1054200035FE002824DA97F8205015F001031FD12B
:1054300015F0020528D1274B27490390CDE90153E8
:1054400002222B462846009509F078FE3146484650
:1054500005F0B8FD041E26DA204B0394CDE9015374
:1054600028461D4900952B46012209F067FE20467B
:10547000FFF7EAFD0028044611DB404609F074FE00
:10548000204605B0BDE8F083154A13490093CDE9E5
:1054900001321846012209F051FE6FF01D0400236D
:1054A000C6F8EC30E9E73146484605F0EFFD041E4A
:1054B00002DA0C4B0394D1E7FB6803930A4B0649CD
:1054C0000095CDE9015303222B46284609F036FE0C
:1054D000D3E700BF7C35010070240100CB3501000B
:1054E0009D350100BD350100E23501002DE9FF4188
:1054F0001C4B002914BF0D461D460026044690464D
:10550000C5F8EC6005F1F00738460BF0DFFF2846E0
:1055100009F023FE214642462846FFF7B3FD041E4C
:1055200015DB294605F1740005F04CFD041E0EDA6A
:105530000D4B0394CDE90163304633460B49009689
:10554000012209F0FBFD2046FFF77EFD0446002303
:105550003846C5F8EC3009F007FE204604B0BDE837
:10556000F08100BFF4010020CB3501007024010060
:10557000054B0122C3F8002590F8761009B1DA60D6
:1055800070471A605A607047007000407FB50D790F
:1055900005F01F04072C25D80A780B2A18D8DFE855
:1055A00002F007070707170617171113171504222C
:1055B0004B78032B1AD0042B4FF0000317D0304A3E
:1055C000029208E00522F3E70622F1E70722EFE75F
:1055D0002C4B02930023CDE900332B4901221846BE
:1055E00009F036FF6FF0150004B070BD0123488844
:1055F00044F20A06B0423DD00AD844F20306B04253
:1056000014D044F20506B04232D098B31F4BE0E705
:1056100044F21406B0422FD044F22806B0422DD0F6
:1056200044F20F06B042F1D1032000E00020C5F3A0
:105630004015120242EA055242EA0332230103F105
:10564000804303F5E04342EA0042C3F818252301F2
:1056500003F1804303F5E0438A79C3F81425002061
:10566000C3F810050A4B4A79234483F89020BBE71E
:105670000120DCE70220DAE70420D8E70520D6E79E
:10568000C1360100A236010040240100E5360100C8
:1056900000000020F0B50D4687B04FF0FF33714891
:1056A0004FF0FF3206F0B2FC6E68731EFE2B4FF017
:1056B000000309D96C4A0292CDE900336B490122FB
:1056C000184609F0C5FE14E0694C6A4F1A461846A0
:1056D00026FA02F313F0010339D0BB5C8BB90392B5
:1056E000654A0292CDE9003360490122184609F06B
:1056F000AFFE6FF015045B4806F064FC204607B06F
:10570000F0BD04EB021E95F811C0DEF81815BCF1CF
:10571000000C18BF4FF0010C21F0807141EA0C61C0
:10572000CEF8181502F15101090101306350C0B2E1
:105730000132082ACCD12A7CA2F1080100230629D3
:1057400018D8DFE801F01E1720170917150002F11D
:10575000510109016350EBE70223454A0128C2F8D1
:10576000F0356B7C11D993B1444B02930023A3E72E
:105770000323F2E70392424A0093CDE9013200236A
:10578000B2E70023E9E70123E7E7082B16D8C2F8C0
:10579000F4352A684300B2B9EA689A4217D2CDE9D3
:1057A0000323384B02930023CDE900332F49012214
:1057B000184609F04DFE6FF00B049CE70393324B43
:1057C000029300238EE7928902FB0333E4E7284B20
:1057D000AA68C3F82C262F46C3F830060FCF2B4CEF
:1057E00004F164060FC63B683360002626662B680A
:1057F000274693B30FCB04F1780585E80F00656663
:10580000A4F8886048B3BFF35B8F57E8003F47E8D0
:105810000062002AF9D1BFF35B8F1D49A56F1D4AB5
:105820004FF400400F463146E5FB00710023384637
:10583000FBF784F80022CDE90001002304F1080001
:1058400007F03CF914484FF0FF324FF0FF3306F0F9
:10585000DDFB00B12066246E4DE70C48FFF788FEA3
:10586000F0E700BF40000020103701004024010095
:1058700000700040900000202E3701006D370100BD
:1058800048370100C23701009F37010000000020A7
:105890003F420F0040420F005000002010B50E4B59
:1058A0000024C3F80441D3F80421C3F81041D3F80D
:1058B00010211222C3F804230720FEF72DF92246F7
:1058C00001210720FEF758F90448836C13B94030D2
:1058D00006F078FB002010BD0070004000000020A2
:1058E00038B52E4BD3F80421002A49D00022C3F842
:1058F0000421D3F804112A4C01219960C3F8002532
:10590000636E2546BBB3E36FB4F8882033B104F16E
:1059100064019847012814D0022827D0B4F88830B1
:10592000B4F884209A4221D90133A4F888301B4B63
:10593000D3F82C26D3F8341689B202EB4102C3F80F
:105940002C26A36F23B9BDE838401548FFF710BED9
:10595000BFF35B8F55E8003F5A1E45E80021002940
:10596000F8D1BFF35B8F012BEDDC38BDA36F13B112
:105970000C480BF012FF0C48BDE8384006F022BB83
:10598000D3F810110029F0D0C3F81021D3F810215A
:1059900001229A601A605A60E7E700BF0070004079
:1059A000000000200800002050000020084B70B5C7
:1059B000C31A0D4607499B10044659430648402226
:1059C00009F08BFD2B4601462046BDE87040184784
:1059D000A0100020B76DDBB6D021010073B50C4CD0
:1059E0000C4A4023041B00930D460B460A49A410A1
:1059F00061430646094809F09CFD011E05DA304660
:105A00002B4602B0BDE87040184702B070BD00BF21
:105A1000A01000209DF50000B76DDBB6D02101007D
:105A2000002270B5012104461046FEF7A5F80F4884
:105A300002F0BCFA0E4B984215D10AF09FF9266984
:105A40000C49304609F013F900280BDB01253564B9
:105A50002469084904F11C0009F009F9002801DB58
:105A6000E564002070BD6FF00400FBE7AD5A000054
:105A70000000AD0B5027010070B501460C2309480A
:105A80004B43C418D4E90E56403300221844A26395
:105A900009F010FD2DB132462B460348BDE8704099
:105AA000184770BDA0100020D021010010B10128BE
:105AB00004D07047034B1B6C5B0701D1FFF7DCBFC1
:105AC000704700BFA010002008B54FF02003EFF38F
:105AD000118183F31288BFF36F8F124A136843F06A
