:100000000030002011410000B9FD0000FD4000005B
:10001000FD400000FD400000FD4000000000000029
:100020000000000000000000000000003943000054
:10003000FD40000000000000CD420000FD40000037
:100040000D4600000D4600000D4600000D46000064
:100050000D4600000D4600000D4600000D46000054
:100060000D4600000D4600000D4600000D46000044
:100070000D4600000D4600000D4600000D46000034
:100080000D4600000D4600000D4600000D46000024
:100090000D4600000D4600000D4600000D46000014
:1000A0000D4600000D4600000D4600000D46000004
:1000B0000D4600000D4600000D4600000D460000F4
:1000C0000D4600000D4600000D4600000D460000E4
:1000D0000D4600000D4600000D4600000D460000D4
:1000E0000D4600000D4600000D4600000D460000C4
:1000F0000D4600000D4600000D4600000D460000B4
:1001000001F0FF01102A2BDB10F0070F08D010F8C8
:10011000013B013A8B422DD010F0070F42B3F6D1CC
:10012000F0B441EA012141EA014122F007047FF0E5
:1001300000070023F0E80256083C85EA010586EA3C
:10014000010685FA47F5A3FA87F586FA47F6A5FA78
:1001500087F68EB9EED1F0BC01F0FF0102F0070284
:1001600032B110F8013B013A83EA010313B1F8D12F
:100170000020704701387047002D06BF3546033810
:10018000073815F0010F07D1013015F4807F02BF49
:10019000013015F4C03F0130F0BC0138704700BF9A
:1001A00081F0004102E000BF83F0004330B54FEA28
:1001B00041044FEA430594EA050F08BF90EA020F95
:1001C0001FBF54EA000C55EA020C7FEA645C7FEA28
:1001D000655C00F0E2804FEA5454D4EB5555B8BF4B
:1001E0006D420CDD2C4480EA020281EA030382EABC
:1001F000000083EA010180EA020281EA0303362D4E
:1002000088BF30BD11F0004F4FEA01314FF4801C20
:100210004CEA113102D0404261EB410113F0004F32
:100220004FEA03334CEA133302D0524263EB4303E9
:1002300094EA050F00F0A780A4F10104D5F1200E87
:100240000DDB02FA0EFC22FA05F2801841F10001E2
:1002500003FA0EF2801843FA05F359410EE0A5F1B6
:1002600020050EF1200E012A03FA0EFC28BF4CF0E7
:10027000020C43FA05F3C01851EBE37101F000459D
:1002800007D54FF0000EDCF1000C7EEB00006EEBAA
:100290000101B1F5801F1BD3B1F5001F0CD3490834
:1002A0005FEA30004FEA3C0C04F101044FEA44528B
:1002B00012F5800F80F09A80BCF1004F08BF5FEA12
:1002C000500C50F1000041EB045141EA050130BDF2
:1002D0005FEA4C0C404141EB0101013C28BFB1F504
:1002E000801FE9D291F0000F04BF01460020B1FA4F
:1002F00081F308BF2033A3F10B03B3F120020CDA22
:100300000C3208DD02F1140CC2F10C0201FA0CF0FF
:1003100021FA02F10CE002F11402D8BFC2F1200C64
:1003200001FA02F120FA0CFCDCBF41EA0C0190401A
:10033000E41AA2BF01EB0451294330BD6FEA040463
:100340001F3C1CDA0C340EDC04F11404C4F120024E
:1003500020FA04F001FA02F340EA030021FA04F360
:1003600045EA030130BDC4F10C04C4F1200220FAB7
:1003700002F001FA04F340EA0300294630BD21FAF5
:1003800004F0294630BD94F0000F83F4801306BFBB
:1003900081F480110134013D4EE77FEA645C18BFAF
:1003A0007FEA655C29D094EA050F08BF90EA020F46
:1003B00005D054EA000C04BF1946104630BD91EA3E
:1003C000030F1EBF0021002030BD5FEA545C05D141
:1003D0004000494128BF41F0004130BD14F5800480
:1003E0003CBF01F5801130BD01F0004545F0FE41F4
:1003F00041F470014FF0000030BD7FEA645C1ABF29
:10040000194610467FEA655C1CBF0B46024650EA5F
:10041000013406BF52EA033591EA030F41F400218B
:1004200030BD00BF90F0000F04BF0021704730B511
:100430004FF4806404F132044FF000054FF00001E6
:1004400050E700BF90F0000F04BF0021704730B5A7
:100450004FF4806404F1320410F0004548BF40427C
:100460004FF000013EE700BF42004FEAE2014FEAD1
:1004700031014FEA02701FBF12F07F4393F07F4FAC
:1004800081F06051704732F07F4208BF704793F0AF
:100490007F4F04BF41F40021704730B54FF46074C2
:1004A00001F0004521F000411CE700BF50EA0102C5
:1004B00008BF704730B54FF000050AE050EA01026E
:1004C00008BF704730B511F0004502D5404261EBDE
:1004D00041014FF4806404F132045FEA915C3FF41F
:1004E000D8AE4FF003025FEADC0C18BF03325FEABC
:1004F000DC0C18BF033202EBDC02C2F1200300FA6D
:1005000003FC20FA02F001FA03FE40EA0E0021FA91
:1005100002F11444BDE600BF70B54FF0FF0C4CF47F
:10052000E06C1CEA11541DBF1CEA135594EA0C0F31
:1005300095EA0C0F00F0DEF82C4481EA030621EA6C
:100540004C5123EA4C5350EA013518BF52EA0335A7
:1005500041F4801143F4801338D0A0FB02CE4FF059
:100560000005E1FB02E506F00042E0FB03E54FF089
:100570000006E1FB03569CF0000F18BF4EF0010E81
:10058000A4F1FF04B6F5007F64F5407404D25FEA7D
:100590004E0E6D4146EB060642EAC62141EA555130
:1005A0004FEAC52040EA5E504FEACE2EB4F1FD0C72
:1005B00088BFBCF5E06F1ED8BEF1004F08BF5FEAF0
:1005C000500E50F1000041EB045170BD06F00046A2
:1005D00046EA010140EA020081EA0301B4EB5C044F
:1005E000C2BFD4EB0C0541EA045170BD41F4801147
:1005F0004FF0000E013C00F3AB8014F1360FDEBF6C
:10060000002001F0004170BDC4F10004203C35DA47
:100610000C341BDC04F11404C4F1200500FA05F3CA
:1006200020FA04F001FA05F240EA020001F000426B
:1006300021F0004110EBD37021FA04F642EB0601E1
:100640005EEA430E08BF20EAD37070BDC4F10C040B
:10065000C4F1200500FA04F320FA05F001FA04F2CF
:1006600040EA020001F0004110EBD37041F10001BB
:100670005EEA430E08BF20EAD37070BDC4F12005C6
:1006800000FA05F24EEA020E20FA04F301FA05F22E
:1006900043EA020321FA04F001F0004121FA04F2D6
:1006A00020EA020000EBD3705EEA430E08BF20EAA6
:1006B000D37070BD94F0000F0FD101F000464000E0
:1006C00041EB010111F4801F08BF013CF7D041EA62
:1006D000060195F0000F18BF704703F00046520066
:1006E00043EB030313F4801F08BF013DF7D043EA37
:1006F0000603704794EA0C0F0CEA135518BF95EAED
:100700000C0F0CD050EA410618BF52EA4306D1D173
:1007100081EA030101F000414FF0000070BD50EA92
:10072000410606BF1046194652EA430619D094EA1C
:100730000C0F02D150EA013613D195EA0C0F05D106
:1007400052EA03361CBF104619460AD181EA03015A
:1007500001F0004141F0FE4141F470014FF0000012
:1007600070BD41F0FE4141F4780170BD70B54FF0AD
:10077000FF0C4CF4E06C1CEA11541DBF1CEA13552D
:1007800094EA0C0F95EA0C0F00F0A7F8A4EB05040F
:1007900081EA030E52EA03354FEA013100F0888006
:1007A0004FEA03334FF0805545EA131343EA1263CF
:1007B0004FEA022245EA111545EA10654FEA002684
:1007C0000EF000419D4208BF964244F1FD0404F53D
:1007D000407402D25B084FEA3202B61A65EB030599
:1007E0005B084FEA32024FF480104FF4002CB6EB56
:1007F000020E75EB030E22BFB61A754640EA0C00D6
:100800005B084FEA3202B6EB020E75EB030E22BF15
:10081000B61A754640EA5C005B084FEA3202B6EB56
:10082000020E75EB030E22BFB61A754640EA9C0015
:100830005B084FEA3202B6EB020E75EB030E22BFE5
:10084000B61A754640EADC0055EA060E18D04FEAA3
:10085000051545EA16754FEA06164FEAC30343EA43
:1008600052734FEAC2025FEA1C1CC0D111F4801F10
:100870000BD141EA00014FF000004FF0004CB6E709
:1008800011F4801F04BF01430020B4F1FD0C88BFA8
:10089000BCF5E06F3FF6AFAEB5EB030C04BFB6EBB3
:1008A000020C5FEA500C50F1000041EB045170BDA6
:1008B0000EF0004E4EEA113114EB5C04C2BFD4EBD3
:1008C0000C0541EA045170BD41F480114FF0000E57
:1008D000013C90E645EA060E8DE60CEA135594EAD3
:1008E0000C0F08BF95EA0C0F3FF43BAF94EA0C0FD6
:1008F0000AD150EA01347FF434AF95EA0C0F7FF44B
:1009000025AF104619462CE795EA0C0F06D152EA9E
:1009100003353FF4FDAE1046194622E750EA410682
:1009200018BF52EA43067FF4C5AE50EA41047FF493
:100930000DAF52EA43057FF4EBAE12E74FF0FF3CF8
:1009400006E000BF4FF0010C02E000BF4FF0010CC9
:100950004DF804CD4FEA410C7FEA6C5C4FEA430C42
:1009600018BF7FEA6C5C1BD001B050EA410C0CBF91
:1009700052EA430C91EA030F02BF90EA020F0020F3
:10098000704710F1000F91EA030F58BF994208BF5A
:1009900090422CBFD8176FEAE37040F00100704717
:1009A0004FEA410C7FEA6C5C02D150EA013C07D16E
:1009B0004FEA430C7FEA6C5CD6D152EA033CD3D0B9
:1009C0005DF8040B704700BF8446104662468C46B3
:1009D0001946634600E000BF01B5FFF7B7FF0028E6
:1009E00048BF10F1000F01BD4DF808EDFFF7F4FF0F
:1009F0000CBF012000205DF808FB00BF4DF808ED9A
:100A0000FFF7EAFF34BF012000205DF808FB00BFBC
:100A10004DF808EDFFF7E0FF94BF012000205DF8DE
:100A200008FB00BF4DF808EDFFF7CEFF94BF012093
:100A300000205DF808FB00BF4DF808EDFFF7C4FF8C
:100A400034BF012000205DF808FB00BF4FEA410CD5
:100A50007FEA6C5C02D150EA013C0AD14FEA430CB8
:100A60007FEA6C5C02D152EA033C02D14FF00000F5
:100A700070474FF0010070474FEA410212F5001233
:100A800015D211D56FF47873B3EB625212D94FEAD5
:100A9000C12343F0004343EA505311F0004F23FABF
:100AA00002F018BF404270474FF00000704750EA14
:100AB000013005D111F0004008BF6FF000407047D1
:100AC0004FF00000704700BF53B94AB9002908BF72
:100AD00000281CBF4FF0FF314FF0FF3000F00CB882
:100AE000ADF1080C6DE904CE00F02DF8DDF804E05E
:100AF000DDE9022304B07047704700BF10F8012BF6
:100B000011F8013B012A28BF9A42F7D0D01A70474A
:100B1000034613F8012B002AFBD1181A013870473D
:100B2000430803F05533C01A00F03333800800F057
:100B30003330184400EB10104FF0013300F00F3049
:100B40005843000E70472DE9F04786468C4608460C
:100B5000089E154674461946002B40F0C280854217
:100B6000B2FA82F245D94AB1C2F1200300FA02FC7E
:100B70002EFA03F3954043EA0C0C94404FEA154ECD
:100B8000A8B2BCFBFEF8230C0EFB18CC08FB00F946
:100B900043EA0C43994528D9EB1808F1FF3704D2F2
:100BA000994502D9A8F102072B44A3EB0903A4B28B
:100BB000B3FBFEFC0EFB1C330CFB00F044EA0344C9
:100BC000A04214D92C190CF1FF3304D2A04202D94F
:100BD000ACF102032C44241A43EA07401EB1D4406E
:100BE000002334607360BDE8F0874746DDE7634665
:100BF000F1E792BB431B01214FEA154EAFB2B3FBA5
:100C0000FEFC200C0EFB1C330CFB07F840EA0343F0
:100C1000984562D9EB180CF1FF3004D2984502D9FF
:100C2000ACF102002B44A3EB0803A4B2B3FBFEFC1F
:100C30000EFB1C330CFB07F744EA0344A7424ED9D2
:100C40002C190CF1FF3304D2A74202D9ACF10203F4
:100C50002C44E41B43EA0040C0E7C2F1200320FA21
:100C600003F1954090402EFA03F303434FEA154EEB
:100C7000AFB2B1FBFEFC0EFB1C10190C0CFB07F80D
:100C800041EA0041884504FA02F422D969180CF1BE
:100C9000FF3004D2884502D9ACF102002944A1EB0F
:100CA00008019BB2B1FBFEFC0EFB1C110CFB07F70D
:100CB00043EA01439F420ED9EB180CF1FF3104D2F5
:100CC0009F4202D9ACF102012B44DB1B41EA0041F7
:100CD00092E76046E3E76146F7E76046A3E76346CD
:100CE000B7E7834206D916B9002108467BE7C6E973
:100CF00000E0F9E7B3FA83F78FB9834201D3724575
:100D000008D8BEEB020460EB030301209C461EB929
:100D1000002168E73846FAE7C6E9004CF8E7C7F172
:100D2000200CBB4022FA0CF41C432EFA0CF120FAE2
:100D30000CF3B84001434FEA14490EFA07F5B3FB30
:100D4000F9F81FFA84FE09FB18300B0C08FB0EFAA9
:100D500043EA00439A4502FA07F240D9E31808F142
:100D6000FF3004D29A4502D9A8F102002344A3EB34
:100D70000A0389B2B3FBF9F809FB183308FB0EFE2E
:100D800041EA03418E452CD9611808F1FF3304D2A2
:100D90008E4502D9A8F10203214443EA0040A0FB9A
:100DA0000298A1EB0E014145CE46434602D306D13F
:100DB0004D4504D2B9EB020E68EB04030138002E56
:100DC000A6D0B5EB0E0261EB030101FA0CFC22FA8E
:100DD00007F34CEA0303F940C6E9003198E74046BF
:100DE000C5E74346D9E700002DE9F04F9FB08246A2
:100DF000039117461C460025387810B9284600F0A4
:100E0000A6BD252809D00399D0470028C0F29F85A8
:100E10007B1C01350593059FEEE71822002110A8E1
:100E200011F0C7FB7B78252B00F0BC800023791CD8
:100E300098469E469C4618460E4611F8012B2B2AD2
:100E400000F0E38000F2DA80202A00F0E180232A1B
:100E500000F0E1802BB19DF8483043F040038DF85D
:100E60004830B8F1000F05D09DF8483043F020031A
:100E70008DF84830BEF1000F05D09DF8483043F0A2
:100E800010038DF84830BCF1000F05D09DF84830B4
:100E900043F008038DF8483028B19DF8483043F0FE
:100EA00004038DF848309DF8483003F0440144298C
:100EB00003D16FF386138DF848309DF848300E96B5
:100EC00043F080032A2A8DF8483040F0A9809DF82D
:100ED000493043F001038DF84930731C1A782E2AEB
:100EE0009DF849200CBF0121002161F341028DF8DA
:100EF00049200CD15A1C0E925A782A2A40F0A08020
:100F00009DF8492042F004028DF8492002331A78F6
:100F10006C2A00F0C18000F2A380682A00F0A9804A
:100F20006A2A00F0C2804C2A00F0C78013F8012B17
:100F30000593782A8DF84B2000F209816D2A00F282
:100F4000C980692A00F20381572A00F2E280412A0F
:100F500004D0A2F14503022B00F2F9809DF84A303B
:100F600002F0DF020421A2F1410961F30203D9F189
:100F700000029DF849108DF84A3042EB090262F3F5
:100F8000C7110A068DF84910CBB200F11F8103F09A
:100F90007802182A40F009816FF3C6038DF84930B2
:100FA0000023F8E08DF84B30BB1C05939DF84930C9
:100FB0009DF84A20DE0702F0070040F1098154F84D
:100FC000041B0491002908DA9DF8481041F004013F
:100FD0008DF84810049949420491590740F1008165
:100FE00054F8046B002E80F2FF809DF849306FF3B7
:100FF00041038DF849304FF0FF36F5E02D2A0DD032
:10100000302A7FF427AF012316E74FF0010C13E7D6
:101010004FF0010E10E74FF001080DE701200BE73C
:101020000EA801F0ADFE0E9BB3423FF457AF9DF802
:1010300048201390C00F60F341028DF848204DE71F
:101040000EA801F09DFE9DF848301490C3F34002B5
:1010500042EAD07262F341038DF848300E9B56E7A6
:10106000742A26D07A2A7FF461AF9DF849200621A0
:101070000CE05A78682A9DF8492006D1012161F3D5
:10108000C6028DF84920023350E7022161F3C602FF
:101090008DF84920013349E75A786C2A9DF8492098
:1010A00001D10421EBE70321F0E79DF84920052158
:1010B000ECE79DF849200721E8E7BDF8482022F435
:1010C000F04222F0020242F4804242F00202ADF805
:1010D0004820DFE76E3AD3B201229A4040F28243C1
:1010E0001A429DF8493039D112F0240F61D1D1074D
:1010F0002DD59DF84A2003F07803A3F14008032181
:1011000061F30202D8F100038DF84A2043EB080393
:1011100041E0A2F15801C9B2012000FA01F111F435
:10112000624F7FF41BAF40F6010319429DF849302E
:101130001AD111F4043F0AD09DF84A2060F302024C
:1011400003F07803402B8DF84A207FF429AF9DF8F7
:10115000483043F001038DF8483021E79DF84A20DC
:10116000022161F30202EBE79DF84A10022003F02E
:10117000780360F30201402B8DF84A1002BF9DF8FE
:10118000481041F001018DF84810632A7FF408AF40
:10119000003B18BF01239DF84820C2F340010B43D8
:1011A00063F341028DF8482000E713F0380FCED1E9
:1011B000F6E69DF84A20032113F0780F61F302024E
:1011C0008DF84A2014BF01230023E4E70123E2E75E
:1011D0009DF948100029B4BF13994FF0FF31FBE689
:1011E0009E077FF508AF149E00230428CDE9133332
:1011F0009DF8493007D1990705D49DF94910002978
:10120000ACBF06260D2602F00702012AC3F3C30372
:1012100032D1DA1E042A04D8DFE802F02045452046
:1012200020002268012B4FEAE271CDE910211BD189
:101230009DF94020D117CDE9102104349DF84820B4
:10124000069292074FD0059B03993A4650460EF0FE
:101250009DFB0028C0F27B830544DCE554F8042B99
:10126000D117CDE91021E9E7022BE6D111B242F303
:10127000C032CDE91012E0E7022A24D1DA1E042A96
:1012800004D8DFE802F0181010181800012B54F8E9
:10129000042B4FF0000114D0022BCDE91021CDD149
:1012A00092B21092CAE7073424F00704F4E802016E
:1012B000CDE91001C2E754F8042B109200221192DC
:1012C000BCE7D2B2CDE7042A08D1073424F00704E2
:1012D000D4E900010834CDE91001AFE7032AADD10C
:1012E00054F8042BDDE79DF84B80B8F1780F3FF6FA
:1012F00092ADB8F1570F5CD8B8F1250F00F0A4807B
:10130000B8F1240F7FF687ADB8F1410F04D0A8F1F2
:101310004503022B3FF67FADDDE91023002BC0F221
:101320004D810699080700F14C81C1F300194FEA7D
:101330004919C3F30A51C3F31303002940F0448150
:1013400052EA030014BF4FF0010C4FF0000CD8021A
:1013500040EA5250D702CDE90C70B8F1460F47EA87
:10136000010740EAE17008BF4FF06608384300F01B
:10137000B881BCF1000F10D01B0343EA12531703CE
:101380003A4618464FF0000C002880F25681BCF116
:10139000000F40F05981CDE90C730D9B43F00043E1
:1013A000A1F2FE3B0D930021DDE90C230F46052041
:1013B00060E1A8F15802202A3FF62DAD01A151F8B5
:1013C00022F000BF8F150000170E0000170E00005E
:1013D000170E0000170E0000170E0000170E000079
:1013E000170E0000170E000019130000170E000062
:1013F0003B1500004F1500001913000019130000E1
:1014000019130000170E00004F150000170E000002
:10141000170E0000170E0000170E000095150000B3
:101420008F150000DF140000170E0000170E0000DB
:1014300059140000170E00008F150000170E000051
:10144000170E00008F15000003994046D047002872
:10145000C0F27D820135DEE4002E109F3BDB314679
:10146000384611F009FA002F3FF4D5AC3E18F31BB3
:101470004FF000099DF84A2012F01001069100F08B
:101480005B82023312F04002DDF84C80089218BFF4
:10149000149ACDF81C80434418BF9B18049A002A64
:1014A00040F36582D31A9DF8482004935007C2F395
:1014B000800B00F15C82510640F14C82B9F1000FC3
:1014C00007D003994846D0470028C0F24082013532
:1014D000D94630223FE23846FFF71AFBC6E710989C
:1014E000002800F024820DF17503009312AA17ABB7
:1014F000002101F05BFCBDF84A3003F0EF0343F438
:10150000F04343F010030746ADF84A304FF00009AE
:10151000002E0CDB9DF848200DF17503DB1B6FF3EB
:1015200086129E428DF8482001D9F31A1393002F9A
:101530003FF471AC0DF175066DE0109B8DF85C30D9
:101540004FF000090DF15D0617AF012392E7069BEE
:101550001F0758BFC3F30019DDE9102354BF4FEA3A
:1015600049194FF02B09002B06DA524263EB430373
:10157000CDE910234FF02D090DF175030093DDE93E
:10158000100117AB12AA01F011FC0746C0E74FF09B
:101590000009F1E7109A072B3FF63DACDFE803F0B6
:1015A0000C04060C08080C0C157034E4158032E4A9
:1015B000EB17C2E900532EE415602CE44FF02D091F
:1015C000B7E64FF02B09B4E640F2FF70814231D10B
:1015D00008F10108A2495FFA88F8134311F80810CE
:1015E00001F003011ED101290BBF492369234E21BC
:1015F0006E210CBF462266228DF85C309DF8483083
:101600008DF85D106FF386138DF85E208DF84830ED
:101610000DF15F0617AFF31BB9F1000F3FF42AAFCE
:10162000013327E7012915BF6E234E236121412194
:101630001A46E1E74FF0000C89E6921801F1FF31FC
:1016400040414FF0010C9FE6CDE90C20A5E6520881
:1016500042EAC3725B08B3F1333F59460BF1010B09
:10166000F5D200FB03FCA2FB002301F1020B634453
:10167000013F01211BF1020FE9DB09B1CDE90C2388
:10168000BBF1000FDDE90C322EDCCBF10401A1F13E
:1016900020000BF11C0B02FA0BFB22FA00F0CA40EF
:1016A000CB40079208F0DF0243EA0B03472A43EAE4
:1016B00000037DD1F91C01DBBE422BDAA8F1020840
:1016C000002E5FFA88F87CDD9DF84820920606F12E
:1016D000FF3676D4B6F1000B18BF4FF0010B721C29
:1016E00027E04FF0000B5EE6023342F100020CA847
:1016F000CDE90C320EF01BF9DDE90C320BF1FF3BAA
:101700000137DB185241002A0BF1FF3BF9DACDE932
:101710000C32B5E79DF848209006A6EB07064DD49D
:10172000B6F1000B18BF4FF0010BF2194FF066082D
:101730004AD4102AA8BF10229FED477B8DED0E7B67
:1017400010200B90DDE90E01002A3FD1079A1B18EB
:1017500042EB0101B1F1805F47D2CDE90C31069B2C
:10176000B8F1660F03F0200240F0C180002F47DC83
:1017700030238DF85C30002A74D1002E40F3BA81FA
:101780002E238DF85D3087B17B42B342A8BF33462C
:101790009DF84A201393002BA6EB0306D4BF002329
:1017A000012363F345128DF84A200DF15E0340E0FA
:1017B000B8F1660F4FF0000BB7D090E74FF0000B79
:1017C000B3E74FF0000B8AE70022B5E7400840EA94
:1017D000C1704908CDE90E010EA8CDE908230EF02D
:1017E000A6F8089A099B013AACE75B0843EAC17383
:1017F0000CA84908CDE90C3101370EF098F8AEE796
:1018000017AB0B9900290BDD0BA90CA8CDE906320B
:101810000EF0A5F8069B079A03F8010B013FF0D1E3
:101820001397AAB9002E40F363812E2103F8011B00
:101830000027002E1FDD0B9A002A1CDD0BA90CA827
:1018400006930EF08CF8069B013E03F8010BF0E7BF
:101850002E2203F8012BEBE7000000000000000837
:10186000DF4D01002E238DF85D30002F9DD0002E1E
:101870008ADC0DF15E03BBF1000F4CD114961E46BD
:1018800008F0DF03452B21D1002FBABF7F422D2363
:101890002B23632FC8BF64227370C2BFB7FBF2F360
:1018A00003F1300102FB13774FF00A0286F8008043
:1018B000CABFB17002360336B7FBF2F303F1300151
:1018C00002FB13733033317073700236139B002B9D
:1018D0002BDC149B002BD4BF002301239DF84A204E
:1018E00063F3861200238DF84A20337092E60BA929
:1018F0000CA806920EF033F8069A8DF85C0030289A
:1019000018BF07F1FF3712B9002E40F3F3802E23E2
:101910008DF85D3049E71E46013B16F8012C302A50
:10192000F9D02E2A08BF1E46AAE70123D6E7734E38
:101930008146771F05239DE5110748BF0133A1E5C7
:10194000104609920399D0470028099A05DA1FB07A
:10195000BDE8F08F2022DDF810B0594600290BF1C8
:10196000FF3BEDDC049BCDF810B02B445D1AB9F1C0
:10197000000F05D003994846D0470028E7DB013522
:10198000089B002B79D09DF94930002B29DBDFF82B
:1019900070913B46187819F8002052079B4603F1D6
:1019A00001033FD49DF84A30EF1B98065F4407D4EB
:1019B0004246002A08F1FF383BDC079B3B449F1A54
:1019C0009BF800002E280AD10399D0470028BEDBDF
:1019D000B8F1000F07F1010731DC0BF1010B5D4697
:1019E00038E0B94699F800007028C84609F10109A5
:1019F00013D1EF1B149D47443D44EB1B002B34DCFB
:101A000003993346424650460DF0C0FF00289EDB46
:101A10003844049E0546064465E00399D0470028F3
:101A2000E0DA94E706930399D0470028069BB1DAE1
:101A30008DE703993020D0470028B9DA87E703996A
:101A40003020D04708F1FF38C0E70399D04700287D
:101A5000FFF67DAF287819F800305907A84605F140
:101A60000105F2D4A7EB0B07C4E703993020D04758
:101A70000028FFF66CAF0137BFE79DF84A30DA0661
:101A800001D41B0706D503993020D0470028FFF664
:101A90005EAF0135069B3BB103999DF84B00D047E3
:101AA0000028FFF654AF0135A84406E00399302022
:101AB000D0470028FFF64BAF0135A8EB0503002BFC
:101AC000F4DC039933463A4650460DF05FFF002898
:101AD000FFF63DAF28449CE703992020D04700281B
:101AE000FFF635AF0135731B002BF5DCFFF793B91B
:101AF0001746C0E60DF15D03BDE600BF153A0100D3
:101B0000E04D0100000000002DE9F04F476A97B05A
:101B10008DED000B55EC104B209E089183460C92E6
:101B200012937FB910200BF0BFFF0246CBF82400C0
:101B300020B9A74BEA21A7480DF034F8C0E9017796
:101B40000760C760DBF82430196859B15A684A60E9
:101B5000012393408B6058460CF04EFCDBF8243098
:101B600000221A602B1EB9BF23F00043019300230B
:101B70003360019F984BBCBF01223260BB4319D137
:101B8000129A42F20F731360C7F31303234300F05A
:101B9000DD85219B53B9914B21E0914B0393083391
:101BA000219A1360039817B0BDE8F08F8B4B039315
:101BB0000333F5E79DED007B002251EC170B00236A
:101BC0008DED0A7BFEF710FF804650B1129A01237B
:101BD0001360219B13B1219A824B1360824B0393B4
:101BE000E0E79DED0A0B14AA15A958460CF086FEF5
:101BF000C7F30A560290002E78D00B9BCDF84C808C
:101C0000C3F31303DDE90A0143F07F5343F44013A8
:101C1000A6F2FF3619460022744BFEF7C5FA66A3FA
:101C2000D3E90023FEF778FC65A3D3E90023FEF790
:101C3000BDFA044630460D46FEF704FC62A3D3E924
:101C40000023FEF769FC02460B4620462946FEF7B4
:101C5000ADFA04460D46FEF70FFF002207460023AB
:101C600020462946FEF7CAFE40B13846FEF7EAFB99
:101C700022462B46FEF7B8FE00B9013F162F52D878
:101C80005B4B03EBC703D3E90023DDE90A01FEF751
:101C9000B5FE002849D0013F00231193149B9B1BE4
:101CA0005A1E45BFC3F10103069300230023079288
:101CB00054BF06930793002F39DB079B10973B44D3
:101CC000079300230993089B092B66D8052BC4BFF3
:101CD000043B0893089BA3F10203CCBF002401241A
:101CE000032B65D8DFE803F02B383657DDE91463A2
:101CF0001E4406F23243202BC1BFC3F140039F4074
:101D000006F2124324FA03F3D6BFC3F1200347EAD5
:101D1000030004FA03F0FEF785FB0122A1F1F8733A
:101D2000013E139276E70123B7E71190B6E7069BD1
:101D3000DB1B06937B42099300231093C3E7002328
:101D40000D930C9B002B57DC0123049399461A46F4
:101D50000C920CE00123F3E700230D930C9BFB187E
:101D600003F1010904934B46012BB8BF0123DBF8B3
:101D700024000021042202F114059D4240D9416053
:101D800058460CF0F9FA039000283CD1194B024652
:101D90004FF4D571CFE60123DFE701240023089338
:101DA0000D944FF0FF330493994600221223CFE79E
:101DB00001230D93F5E700BF61436F63A787D23F0F
:101DC000B3C8608B288AC63FFB799F501344D33F2A
:101DD0001B4F0100324F01000000F07F174F010040
:101DE0000E4F01006B4601006A4601000000F83FFB
:101DF000903201008E4F01000C9B04939946B6E788
:101E000001315200B7E7DBF82430039A1A60B9F1C8
:101E10000E0F6FD8002C6DD0002F36DDA14B07F0D0
:101E20000F0203EBC20393ED007BF8058DED0E7BF3
:101E30004FEA271417D59C4BDDE90A01D3E90823A3
:101E4000FEF794FCCDE9000104F00F044FF0030805
:101E5000954D5CB9DDE90E23DDE90001FEF786FC56
:101E6000CDE900012BE04FF00208F1E7E10709D5C9
:101E7000DDE90E01D5E90023FEF74EFBCDE90E01A9
:101E800008F1010864100835E3E700F007817C429F
:101E9000844B854D04F00F0203EBC203D3E900230A
:101EA000DDE90A01FEF738FBCDE90001241100232A
:101EB0004FF00208002C40F0E580002BD0D1119BA0
:101EC000DDE90045002B00F04C81784B00222046D4
:101ED0002946FEF793FD002800F04381B9F1000F79
:101EE00000F03F81049B002B00F3E480DDE90A341D
:101EF000CDE90034159B002B02DB0E2F40F342820C
:101F00000D9A002A40F06782099CDDF818800025B0
:101F1000B8F1000F0DD0079B002B0ADD4345069A50
:101F2000A8BF4346D21A0692079AA8EB0308D31A11
:101F30000793099B0BB30D9B002B00F0A682002C8E
:101F400000F0A1822946224658460CF07DFB029AF9
:101F50000146054658460CF0CDFA02990646584609
:101F60000CF04AFA099B1B1B099300F09182099A15
:101F7000314658460CF068FB0290012158460CF09F
:101F8000A3FA109B0446002B00F084821A460146F7
:101F900058460CF059FB089B012B044603DC009BC0
:101FA000002B00F07C820026236904EB8303186970
:101FB00010F006FD1096C0F12000079B184410F0A9
:101FC0001F0000F09182C0F12003042B40F38182B6
:101FD000069BC0F11C0003440693079B0344804406
:101FE0000793069B002B05DD02991A4658460CF014
:101FF00085FB0290079B002B05DD21461A465846BB
:102000000CF07CFB0446119B002B00F076820298BA
:10201000214610F024FD002880F26F8200230299EF
:102020000A2258460CF00AFA0D9B02907E1E002BE5
:1020300000F05C82002329460A2258460CF0FEF983
:10204000049B002B054603DC089B022B00F35E82F9
:10205000B8F1000F05DD2946424658460CF04EFB0C
:102060000546109B002B00F0D082696858460CF0A2
:1020700083F90746002840F07F820D4B024640F26C
:10208000EA2158E5E20706D5D5E90023FEF744FA30
:1020900008F101080123641008350BE74FF002082E
:1020A0000DE700BF90320100683201000000F03FF0
:1020B0008E4F01002046AD4B00222946FEF72CFA38
:1020C000CDE90001049C7E1E08F101084046FEF7A0
:1020D000B9F9DDE90023FEF71FFAA54B0022FEF750
:1020E00065F8A1F15073CDE90E010F93002C3BD19F
:1020F000DDE900019F4B0022FEF756F802460B4631
:10210000CDE90023DDE90E23FEF796FC002840F020
:102110005781DDE90E2101F10043DDE90001FEF701
:102120006DFC00283FF4E2AE002425460C9BDDF850
:102130000CA0DE434FF00008214658460CF05CF935
:10214000002D00F0A980B8F1000F05D0A84503D0FC
:10215000414658460CF050F9294658460CF04CF9C7
:102160009AE03E464C46B1E7834B03EBC40353E988
:102170000201039B1C440D9B002B4AD002460B46D8
:1021800000207E49FEF7F2FADDE90E23FEF70CF897
:10219000CDE90E01DDF80CA0DDE90001FEF76CFCD5
:1021A0000546FEF74FF902460B46DDE90001FDF753
:1021B000FBFF3035CDE9000102460B460AF8015B12
:1021C000DDE90E01FEF738FC002865D1DDE90023CA
:1021D0006B490020FDF7E8FF02460B46DDE90E01E2
:1021E000FEF72AFC002840F00D81A24500F0EA80AD
:1021F000DDE90E015D4B0022FEF78EF95B4BCDE968
:102200000E010022DDE90001FEF786F9CDE90001AB
:10221000C2E7DDE90E23FEF77FF9CDE90E01DDF817
:102220000CA0A046DDE90001FEF726FC0546FEF7FE
:1022300009F902460B46DDE90001FDF7B5FF30352F
:102240000AF8015B02460B46A245CDE900234FF098
:10225000000223D1494BDDE90E01FDF7A7FF02463D
:102260000B46DDE90001FEF7E7FB002840F0CA80DD
:10227000DDE90E2341490020FDF796FF02460B469B
:10228000DDE90001FEF7BAFB70B1C24608F1FF3884
:102290001AF8013C302BF8D0374655E0334BFEF7A7
:1022A0003BF9CDE90001BDE7DDE90A34CDE90034B1
:1022B000159B002BFFF628AE0E2F3FF725AE2E4BB9
:1022C00003EBC70393ED007B0C9B002B8DED047B90
:1022D00002DAB9F1000F64D0DDE90045DDF80CA0A9
:1022E000DDE9042320462946FEF740FAFEF7C4FB49
:1022F0000646FEF7A7F8DDE90423FEF70DF90246CE
:102300000B462046294606F13004FDF74DFF0AF83A
:10231000014B039CAAEB0404A14502460B4640F086
:102320008280FDF743FFDDE9042304460D46FEF7F6
:1023300083FB002865D1DDE9042320462946FEF70A
:1023400053FB08B1F3075CD4029958460CF054F8DB
:1023500000238AF80030129B01371F60219B002B5D
:102360003FF420ACC3F800A01CE400BF00002440F0
:1023700000001C4000001440903201000000E03FCB
:102380000000F03FA24B03EBC70393ED007B0C9BD7
:10239000002B8DED047B9FDAB9F1000F9CDC7FF4FC
:1023A000C3AE9C4B0022DDE90401FEF7B5F8DDE980
:1023B0000023FEF737FB044600287FF4B5AE3E4607
:1023C0002546B4E0DDE90A34CDE90034159B002B45
:1023D00001DB0E2FD6DD089A012A36DC139A82B370
:1023E00003F23343099CDDF81880069A1A440692DA
:1023F000079A01211A44584607920CF065F80546E1
:1024000086E53E4653469A4613F8012D392A06D1F1
:10241000039A9A42F7D10399302201360A701A784A
:1024200001321A7038E77C4B0022FEF775F8002263
:10243000002304460D46FEF7D7FA00283FF450AFBC
:1024400082E7149BC3F13603CCE7099B09F1FF3403
:10245000A34208DBB9F1000FA3EB04040EDBDDF8A7
:1024600018804B46C1E7099B109A0994E31A1A4455
:10247000DDF8188010924B460024B6E7069BA3EBCC
:1024800009080023B1E7029E71E5099A029970E5F7
:10249000029672E5089B012B17DC009BABB9019BF0
:1024A000C3F313039BB9019B23F00046360D360599
:1024B00036B1069B01330693079B01330793012630
:1024C000109B002B7FF470AD1096012075E500265F
:1024D000F6E73FF486AD069A1C331A440692079A33
:1024E0001A44984407927CE50346F4E7049B002BCA
:1024F0002BDC089B022B09DC27E0B9F1000F1DDC67
:10250000089B022B1ADDCDF810903E46049B002B51
:102510007FF40CAE2146052258460BF08FFF014692
:102520000446029810F09BFA00287FF7FFADDDF813
:102530000CA031230AF8013B0136FBE50D9BCDF8D9
:1025400010903E46002B7FF483AD039F02982146F6
:1025500010F0AEF900F1300907F8019B039B049AD3
:10256000FB1A9A4240F3CB80029900230A22584674
:102570000BF064FF0290E9E72A690232920005F14C
:102580000C010C300FF0EDFF0122394658460CF0DB
:10259000B5F8039B03F1010ADDE903231344079314
:1025A000009B03F00103A846099305460AF1FF3397
:1025B00021460298049310F07BF94146069000F101
:1025C0003009029810F04BFA2A4621460746584631
:1025D0000CF000F9C268014602B358460BF00CFF3C
:1025E000002F3ADA0299012258460CF087F821466A
:1025F000029010F034FA002803DC29D119F0010F01
:1026000026D0B9F1390F1DD132E02846C1E700BF0D
:102610009032010000001440000024400A9002980B
:1026200010F01DFA0A990C9058460BF0E5FE0C9A32
:102630005ABB089B53B9099B43B9B9F1390F17D05D
:10264000002F05DD069B03F1310901E0002F2ADA96
:10265000DDF810A00AF8019B6EE5089B3B4304D10E
:10266000009B03F00103002BBCD0B9F1390F36D128
:10267000049F392307F8013BBA46013F1AF8013C91
:10268000392B5BD001333B7056E5002F06DB089BEE
:102690003B4306D1009B03F0010313B9002AA1DCE0
:1026A000D6E7002AE1DC079B0AF8019C5345574610
:1026B0002FD0029900230A2258460BF0BFFEA845EE
:1026C00002904FF000034FF00A02414658460BD1EA
:1026D0000BF0B4FE804605460AF1010A66E7DDF814
:1026E00010A009F10109B5E70BF0A8FE29468046C4
:1026F00000230A2258460BF0A1FE0546ECE7049B96
:10270000002BC8BF1F46039BD8BF01271F444FF0B3
:1027100000080299012258460BF0F0FF2146029072
:1027200010F09DF90028A7DC02D119F0010FA3D108
:10273000BA4617F8013D302BFAD0FDE4039BBB42AB
:102740009AD1039A312301361370F5E4219B002BB3
:102750007FF423AA014BFFF742BA00BF0E4F0100DE
:1027600030B5CBB0254B264A80210AA80BF0C0FD1E
:10277000002401220AA907A8CDE907448DF82440C6
:1027800002F0C8F900280EDA0AAB03931D4B04903F
:10279000CDE901431C4900942346012220460CF058
:1027A000C0FD4BB030BD2AAD7F22294607A802F0FC
:1027B00077FA002816DD00F594730DEB03000AABE1
:1027C00000F8804C0393114B0F490495CDE9014368
:1027D00000942346032220460CF0A3FD07A802F034
:1027E0003BFADEE70A4B08490094CDE90143012298
:1027F000234620460CF095FDF0E700BFBC380100F1
:10280000C5380100D2380100F0310100F53801006F
:102810000639010030B5234DCBB00024294606A867
:10282000CDE9064402F080FA00280DDA1E4B1F495C
:102830000094CDE90350CDE901430122234620460F
:102840000CF06FFD4BB030BD194B0395CDE9014342
:102850000094234620461549164C144D03220CF0D3
:1028600060FD08A906A802F0D1FA034610B99DF848
:1028700021201AB906A802F049FBE3E79DF82020C1
:1028800049990591002A14BF442246220DF12101E5
:10289000CDE90321CDE901340093032229460CF050
:1028A00040FDDEE71B39010025390100F031010050
:1028B000403901004D39010030B5ABB00024384B30
:1028C000384D39490293032223462046CDE900447E
:1028D0000CF027FD284602F093FB00280CDA334B5E
:1028E0000390CDE90143304900942346012220465C
:1028F0000CF017FD2BB030BDEB6803932C4B2A492D
:1029000000940322CDE90143204623460CF009FD43
:10291000284802F021FB284B284A80210AA80BF006
:10292000E7FC32220AA907A8CDE907448DF8244024
:1029300002F0F0F8002813DA0AAB0393204B04905E
:10294000CDE90143184900942346012220460CF0AA
:10295000E8FCFFF705FF2BB0BDE83040FFF75ABF9A
:102960001849132207A802F0BDF900280EDA164B09
:102970000390CDE9014300942346012218460A49F9
:102980000CF0CFFC07A802F067F9E2E70AAB03936B
:102990000E4B0094CDE9014303222346EEE700BF2E
:1029A0006039010060050020F03101007539010037
:1029B000863901001B390100BC380100C53801000F
:1029C0009D390100C0390100D4390100E639010008
:1029D0002DE9F04F91B08407009302F004030293B5
:1029E000C2F3C20303F10103DDF8689003920546C8
:1029F0000E46059340F0BA81041D30B1072909D86D
:102A00006FF01B0011B0BDE8F08F01F00706341D18
:102A1000C6F10806009B4FF00008591E4FF0040A4B
:102A20004FF0FF330193CDF810804746C34653461D
:102A30000DB1009820600598002800F3E8809848C0
:102A4000009A824203D397488242C0F0E080039A02
:102A5000A4EB050E92074FEA9E0000F103810F2FB1
:102A600000F2B180002D00F0058107F140020DEB6E
:102A7000020C019A0CF8200C0CF8102C0498013070
:102A80000490E7E07A285DD84B280ED8472859D81B
:102A900029282DD8252852D054D820287AD0233858
:102AA000D0F1000B4BEB000B74E04C382E2849D8CA
:102AB000DFE800F0704848484848484848484848D7
:102AC0004B484848484848484859484B4B59595939
:102AD000704B6D487048184B184848827F4B4848E7
:102AE0004B487F0000204FF0000B4FF0040A38E005
:102AF0002A38C0B2012202FA00F010EA0E0F49D1C2
:102B000010F0625C2FD110EA020B43D06046013C0A
:102B10005444B4FBFAF40AFB04F4002D61D0A3EB97
:102B2000050CA444B4453FF66BAF002868D1042BD4
:102B300047D159F8043B2360043404232AE0019A66
:102B4000013A01924FF0000B24E011F8010C6C28BF
:102B500034D111F8023C00206C2B8346C5D14FF0D4
:102B6000080A5346D3E709F1070929F00709073492
:102B7000F9E802AB24F0070435B106982044B042CE
:102B80003FF63EAFC4E900AB08344FF0000B4FF006
:102B9000080A534611F8010F002878D0BBF1000F46
:102BA0007FF470AF2528F5D1019B013301934FF0DD
:102BB000010B4FF0040AECE7584694E700208346E7
:102BC000A5E7082B02D06FF015001BE709F10709F4
:102BD00029F00709B9EC027B84ED007B0834082357
:102BE000D8E768B9042B02D109F10409A4E7082B3E
:102BF000E9D109F1070929F0070909F10809EDE709
:102C000005980138059059F8040B009010E7039AD5
:102C1000900720D5A4EB050E4FEA9E004FF0010C63
:102C2000BEF5007FCFD20F2FCDD8F5B107F140020E
:102C30000DEB020EC0B2019A0EF8200C0EF8102C0B
:102C4000BCF1000F3FF41AAF60F07F000EF8200CCB
:102C500008F101080137C5F10802043406924FF665
:102C6000DA7E97E74FF0000CDAE7BCF1000F01D0F5
:102C70000136EFE7029A0236002AEBD10098CDE93F
:102C80000631FDF745FFDDE906310644E2E7631B47
:102C9000B3F5806F97D23DB9A6F10804E018B1E60C
:102CA0009C2E010050500100029A28609B082B7056
:102CB0009DF81030C2B1EB7085F80280B8F1000FBA
:102CC00005D008A80022C5F1010C97420ED1C5F12C
:102CD00001030DF120094FF0000A01930DF1300BB3
:102CE000574512D1601B8DE66B70E5E710F8013B8C
:102CF000190608D504EB0C0EB64503F07F033FF62A
:102D00007FAE04F8013B0132DFE7B8F1000F03D0DA
:102D100099F90020002A17DB029BD3B11AF80B2087
:102D200004F8012B0022019B98182044B0423FF682
:102D300067AE99F8000004F8010B00990392204651
:102D40000FF00FFC039A14440AF1010A09F101097A
:102D5000C6E799F8002055F822300093029B45F809
:102D600022300098FDF7D4FE421CDCE76FF00D0026
:102D700048E600BF014B1860704700BF980600206E
:102D8000F0B5094E016802460A2700200B460131C2
:102D90001C78355D6D0701D41360F0BD07FB00435F
:102DA000A3F13000F2E700BFE04D01002DE9F84F3C
:102DB00015469A46D378234A12F803B06F2B814602
:102DC0000F460BF0030B2BD026D8582B0CBF102628
:102DD0000A26DDF828803246002348463946FDF7AA
:102DE00073FE092A08F1FF38D4B21ED83034B14539
:102DF000E4B277F1000788F8004001D3D04511D83C
:102E00002B789B0605D5082E15D1AB7843F0080327
:102E1000AB704046BDE8F88F03F0F703702BD5E7A1
:102E20000826D6E781460F46D5E7BBF1010F0CBF58
:102E300037345734DBE7102EEBD1AB7843F0100377
:102E4000E6E700BFE04D010008B50446EFF311834B
:102E5000202383F31288BFF36F8F05F071F82046AB
:102E600001F088F902480CF04BFD0CF0C7FFFCE7BD
:102E7000163A01002DE9F047058B044628079046D5
:102E800011D4022905F0070540F0CC8020460CF053
:102E900094FD78B10138218B042811D8DFE800F0C7
:102EA000C2106D85950001290CBF45F0100545F055
:102EB0002005258388F31188BFF36F8FBDE8F08765
:102EC00001F0070AAA4500F0A5800027B9463E4652
:102ED000A368002B00F0BC8041F00801218388F337
:102EE0001188BFF36F8FA168002900F0BA800D68C8
:102EF000002900F0B680D1F80480334652462046BF
:102F0000C047002D76D02B6829461D46F0E701F01A
:102F100007035A1F012A1BD8002221F00701062BA4
:102F2000276889B2C4E9002209D13B4603E0628BDD
:102F3000013262831B68002BF9D141F00201218329
:102F400020460CF03AFD00287AD041F0200176E0CE
:102F5000042B0AD121F0070189B2218320460CF00D
:102F60002CFD10B141F020012183218B01F0070AD3
:102F7000AA454FD00027B946AAE7236921F00701E7
:102F800041F00601062DD3F8009021832DD1B9F12F
:102F9000000F3FD041F00801218388F31188BFF36F
:102FA0006F8F3A492046C84729E021F0070123697D
:102FB00041F0040189B2042DD3F804902183E6D0B6
:102FC00000273E464FF0040A82E721F007012369FB
:102FD00041F0050189B2052DD3F808902183D6D0A0
:102FE00000273E464FF0050A72E700273E464FF0A5
:102FF000060A6DE72B4687E7B9F1000FD1D1EFF351
:103000001188202383F31288BFF36F8F238B23F063
:1030100008032383258BEA062ED525F0100323838E
:1030200005F007056669218B002EBFF670AF0023FF
:103030002768C4E9003321F0070141F00101218331
:10304000218B01F0070AAA454FF000097FF440AF39
:10305000002F9CD041F00801218388F31188BFF331
:103060006F8F002FC8D03D68394633465246204600
:103070000CF0CFFC2F46F4E7AB067FF51BAF25F035
:103080002003238305F0070500E700BF3FFA000097
:103090002DE9F84F81462F480F460CF06BFD064690
:1030A00070B92D4CDFF8B4A00546A0464FF0010BD7
:1030B000544507D3B9F1000F02D04FF0010AE5B92A
:1030C000BDE8F88F237B6BB12368DB680BB120462A
:1030D000984723681B6943B963680422196820462E
:1030E00000F0C8F801361034E2E72046984700287F
:1030F000F2D00BFA06F31D43F4E7A94695FAA5F4BE
:10310000B4FA84F40AFA04F3260108EB04146FEA13
:10311000030B25EA0305237B63B158F806301B69CE
:1031200093B94644042273682046196809EA0B09DA
:1031300000F0A0F8002DE1D127B14FF4A4700021D8
:103140000AF010F84D46BAE7204698470028F1D11A
:10315000E7E700BF281000203832010048320100A4
:10316000014B53F8200070475833010008B503465F
:1031700008462BB1044A136000F082FA002008BD13
:103180006FF01500FBE700BF9C060020054A0648CB
:1031900000231370054A1360054A4FF40041136081
:1031A000FFF7E4BFBC19002071FB000020100020D5
:1031B0002410002070B50B4D297841B90120FFF78C
:1031C00067FF094C094EB44202D301232B7070BD36
:1031D00063685B791BB1236820469B68984710346D
:1031E000F1E700BFBC19002038320100483201006D
:1031F00010B5044608480CF0BDFC5CB1BFF35B8F12
:10320000064B53E8001F013943E80012002AF8D1A9
:10321000BFF35B8F10BD00BF2010002024100020E2
:1032200070B50A4B0A4C1B680A4E05469847A860C1
:10323000B44200D370BD63685B7923B1236829462B
:103240001B68204698471034F2E700BF9C06002018
:103250003832010048320100044A054B9B1AB1EB99
:10326000D30F34BF52F8310000207047A83101005D
:1032700038320100084BC31A10B41B1144680133E3
:10328000237143689A7143681960436801225A7137
:103290005DF8044B0CF090BC383201002DE9F04F82
:1032A00087B004AFD7E90EA93D6B04460E4693469E
:1032B0009846BAF1000F1ED0C7F80490CDF80090E0
:1032C00010217A6B53460020FFF782FBB0F5006FA8
:1032D000014611D340F2FF730393194B029300236D
:1032E000CDE900331749022218460CF081FC0C3757
:1032F000BD46BDE8F08F514604F007040BF0070B04
:10330000E40044EA8B1444EA412444EA05541735A6
:103310000D4425F00705ADEB050D04ADBAF1000F26
:1033200007D0CDF800907A6B534605F11000FFF7F7
:103330004FFB43462246314628460CF040FCD6E778
:103340004C3A0100E0310100406820B1034BC01A43
:1033500040F3CF0070474FF0FF307047A8310100B5
:103360000EB403B503AB014653F8042B0448019394
:103370000CF078FC02B05DF804EB03B0704700BFBE
:103380002DFC0000CA0605D48B064CBF0249034938
:10339000FFF7E6BF704700BF853A0100843A01009D
:1033A0002DE9F04F89B004469DF84CB0179E0D46AC
:1033B00090469946BBF1000F00F09E8006F0010395
:1033C000069306F00803059306F4807307930CF048
:1033D000F4FB06F0020A024600283BD0934920463F
:1033E000FFF7BEFF0746BAF1000F08D016F0440FF2
:1033F00032D18F492A462046FFF7B2FF0744069B89
:1034000053B18C4B8C4953F82B208C4B2046002A0F
:1034100008BF1A46FFF7A4FF079B002B48D0059B67
:10342000002B62D1B8F1000F64D085494246204696
:10343000FFF796FF0546149B3D44002B6BD1169B6E
:10344000002B71D1F30700F1EA8031462046FFF7E7
:1034500099FFD7E00746C6E77A4B18680028CDD019
:10346000794B4FF47A7A1B68B5FBF3F54FF4616141
:10347000B5FBF0F300FB13550AFB05F54FF03C0CD0
:10348000B3FBF1F201FB1231B5FBF0FEB1FBFCF333
:1034900000FB1E550CFB13110AFB05F50091B5FB53
:1034A000F0F56A49CDE901E52046FFF759FFA5E7A8
:1034B000059BEBB1664B674953F82B202046FFF77D
:1034C0004FFF0546B8F1000F05D05D494246204642
:1034D000FFF746FF0544B9F1000FACD05E494A46FC
:1034E0002046FFF73DFF0544A5E74FF00009E1E75F
:1034F000059DE7E745469EE7B9F1010F149B06D10C
:10350000002B65D1169B002B7CD000250CE0002BF6
:10351000F8D052485DE05248149B524922460CF0C4
:10352000BCF9169B002B69D0DFF84C81DFF84C9179
:10353000169F3146102F204628BF1027FFF722FF85
:103540004FF0000A554546DC159B49461A7820463F
:10355000FFF706FF4FF0010A1AF0070F03D14146AB
:103560002046FFF7FDFE57453CD9159B494613F809
:103570000A202046FFF7F4FE0AF1010ABAF1100F03
:10358000EAD1394920464FF0000AFFF7E9FE5246DA
:10359000159B9A5C354B995C11F0970F08BF2E2252
:1035A00033492046FFF7DCFE0AF1010ABAF1100F99
:1035B0001DD01AF0070F03D141462046FFF7D0FE79
:1035C00057455246E4D841462046FFF7C9FEEBE78F
:1035D00023485D46A0E741462046FFF7C1FE0AF1B9
:1035E000010AAFE723492046FFF7BAFEC4E7159B5F
:1035F0003B441593169BDB1B169399D1BBF1000F2F
:103600007FF420AF6268A1682068D2E900230CF043
:10361000FFFA636800221A6009B0BDE8F08F074A1C
:1036200005492046FFF79CFE0FE700BF8C3A0100DA
:10363000903A0100683301006E430100873A0100AF
:10364000B53A0100301000202C100020993A0100FA
:103650007C330100B93A0100BF3A010049FC000087
:103660002DFC000065FC0000CE3A0100E04D010099
:10367000D03A0100CA3A0100CC3A0100C43A010034
:10368000074A00210123904206D8064A01B90123C6
:103690001360054B1860704740085B000121F2E79A
:1036A00040420F002C10002030100020014B01225E
:1036B0001A707047BD190020014B00201960704737
:1036C0004810002010B5064B18680C46FFF748FD5F
:1036D00021460346BDE8104002480F22184700BFAC
:1036E00048100020AC330100F8B5094D094B0A4ED3
:1036F000D5E9004701221A700CB92C60F8BD2146AB
:1037000030463A4600F00AF8241A0644F4E700BFAF
:103710003C100020BE190020BF190020F8B5194D3B
:1037200007460E46042432463946002008F086FE3D
:10373000C8B101232B70144B1B782BB93046F8BD50
:103740005CB92C704FF0FF34002008F0FFFE002819
:10375000F4D02B78002BF3D1F0E7013C41F2883014
:103760000EF039FCF0E72B7813B1013C04D12C703A
:103770002B78002BD7D1E1E741F288300EF02BFCFB
:10378000F6E700BFBD190020BE190020014B036001
:1037900000207047BC33010070B5114B1C680D460A
:1037A000DCB1104B196800238B4202DB6FF0010083
:1037B00070BD224612F8106B864202D001331446C7
:1037C000F2E7E06810B96FF01200F1E70EF008FCC4
:1037D0000028F8D02C600020EAE76FF00C00E7E743
:1037E000A0060020BC33010008B504480CF088F89E
:1037F000BDE8084002480CF083B800BF093B010057
:103800003E3B0100014809F0ABBF00BF003401009E
:1038100038B5044618B90F4B0F485B689847616884
:10382000B1F5683F10D0B1F5680F0DD00B4DA9422E
:103830000AD011F46861206807D0014608480EF0EC
:10384000A7FC00232360656038BD14220EF0B1FE92
:10385000F9E700BFA00900206C3B01002C5F5CA9C8
:103860004C15002008B520B34368B3F5683F10D16C
:1038700001220368BFF35B8F53E8001F002903D1C7
:1038800043E800200028F7D1BFF35B8F0DD1002063
:1038900008BD094A93420AD000684FF0FF324FF04A
:1038A000FF3309F069F80028F1D00448F0E7044834
:1038B000EEE76FF4E040EBE72C5F5CA9E98FFFFFD8
:1038C000EA8FFFFF08B5D8B14368B3F5683F10D160
:1038D00000220368BFF35B8F53E8001F012903D167
:1038E00043E800200028F7D1BFF35B8F0BD1002005
:1038F00008BD074A934208D0006809F0B5F8F6E71A
:103900006FF4E040F4E70348F2E70348F0E700BF54
:103910002C5F5CA9E98FFFFFEA8FFFFF10B504461B
:1039200018B91D4B1D485B6898476368B3F5683F3D
:103930002FD0B3F5680F2CD0194A934219D12368C0
:1039400003BB18484FF0FF324FF0FF33214608F019
:10395000E5FF08B923681BB90F4B13485B6898470C
:103960002068142200210EF024FE4FF46863636087
:1039700008E0B3F5683F0DD83A2B03D040F6BA62A1
:103980009342DED120680EF03BFC636843F03A03BB
:10399000636010BD054AF3E7A00900206C3B0100FD
:1039A0002C5F5CA94C150020923B01003A00003AC4
:1039B00008B506490648402314220EF0DBFBBDE89B
:1039C00008400449044809F03DBF00BF4C100020E6
:1039D0004C150020083401001C3401002DE9F0478B
:1039E00080468CB00D46002967D08B6805934B68E4
:1039F00004930B68039300243C4B3D49029301223E
:103A000023462046CDE900440CF0C2F96B690593CA
:103A10002B690493EB680393364B35490094CDE949
:103A200001430122234620460CF0B2F9EB690393CF
:103A3000314B2F490094CDE9014301222346204612
:103A40000CF0A6F9DFF8C0A0DFF8A4902F462646B8
:103A5000FB6A0A93E31C0993BB6A0893A31C0793B0
:103A60007B6A0693631C05933B6A0096CDE903438A
:103A70000023CDE9016A01224946184604340CF0BE
:103A800087F9102C07F11007E2D12B6E03931B4B23
:103A900017490096CDE901630023184601220CF076
:103AA00077F9AB690393164B11490096CDE9016391
:103AB0000023012218460CF06BF9B8F1010F0DD16B
:103AC000EFF30583103B03930E4B02930023CDE9E4
:103AD00000330749424618460CF05AF92946404639
:103AE0000CB0BDE8F04708F061BD00BFBF3B01006E
:103AF00000320100EE3B01001D3C01006F3C010063
:103B00007E3C0100AC3C01002C3C010030BFFFF7C3
:103B1000FDBF00BF074A936893F90E10002907DB29
:103B2000926993421FBF044A536843F08053536025
:103B3000704700BFA017002000ED00E0F0B585B091
:103B40000024434B0293CDE90044234607460E462A
:103B50000122404920460CF036F93F4B9B6ADB04BA
:103B600065D53E4B3B490094CDE9014320462346B1
:103B700001220CF028F91720374B9B6A1D050AD546
:103B8000374B029300231846CDE900333149012217
:103B90000CF019F91820304DAB6A9C051FD5002494
:103BA000304B0293012223462046CDE900442949A7
:103BB0000CF009F9AB6BAA6A10040FD503932A4BDA
:103BC00024490094CDE901430122234620460CF00C
:103BD000FAF81FB1AB6A23F40043AB6219201E4B05
:103BE0009B6A59050AD5214B029300231846CDE95B
:103BF0000033184901220CF0E6F81A20164A936A9D
:103C000013F4807315D01A4B029300231846CDE9A4
:103C10000033104901220CF0D6F81B200E4A936A9B
:103C200043F47F4393620023337005B0F0BD162048
:103C3000A2E7926A9204F1D50E4A06490093CDE9B3
:103C40000132184601220CF0BEF81C20E6E700BF46
:103C5000BF3C01000032010000ED00E0D53C010056
:103C6000E63C0100F93C0100123D0100273D010046
:103C7000423D01005A3D01001FB50024374B02931D
:103C800001222346CDE90044354920460CF09BF83B
:103C9000344B9B6A9A015ED5334B31490094CDE990
:103CA00001432046234601220CF08DF81E202D4BA7
:103CB0009B6ADB010AD52D4B029300231846CDE900
:103CC0000033274901220CF07EF81F20254B9B6A08
:103CD0001C030AD5264B029300231846CDE9003376
:103CE0001F4901220CF06FF821201E4B9B6A5903DB
:103CF0000AD5204B029300231846CDE9003318491A
:103D000001220CF060F82220164B9B6A9A030AD518
:103D1000194B029300231846CDE9003310490122C4
:103D20000CF051F823200F4B9B6ADB030AD5134B91
:103D3000029300231846CDE90033094901220CF013
:103D400042F82420074A936A6FEA03436FEA134359
:103D5000936204B010BD1D20A9E700BF893D01009A
:103D60000032010000ED00E0A13D0100B43D010082
:103D7000CE3D0100EC3D0100113E01002B3E010053
:103D80002DE9F04385B000244D4B0293CDE900446A
:103D900023468046894616464A49012220460CF0B1
:103DA00012F8494B9B6ADF0640D5484B0094CDE999
:103DB000014320462346434901220CF004F8112414
:103DC000414B9B6A1D070AD5414B02930023CDE965
:103DD00000333C49012218460BF0F5FF12243A4DFE
:103DE000AB6A980724D500243A4B36490293CDE9B3
:103DF00000442346012220460BF0E5FF6F6BAB6ABF
:103E0000190659D5344B2F490397CDE90143009446
:103E10002346012220460BF0D6FFB9F1000F03D054
:103E2000AB6A23F08003AB62132403E01024C7E7DE
:103E30006FF01507244B9B6ADA070AD5274B0293CC
:103E40000023CDE900331F49012218460BF0BBFFC8
:103E500014241D4B9B6A9B060AD5214B0293002319
:103E6000CDE900331749012218460BF0ACFF1524A9
:103E7000154B9A6AD50602D49A6A90070AD55B68F0
:103E8000190507D54146384600F044FB10B180F3D0
:103E9000098802240C4B9A6A920642BF5A6A22F49D
:103EA00000525A629A6A42F0FF029A622046002348
:103EB000337005B0BDE8F0836FF01507B4E700BFBD
:103EC000563E01000032010000ED00E06C3E0100B2
:103ED000E63C01009F3E0100B73E0100CD3E0100DF
:103EE0005A3D01002DE9F041724B5F68A2B00546D2
:103EF000C7F30804002383F31188BFF36F8F02F028
:103F00007F40B0F17F4F0CD102F00C00082819D18E
:103F1000694A6A490093CDE90132184601220BF043
:103F200052FF002635464FF00008E31E8DF81F8033
:103F3000092B00F2A580DFE803F00B999D96A3A35F
:103F4000A3A3A3A1120746BF0D461E460126EAE71A
:103F50005B4B5A49574FCDF80080CDE901830023D0
:103F6000012218460BF02FFF8DF81F80FC6A14F019
:103F7000020405D0534BCDF80080CDE9018306E063
:103F8000FB6A002B0BDA504B0094CDE90143002370
:103F90004A49012218460BF016FF00243BE0FB6A59
:103FA0005B00FAD5494B45490094CDE90143012214
:103FB000234620460BF007FF7B69AA6943F4807310
:103FC0007B61BFF34F8FBFF36F8F7B6932F8022C99
:103FD00023F480737B61BFF34F8FBFF36F8F4DF678
:103FE00002739A420AD0BB6ADBB273B30DF11F02AF
:103FF00001212846FFF7C4FE04460CE02B6803931A
:10400000334B0094CDE90143204623462B4901223E
:104010000BF0D9FE2C689DF81F309BB96822294609
:1040200008A80EF09EFA0F9B002E3DD0C3F30802A5
:1040300022B96FEA53236FEA43230F9308A920465E
:10404000FFF7CCFC22B0BDE8F081BB6A13F47F4FD0
:1040500005D00DF11F010120FFF770FDCCE7BB6A11
:10406000B3F5803F99D3FFF707FEC5E70DF11F02B7
:104070000021BEE70DF11F010020EDE7154B7AE7A7
:10408000154A164B0D4917F4F87F18BF1346103C1C
:10409000CDE90334124B02930023CDE90033012212
:1040A00018460BF090FE78E723F4FF7323F001032A
:1040B000C3E700BF00ED00E01A3F0100003201003D
:1040C000453F01005C3F01007D3F01008B3F010047
:1040D000AA3F0100C63F0100013F0100EC3E010084
:1040E000EA3F0100044B5A6942F010025A615A69D2
:1040F00022F008025A61704700ED00E0EFF30880FB
:10410000EFF3098101B57246FFF7ECFE01BD00BF78
:10411000002080F31488BFF36F8F03F0E1FF0020CD
:1041200011490860BFF34F8F104880F3088800F0F2
:1041300045F8202080F311880D484FF0AA014FF474
:1041400088620DF088FF0A484FF48861401880F3B8
:104150000988EFF314800221084380F31488BFF329
:104160006F8F00F041F9000094ED00E00030002076
:10417000001A0020BFF34F8F0549064BCA6802F4AE
:10418000E0621343CB60BFF34F8F00BFFDE700BF7A
:1041900000ED00E00400FA050749D1F89020002363
:1041A000C2F307221846934200DB7047C1F89830EB
:1041B000C1F8A0000133F6E700ED00E008B572B6E3
:1041C000002383F31388FFF7E7FF144B4FF0FF3210
:1041D000C3F88020C3F88420C3F88820C3F88C205B
:1041E000C3F89020C3F89420C3F89820C3F89C200B
:1041F000C3F88021C3F88421C3F88821C3F88C2137
:10420000C3F89021C3F89421C3F89821C3F89C21E6
:1042100062B6BFF34F8FBFF36F8F08BD00E100E0C0
:10422000084B9B6883420BD1EFF3058343B1064BE8
:104230005A6842F080525A605A6A22F400425A6226
:104240000EF0E1B8A017002000ED00E0094A9368E5
:104250006FF00A019967084958674B6843F080532B
:104260004B60002383F31188BFF36F8F9368986FBF
:10427000704700BFA017002000ED00E010B5114A04
:104280009168034681F8BD00EFF31181202181F38D
:104290001288BFF36F8F906990600B4A4FF00061F6
:1042A000516090F8BD4023F0FF0300221C43436F90
:1042B000426783F31188BFF36F8F00F0C5F9204682
:1042C00010BD00BFA017002000ED00E019498A686A
:1042D00082F8BDE04FF030001044EFF3098C80E825
:1042E000F01F1EF0100F03D102F17C0080EC108A49
:1042F00074467046FFF7C2FFA6460E498A68864696
:104300001EF0100F03D00023E1EE103A03E002F19B
:104310007C0090EC108AEFF3148323F0040383F302
:104320001488BFF36F8F02F1300090E8F01F8CF318
:1043300009887047A01700201EF0040F0CBFEFF390
:104340000880EFF30980816911F8021C0229FFD06F
:1043500001B50BF02DFD01BD40B2002807DB044A7A
:104360004109012300F01F00834042F821307047CB
:1043700000E100E040B200280CDB4309064900F0F0
:104380001F0020330122824041F82320BFF34F8FCA
:10439000BFF36F8F704700BF00E100E0054B42099B
:1043A00000F01F0053F82220012303FA00F0104010
:1043B000704700BF00E100E040B20028A8BF00F154
:1043C000604001F10101B8BF064B4FEA4111ACBF9B
:1043D00000F5614000F00F00C9B2B4BF195480F875
:1043E0000013704714ED00E0144A08B5144B22F096
:1043F0007F029A60BFF34F8FBFF36F8FD3F888208F
:1044000022F47002C3F88820D3F8882042F4A00276
:10441000C3F888204FF04042C3F83422BFF34F8FD7
:10442000BFF36F8F0023E1EE103A08F09DF908F01A
:1044300043FF00F0DFF808F0DBF900BF00000000E8
:1044400000ED00E0017B890705D5416E40314166F2
:10445000816E4039816642F8203C009B42F81C3C4A
:104460000F49019B42F8183C029B42F8143C21F092
:1044700001014FF0807342F8043C42F8081C00230D
:104480004367037B13F0020FA2F120024FF608539B
:1044900008BF4FF47D430265C0F8BC30704700BFD1
:1044A0001BF90000037B13F0020F194B03D190F8A6
:1044B000BD20D20617D45A6B42F080425A63D0F81E
:1044C000BC30190709D443F00803C0F8BC30436E70
:1044D00040334366836E403B8366037B43F00203B5
:1044E0000373802070475A6B22F080425A63D0F8E1
:1044F000BC301A0701D44020704723F00803C0F8ED
:10450000BC30436E403B4366836E40338366F2E7C4
:1045100000EF00E00C4A03469068A0B1D0F8BC2040
:10452000406E12F0080F0CBF4022802213F1160FCC
:1045300004D0821A9A4205D8834203D2814228BF0E
:104540000020704700207047A0170020104B9B6888
:1045500083421AD1EFF30580B8B9EFF3118120221D
:1045600082F31288BFF36F8F1A7B22F002021A7354
:10457000EFF3148323F0040383F31488BFF36F8FE6
:1045800081F31188BFF36F8F70476FF0150070478C
:10459000A017002008B515460E460022E1EE102AAD
:1045A000EFF3148222F0040282F31488BFF36F8FBA
:1045B000BFF36F8F094A906000F046F82C4686F3EF
:1045C00009884FF00000064B984720464FF0000145
:1045D0004FF000024FF00003024C2047A0170020CC
:1045E000EFFD00001BF90000014B10221A6170471B
:1045F00000ED00E0044800232021C2180133302BD5
:1046000082F80013F9D1704700E100E008B5EFF33C
:104610000583064A103B02EBC30152F83300496898
:104620008847BDE80840FFF775BA00BF2830010091
:10463000024B034A0348012100F09CB8000004200B
:10464000000000202C34010010B50446FFF72AFFBB
:10465000626E03460548D21AC0E90023044B83600A
:10466000BDE81040012100F08FB800BF68150020A0
:1046700000000B151FB5144AD2F89030C3F307237E
:10468000013B98420FD9114B029300230390CDE9CF
:10469000003318460E4901220BF0DCFB6FF01500C9
:1046A00005B05DF804FBC2F898000B6823F01F0307
:1046B000034343F01003C2F89C308B6843F00103BE
:1046C000C2F8A030ECE700BF00ED00E001400100BF
:1046D000F8310100F0B50E4689B01F4604460025AA
:1046E000B54212DA606838B3BFB1431E18420FD02A
:1046F000134B02930023CDE90033124903950122A5
:1047000018460BF0A7FB6FF01502104609B0F0BD7C
:104710001F28EDD921680B42EAD1236805930BF0DD
:1047200089FBA36805A90343D0B20793FFF7A2FF53
:1047300010F1160FE7D0421C01350C34D0E700BF52
:1047400027400100F8310100044B0522C3F89420F2
:10475000BFF34F8FBFF36F8F704700BF00ED00E0D6
:10476000BFF35F8F024B0022C3F89420704700BF55
:1047700000ED00E010B5034C01232278FFF7AAFFFB
:10478000207010BDC019002008B50B4A0023127814
:10479000FFF7A0FF10F1160F07D0084A0021D2F84A
:1047A0009030C3F30723984200DB08BDC2F898009D
:1047B000C2F8A0100130F2E7C019002000ED00E0BF
:1047C0002DE9F04357485849D0F890300D68C3F3AD
:1047D00007239D4285B000F2A180FFF7C1FF496821
:1047E0000022954201F10C011AD1504C504F257016
:1047F0006846FEF7CBFFDFF83C81DFF83C910646C8
:104800000025AE421FD1237846490020D1F89020E0
:10481000C2F3072293427BDBFFF796FF00204CE0B8
:10482000C0F8982051F80C3C23F01F03134343F0C9
:104830001003C0F89C3051F8043C43F00103C0F869
:10484000A0300132CDE7009800EB05114FEA051CBE
:10485000CB683B40B3F5000F44D00AD8B3F5001F36
:104860002ED0B3F5800F34D0B3F5801F10D00135B2
:10487000C7E7B3F1807F3ED0B3F1007FF7D150F8A6
:104880000C3088684A680BF0D5FA40F4802009E0C3
:1048900050F80C3088684A680BF0CCFA40F0885029
:1048A00040F43020039001A92078CDE90123FFF7DF
:1048B000E1FE002828DA6FF0150005B0BDE8F083AE
:1048C00050F80C3088684A680BF0B4FA40EA0800E7
:1048D000E8E750F80C3088684A680BF0ABFA40EA19
:1048E0000900DFE750F80C3088684A680BF0A2FA3C
:1048F00040F08270D6E750F80C3088684A680BF0B8
:1049000099FA40F08870CDE7237801332370AEE741
:10491000C1F89830C1F8A000013377E74FF0FF30BD
:10492000CBE700BF00ED00E038340100C0190020E3
:104930000000F0FF0000081100000202014B1860A7
:10494000704700BFC8060020F8B5084F06460D4660
:104950000024AC4208DA3B6898470A28305504F135
:10496000010401D00D28F4D12046F8BDC406002072
:10497000F8B50A4F0D46461EC0F10104A3199D4229
:1049800001DC2846F8BD73780A2B02D13B680D2064
:1049900098473B6816F8010F9847EFE7C8060020D4
:1049A00010B5074C2368C2180648C0F1005101F544
:1049B00080218A423ABF2260C0184FF0FF3010BDFC
:1049C000741500206074002008B505480AF098FFAF
:1049D000002383F31188BFF36F8F0423184602DF8F
:1049E000594001000E4A0123C2F840354FF0804281
:1049F0004FF08051C2F87835D1F83001082808D13D
:104A0000D1F83411052904D80648415C09B1C2F82F
:104A100038364FF080430122C3F8802500207047CC
:104A200000E001406240010020B1034B800143F0EF
:104A300001031847704700BF60320100084B5968F6
:104A4000024611B11968884207D0D86830B1996818
:104A500004488A4218BF002070471846704700BFBC
:104A6000781500208015002002460B46014807F00B
:104A700083BF00BF9C0C0020014807F0F5BF00BFBA
:104A80009C0C00202DE9F74F824608460F469046C1
:104A9000FCF73EF84FF0FF3183464FF0FF30FFF751
:104AA000E3FF1B4B1C684FF000099C4208BF002429
:104AB0005B684E465CB9FFF7DFFF36B3CAF80060AB
:104AC000B8F1000F1DD1002003B0BDE8F08FA5693B
:104AD000A94512D8AB4510D3012D03D97A5D2F2AF1
:104AE00000D052B9E16801932A4638460DF09FFE86
:104AF000019B002804BFA94626469C42DBD02468BF
:104B0000D8E7B369C8F80030DDE76FF00100DBE7F4
:104B1000CC0600202DE9F043054687B016460F4627
:104B200039B10846FBF7F4FF012802D93B782F2B57
:104B30000FD0424B02930023CDE9003340490122BC
:104B400018460BF0C7F96FF01504204607B0BDE812
:104B5000F083D5F80480B8F1000F69D14246394698
:104B600005A8FFF78FFF041E0BDA364B3449CDF84A
:104B70000080CDE901830122434640460BF0AAF9AB
:104B8000E3E7DDF8148098F820309B0702D516F093
:104B9000120F50D1D8F81C201368E3B116F0400969
:104BA0001ED016F002030BD1274A25490093CDE908
:104BB0000132184601220BF08DF96FF00C04C4E7A6
:104BC00053695BB9214A1E490093CDE90132184669
:104BD00001220BF07FF96FF08504B6E74FF0010971
:104BE000C5F80480D8F81C3032461B683946284680
:104BF0009847041E0DDA164B039400260293CDE964
:104C000000660F493346012230460BF063F96E60AF
:104C10009BE72E72B9F1000F97D0D8F81C30002115
:104C20005B6928469847041E8FDA0A4B0394E4E731
:104C30006FF00F0489E76FF01D0486E76C400100F8
:104C4000D03101008040010098400100C6400100C1
:104C5000E6400100FB40010030B5446885B00546E0
:104C60008CB1E369DB699BB19847041E4FF00003E8
:104C70000CDA094A09490394CDE901320093012273
:104C800018460BF027F9204605B030BD6B60FAE7F7
:104C90006FF08504F7E700BF17410100D031010034
:104CA0001FB543689BB1DB695B689BB19847041EE5
:104CB0000ADA0A4B02930023CDE900330849039432
:104CC000012218460BF006F9204604B010BD6FF023
:104CD0000804F9E76FF08504F6E700BF2D410100F5
:104CE000D03101001FB543689BB1DB699B689BB164
:104CF0009847041E0ADA0A4B02930023CDE90033D9
:104D000008490394012218460BF0E4F8204604B049
:104D100010BD6FF00804F9E76FF08504F6E700BFF7
:104D200042410100D0310100F0B5064687B00F4680
:104D300011B10B782F2B0ED02E4B02930023CDE90F
:104D400000332D49012218460BF0C4F86FF015040A
:104D5000204607B0F0BD4368002B45D10568002D03
:104D600042D126493846FBF7C9FE044680B94FF0C8
:104D7000FF304FF0FF31FFF777FE214A7460136870
:104D8000934214BF1D4625463560FFF775FEDFE7E9
:104D90002A46394605A8FFF775FE041E0ADA194BA4
:104DA00015490095CDE9015301222B4628460BF009
:104DB00091F8CDE7059BDA69126AC2B17360DB69CD
:104DC00039461B6A30469847041EC1DA0E4B0A4921
:104DD000C6E900550122CDE90153039400952B4605
:104DE00028460BF077F8B3E76FF00F04B0E76FF0E9
:104DF0008504ADE758410100D0310100B73A010008
:104E0000CC06002080400100714101002DE9F043F3
:104E1000476885B006460D46002F31D0FB695B6AB6
:104E2000002B65D0DFF8D890DFF8D8804F1C73686E
:104E3000DB6929465B6A30469847041E14DB6B78B1
:104E400073B12B78012B0BD149463846FBF756FE40
:104E50000028ECD041463846FBF750FE0028E6D04B
:104E6000204605B0BDE8F083234B02930023CDE933
:104E7000003322490394012218460BF02BF8EFE788
:104E8000036813B94B700024EAE7DFF87C804FF029
:104E9000FF304FF0FF31FFF7E7FDD8F80040D8F8BA
:104EA0000430444508BF002424B9FFF7E5FD6FF046
:104EB0000104D5E73268A24216D12846012300F842
:104EC000013BE168FF2219440DF0C3FC002385F883
:104ED0000031C5F80431D8F804309C4218BF276867
:104EE000FFF7CAFD3760CEE79C42DED02468DBE7DF
:104EF0006FF08504B4E700BF8B410100D0310100A1
:104F00007339010072390100CC06002030B54468C5
:104F100085B005461CB90460204605B030BDE36984
:104F20009B6A93B19847041E4FF000030ADA084ABF
:104F300008490394CDE901320093012218460AF092
:104F4000C9FFE9E7C5E90033E6E76FF08504E3E769
:104F5000A5410100D031010070B5064686B030B1E0
:104F6000FBF7D6FD012802D933782F2B0ED0204B2A
:104F700002930023CDE900331E49012218460AF0AE
:104F8000A9FF6FF01504204606B070BD002231461F
:104F900005A8FFF777FD041E0ADA174B02930023DA
:104FA000CDE900331349012218460AF093FFEAE7DE
:104FB000059890F8205015F0020512D1C369DB6BFB
:104FC00093B131469847041EDDDA0C4B094903942E
:104FD000CDE9015300952B46012228460AF07AFFBD
:104FE000D1E76FF01D04CEE76FF08504CBE700BF7B
:104FF00058410100D031010080400100C041010052
:105000002DE9FF41044608B1C66866B9574B0293C3
:105010000023CDE900335649012218460AF05AFF11
:105020006FF015050DE005687DB1524B029300232A
:10503000CDE900334E49012218460AF04BFF6FF0CC
:105040000F05284604B0BDE8F0813046FBF760FD4F
:105050000128074602D933782F2B01D0464BD6E7DB
:10506000464E4FF0FF304FF0FF31FFF7FDFC336845
:10507000D6F80480B34218BF1D46B5B9A5682846C6
:10508000FFF7DCFC20B1D0F80480B8F1000F34D178
:105090003B4B02930023CDE90033354901221846EA
:1050A0000AF018FF6FF0010512E0AB69BB4220D196
:1050B00022692B699A420ED12E4B02930023CDE92F
:1050C00000332B49012218460AF004FF6FF00F0548
:1050D000FFF7D2FCB5E7E968E0683A460DF0A7FBB8
:1050E000034630B9274A22490090CDE90102012246
:1050F000EAE74545C2D02D68BFE7D8F82C3063B940
:10510000214A0395CDE9013219490093012218463D
:105110000AF0E0FE6FF08505DAE7D8F8303053B9D1
:10512000E2680392194A12490093CDE90132184608
:1051300002220AF0CFFED8F82C3020469847051EF0
:105140000BDA134B02930023CDE900330849039592
:10515000012218460AF0BEFEBAE77368C4E9067871
:10516000C4E900631C607460B2E700BFE041010065
:10517000D0310100FE4101001C420100CC0600209C
:105180004F420100324201007B420100A042010077
:10519000C142010038B504460D464FF0FF304FF0D4
:1051A000FF31FFF761FC2046FFF748FC08B1436878
:1051B0007BB90B4B5A6812B1DA686AB9012243F81D
:1051C000324003EBC20300245D60FFF755FC20462C
:1051D00038BD6FF07704F8E76FF01B04F5E700BF08
:1051E0007815002038B131B18B691844024B027830
:1051F000002A08BF18467047B73A0100014901204C
:10520000FFF7C8BF5834010010B503685A6D044653
:105210001AB1196E04480CF077FF216803480CF0AE
:10522000B7FF0023236010BD380C0020EC0B0020DA
:10523000002807DA5430522802D8034B185670471A
:105240006FF00400704700BFA0440100002805DA99
:105250005A30582804D8044B18567047002070471D
:105260006FF00400704700BF474401002DE9F04F84
:1052700002238BB0164601270922CDE90332CDE97E
:1052800005375F4B029304460023CDE900331846EF
:105290000D4603225B490AF06AFED4F8FC30002B6D
:1052A00040F0A88032070ED5574A56490396CDE9FB
:1052B0000132184600933A460AF059FE6FF0850015
:1052C0000BB0BDE8F08F04F1FC01E8B2FEF764FA20
:1052D000002802DBD4F8FC0068B94C4B0293002391
:1052E000CDE9003347490395012218460AF03FFEF5
:1052F0006FF01200E4E70AF031FD034600286AD09F
:10530000D4F814A0D4F81890E569D4F8FC00BAF1E8
:10531000000F08BF4FF0100AB9F1000F08BF4FF09F
:10532000100955B9CDE908050AF018FD384908AA51
:105330000BF008FA099D002D5FD0666A002E56D04A
:1053400001DC4FF0FF36D4F82880E76AD4F8FC007F
:10535000B8F1000F08BF4FF04008002F08BF20270A
:105360008368B3FBF5FB0AF0F9FCCDE90656CDF8EE
:1053700014B0D4F8FC3023495B68049303680393AA
:105380000020244B0293CDE90000034603220AF0DB
:10539000EEFD0020204B0293CDE900000346CDE94D
:1053A0000587CDE903A9174903220AF0E0FDD4F8E7
:1053B000FC302360194B6360194BA360194BE36009
:1053C000194B2361C4E905A9C4E90A87C4E9075B4D
:1053D0006662002074E7D4F8FC200A49D26812689B
:1053E0000392124A0090CDE901023A467EE74FF45B
:1053F0000076A8E76FF00F0062E76FF015005FE737
:10540000D5420100D8310100004301003D430100B5
:10541000F7FE000071430100A443010053FF0000A8
:1054200037FF000023FF0000F3FE00005643010099
:105430002DE9F743436804461E6988461546014630
:1054400000222448002307F069FA014600283ED1D3
:105450002768642238460DF0ACF8D6F8E4101E48F0
:10546000896A002200230CF045FE386660B3B94615
:1054700049F8540F40466168FFF7B4FE8046304655
:105480000AF084FD2901AB0103F4006301F480718B
:10549000194305F003030B4342463946CDF800900B
:1054A00006F17C000CF091FC054606F580700AF0D0
:1054B00075FD002D02DA2046FFF7A6FE284603B050
:1054C000BDE8F043FFF7B4BE6FF00B05F3E703B0A0
:1054D000BDE8F083EC0B0020380C002070B5436869
:1054E00004461E690D46002201460023144807F0B9
:1054F00015FA014608BB342220680DF05AF861689D
:105500002846FFF76FFE054630460AF03FFD2A4663
:10551000216806F17C0006F0B9FE054606F58070AC
:105520000AF03CFD002D03DA216805480CF030FE3E
:105530002846BDE87040FFF77BBE6FF00B0070BDE2
:10554000080C002070B543681E69044630460AF016
:105550001DFD216806F17C000CF0D9FC054606F51E
:1055600080700AF01BFD216803480CF011FE2846EC
:10557000BDE87040FFF75CBE080C00207FB50669EF
:10558000054630460AF002FD06F17C000CF006FCF0
:1055900095F820301B0703D4D6F8FC000AF09EFBD8
:1055A000002406F58070C6F8FC400AF0F7FCEB68B2
:1055B0000393064B06490094CDE901432046234658
:1055C00003220AF0D4FC204604B070BDC943010098
:1055D000D83101002DE9F043066985B0074606F58C
:1055E000807840460CF00CFE30460AF0CFFC97F86D
:1055F000202079693046FFF739FE041E43DB06F1AF
:105600007C093146484606F0C5FA002824DA97F8A6
:10561000205015F001031FD115F0020528D1274BAA
:1056200027490390CDE9015302222B4628460095D5
:105630000AF09DFC3146484606F048FA041E26DA78
:10564000204B0394CDE9015328461D4900952B4674
:1056500001220AF08CFC2046FFF7EAFD00280446F0
:1056600011DB40460AF09AFC204605B0BDE8F08305
:10567000154A13490093CDE90132184601220AF078
:1056800076FC6FF01D040023C6F8FC30E9E73146D4
:10569000484606F07FFA041E02DA0C4B0394D1E769
:1056A000FB6803930A4B06490095CDE90153032299
:1056B0002B4628460AF05BFCD3E700BFD643010027
:1056C000D831010025440100F743010017440100CF
:1056D0003C4401002DE9FF411C4B002914BF0D463D
:1056E0001D46002604469046C5F8FC6005F5807707
:1056F00038460CF085FD28460AF048FC2146424613
:105700002846FFF7B3FD041E15DB294605F17C0092
:1057100006F0DCF9041E0EDA0D4B0394CDE90163AB
:10572000304633460B49009601220AF020FC204601
:10573000FFF77EFD044600233846C5F8FC300AF02A
:105740002DFC204604B0BDE8F08100BFD406002047
:1057500025440100D8310100054B0122C3F8002582
:1057600090F8761009B1DA6070471A605A60704795
:10577000007000402DE9FF410F798E7907F01F007E
:10578000072825D80D780B2D18D8DFE805F0070776
:105790000707170617171113171504254B78032B46
:1057A0001BD0042B4FF0000318D0484A029208E0A7
:1057B0000525F3E70625F1E70725EFE7444B0293BC
:1057C0000023CDE900334349012218460AF073FD56
:1057D0006FF0150004B0BDE8F08101234A8844F25F
:1057E0000A04A2425ED843F6FE74A24203D8002AFD
:1057F00066D0394BE3E7A2F57F523F3A0B2AF8D83F
:1058000001A454F822F000BFC9580000F35700006B
:10581000F3570000F357000039580000F357000019
:10582000A1580000F3570000F3570000F3570000A1
:10583000F3570000C15800000024284A4FF0010827
:1058400092F898C008FA00FE17F020075FFA8EFE63
:1058500014BF2CEA0E0C4CEA0E0C82F898C00244DD
:10586000497982F890104FEA03324FEA001342EA76
:10587000052203F1804303F5E04318BF474642EA9F
:10588000044242EA0752C3F81825030103F180439A
:1058900003F5E0430020C3F81005C3F8146599E749
:1058A0000124CAE744F21404A2420BD044F22804B3
:1058B000A24209D044F20F04A2429AD10324BCE7C9
:1058C0000224BAE70424B8E70524B6E71B45010023
:1058D000FC440100A83101003F450100C004002044
:1058E000F0B50D4687B04FF0FF3375484FF0FF32EB
:1058F00007F01AF96E68731EFE2B4FF0000309D9EA
:10590000704A0292CDE900336F49012218460AF02D
:10591000D2FC14E06D4C6E4F1A46184626FA02F37C
:1059200013F0010339D0BB5C8BB90392694A029230
:10593000CDE900336449012218460AF0BCFC6FF03F
:1059400015045F4807F0CCF8204607B0F0BD04EB23
:10595000021E95F811C0DEF81815BCF1000C18BF36
:105960004FF0010C21F0807141EA0C61CEF818155E
:1059700002F15101090101306350C0B20132082A1D
:10598000CCD12A7CA2F108010023062920D8DFE827
:1059900001F0261F281F111F1D0004EB021CDCF85C
:1059A000181521F08071CCF8181502F15101090188
:1059B0006350E3E70223454A0128C2F8F0356B7CC7
:1059C00011D993B1444B029300239BE70323F2E7E1
:1059D0000392424A0093CDE901320023AAE7002353
:1059E000E9E70123E7E7082B16D8C2F8F4352A685F
:1059F0004300B2B9EA689A4217D2CDE90323384B83
:105A000002930023CDE900332F49012218460AF002
:105A100052FC6FF00B0494E70393324B0293002384
:105A200086E7928902FB0333E4E7284BAA68C3F8B0
:105A30002C262F46C3F830060FCF2B4C04F16406FA
:105A40000FC63B683360002626662B68274693B353
:105A50000FCB04F1780585E80F006566A4F888602F
:105A600048B3BFF35B8F57E8003F47E80062002A66
:105A7000F9D1BFF35B8F1D49A56F1D4A4FF400405C
:105A80000F463146E5FB007100233846FBF71CF852
:105A90000022CDE90001002304F1080007F0D6FD43
:105AA00014484FF0FF324FF0FF3307F03DF800B1DC
:105AB0002066246E45E70C48FFF74EFEF0E700BF76
:105AC000000500206A450100A83101000070004077
:105AD0005005002088450100C7450100A24501008E
