:1000000000300020353F000039F50000213F00009E
:10001000213F0000213F0000213F000000000000C0
:100020000000000000000000000000005D41000032
:10003000213F000000000000F1400000213F0000CF
:1000400031440000314400003144000031440000DC
:1000500031440000314400003144000031440000CC
:1000600031440000314400003144000031440000BC
:1000700031440000314400003144000031440000AC
:10008000314400003144000031440000314400009C
:10009000314400003144000031440000314400008C
:1000A000314400003144000031440000314400007C
:1000B000314400003144000031440000314400006C
:1000C000314400003144000031440000314400005C
:1000D000314400003144000031440000314400004C
:1000E000314400003144000031440000314400003C
:1000F000314400003144000031440000314400002C
:1001000001F0FF01102A2BDB10F0070F08D010F8C8
:10011000013B013A8B422DD010F0070F42B3F6D1CC
:10012000F0B441EA012141EA014122F007047FF0E5
:1001300000070023F0E80256083C85EA010586EA3C
:10014000010685FA47F5A3FA87F586FA47F6A5FA78
:1001500087F68EB9EED1F0BC01F0FF0102F0070284
:1001600032B110F8013B013A83EA010313B1F8D12F
:100170000020704701387047002D06BF3546033810
:10018000073815F0010F07D1013015F4807F02BF49
:10019000013015F4C03F0130F0BC0138704700BF9A
:1001A00081F0004102E000BF83F0004330B54FEA28
:1001B00041044FEA430594EA050F08BF90EA020F95
:1001C0001FBF54EA000C55EA020C7FEA645C7FEA28
:1001D000655C00F0E2804FEA5454D4EB5555B8BF4B
:1001E0006D420CDD2C4480EA020281EA030382EABC
:1001F000000083EA010180EA020281EA0303362D4E
:1002000088BF30BD11F0004F4FEA01314FF4801C20
:100210004CEA113102D0404261EB410113F0004F32
:100220004FEA03334CEA133302D0524263EB4303E9
:1002300094EA050F00F0A780A4F10104D5F1200E87
:100240000DDB02FA0EFC22FA05F2801841F10001E2
:1002500003FA0EF2801843FA05F359410EE0A5F1B6
:1002600020050EF1200E012A03FA0EFC28BF4CF0E7
:10027000020C43FA05F3C01851EBE37101F000459D
:1002800007D54FF0000EDCF1000C7EEB00006EEBAA
:100290000101B1F5801F1BD3B1F5001F0CD3490834
:1002A0005FEA30004FEA3C0C04F101044FEA44528B
:1002B00012F5800F80F09A80BCF1004F08BF5FEA12
:1002C000500C50F1000041EB045141EA050130BDF2
:1002D0005FEA4C0C404141EB0101013C28BFB1F504
:1002E000801FE9D291F0000F04BF01460020B1FA4F
:1002F00081F308BF2033A3F10B03B3F120020CDA22
:100300000C3208DD02F1140CC2F10C0201FA0CF0FF
:1003100021FA02F10CE002F11402D8BFC2F1200C64
:1003200001FA02F120FA0CFCDCBF41EA0C0190401A
:10033000E41AA2BF01EB0451294330BD6FEA040463
:100340001F3C1CDA0C340EDC04F11404C4F120024E
:1003500020FA04F001FA02F340EA030021FA04F360
:1003600045EA030130BDC4F10C04C4F1200220FAB7
:1003700002F001FA04F340EA0300294630BD21FAF5
:1003800004F0294630BD94F0000F83F4801306BFBB
:1003900081F480110134013D4EE77FEA645C18BFAF
:1003A0007FEA655C29D094EA050F08BF90EA020F46
:1003B00005D054EA000C04BF1946104630BD91EA3E
:1003C000030F1EBF0021002030BD5FEA545C05D141
:1003D0004000494128BF41F0004130BD14F5800480
:1003E0003CBF01F5801130BD01F0004545F0FE41F4
:1003F00041F470014FF0000030BD7FEA645C1ABF29
:10040000194610467FEA655C1CBF0B46024650EA5F
:10041000013406BF52EA033591EA030F41F400218B
:1004200030BD00BF90F0000F04BF0021704730B511
:100430004FF4806404F132044FF000054FF00001E6
:1004400050E700BF90F0000F04BF0021704730B5A7
:100450004FF4806404F1320410F0004548BF40427C
:100460004FF000013EE700BF42004FEAE2014FEAD1
:1004700031014FEA02701FBF12F07F4393F07F4FAC
:1004800081F06051704732F07F4208BF704793F0AF
:100490007F4F04BF41F40021704730B54FF46074C2
:1004A00001F0004521F000411CE700BF50EA0102C5
:1004B00008BF704730B54FF000050AE050EA01026E
:1004C00008BF704730B511F0004502D5404261EBDE
:1004D00041014FF4806404F132045FEA915C3FF41F
:1004E000D8AE4FF003025FEADC0C18BF03325FEABC
:1004F000DC0C18BF033202EBDC02C2F1200300FA6D
:1005000003FC20FA02F001FA03FE40EA0E0021FA91
:1005100002F11444BDE600BF70B54FF0FF0C4CF47F
:10052000E06C1CEA11541DBF1CEA135594EA0C0F31
:1005300095EA0C0F00F0DEF82C4481EA030621EA6C
:100540004C5123EA4C5350EA013518BF52EA0335A7
:1005500041F4801143F4801338D0A0FB02CE4FF059
:100560000005E1FB02E506F00042E0FB03E54FF089
:100570000006E1FB03569CF0000F18BF4EF0010E81
:10058000A4F1FF04B6F5007F64F5407404D25FEA7D
:100590004E0E6D4146EB060642EAC62141EA555130
:1005A0004FEAC52040EA5E504FEACE2EB4F1FD0C72
:1005B00088BFBCF5E06F1ED8BEF1004F08BF5FEAF0
:1005C000500E50F1000041EB045170BD06F00046A2
:1005D00046EA010140EA020081EA0301B4EB5C044F
:1005E000C2BFD4EB0C0541EA045170BD41F4801147
:1005F0004FF0000E013C00F3AB8014F1360FDEBF6C
:10060000002001F0004170BDC4F10004203C35DA47
:100610000C341BDC04F11404C4F1200500FA05F3CA
:1006200020FA04F001FA05F240EA020001F000426B
:1006300021F0004110EBD37021FA04F642EB0601E1
:100640005EEA430E08BF20EAD37070BDC4F10C040B
:10065000C4F1200500FA04F320FA05F001FA04F2CF
:1006600040EA020001F0004110EBD37041F10001BB
:100670005EEA430E08BF20EAD37070BDC4F12005C6
:1006800000FA05F24EEA020E20FA04F301FA05F22E
:1006900043EA020321FA04F001F0004121FA04F2D6
:1006A00020EA020000EBD3705EEA430E08BF20EAA6
:1006B000D37070BD94F0000F0FD101F000464000E0
:1006C00041EB010111F4801F08BF013CF7D041EA62
:1006D000060195F0000F18BF704703F00046520066
:1006E00043EB030313F4801F08BF013DF7D043EA37
:1006F0000603704794EA0C0F0CEA135518BF95EAED
:100700000C0F0CD050EA410618BF52EA4306D1D173
:1007100081EA030101F000414FF0000070BD50EA92
:10072000410606BF1046194652EA430619D094EA1C
:100730000C0F02D150EA013613D195EA0C0F05D106
:1007400052EA03361CBF104619460AD181EA03015A
:1007500001F0004141F0FE4141F470014FF0000012
:1007600070BD41F0FE4141F4780170BD70B54FF0AD
:10077000FF0C4CF4E06C1CEA11541DBF1CEA13552D
:1007800094EA0C0F95EA0C0F00F0A7F8A4EB05040F
:1007900081EA030E52EA03354FEA013100F0888006
:1007A0004FEA03334FF0805545EA131343EA1263CF
:1007B0004FEA022245EA111545EA10654FEA002684
:1007C0000EF000419D4208BF964244F1FD0404F53D
:1007D000407402D25B084FEA3202B61A65EB030599
:1007E0005B084FEA32024FF480104FF4002CB6EB56
:1007F000020E75EB030E22BFB61A754640EA0C00D6
:100800005B084FEA3202B6EB020E75EB030E22BF15
:10081000B61A754640EA5C005B084FEA3202B6EB56
:10082000020E75EB030E22BFB61A754640EA9C0015
:100830005B084FEA3202B6EB020E75EB030E22BFE5
:10084000B61A754640EADC0055EA060E18D04FEAA3
:10085000051545EA16754FEA06164FEAC30343EA43
:1008600052734FEAC2025FEA1C1CC0D111F4801F10
:100870000BD141EA00014FF000004FF0004CB6E709
:1008800011F4801F04BF01430020B4F1FD0C88BFA8
:10089000BCF5E06F3FF6AFAEB5EB030C04BFB6EBB3
:1008A000020C5FEA500C50F1000041EB045170BDA6
:1008B0000EF0004E4EEA113114EB5C04C2BFD4EBD3
:1008C0000C0541EA045170BD41F480114FF0000E57
:1008D000013C90E645EA060E8DE60CEA135594EAD3
:1008E0000C0F08BF95EA0C0F3FF43BAF94EA0C0FD6
:1008F0000AD150EA01347FF434AF95EA0C0F7FF44B
:1009000025AF104619462CE795EA0C0F06D152EA9E
:1009100003353FF4FDAE1046194622E750EA410682
:1009200018BF52EA43067FF4C5AE50EA41047FF493
:100930000DAF52EA43057FF4EBAE12E74FF0FF3CF8
:1009400006E000BF4FF0010C02E000BF4FF0010CC9
:100950004DF804CD4FEA410C7FEA6C5C4FEA430C42
:1009600018BF7FEA6C5C1BD001B050EA410C0CBF91
:1009700052EA430C91EA030F02BF90EA020F0020F3
:10098000704710F1000F91EA030F58BF994208BF5A
:1009900090422CBFD8176FEAE37040F00100704717
:1009A0004FEA410C7FEA6C5C02D150EA013C07D16E
:1009B0004FEA430C7FEA6C5CD6D152EA033CD3D0B9
:1009C0005DF8040B704700BF8446104662468C46B3
:1009D0001946634600E000BF01B5FFF7B7FF0028E6
:1009E00048BF10F1000F01BD4DF808EDFFF7F4FF0F
:1009F0000CBF012000205DF808FB00BF4DF808ED9A
:100A0000FFF7EAFF34BF012000205DF808FB00BFBC
:100A10004DF808EDFFF7E0FF94BF012000205DF8DE
:100A200008FB00BF4DF808EDFFF7CEFF94BF012093
:100A300000205DF808FB00BF4DF808EDFFF7C4FF8C
:100A400034BF012000205DF808FB00BF4FEA410CD5
:100A50007FEA6C5C02D150EA013C0AD14FEA430CB8
:100A60007FEA6C5C02D152EA033C02D14FF00000F5
:100A700070474FF0010070474FEA410212F5001233
:100A800015D211D56FF47873B3EB625212D94FEAD5
:100A9000C12343F0004343EA505311F0004F23FABF
:100AA00002F018BF404270474FF00000704750EA14
:100AB000013005D111F0004008BF6FF000407047D1
:100AC0004FF00000704700BF53B94AB9002908BF72
:100AD00000281CBF4FF0FF314FF0FF3000F00CB882
:100AE000ADF1080C6DE904CE00F023F8DDF804E068
:100AF000DDE9022304B07047704700BF034613F8D6
:100B0000012B002AFBD1181A01387047430803F063
:100B10005533C01A00F03333800800F033301844E6
:100B200000EB10104FF0013300F00F305843000E6F
:100B300070472DE9F04786468C460846089E1546C4
:100B400074461946002B40F0C2808542B2FA82F208
:100B500045D94AB1C2F1200300FA02FC2EFA03F390
:100B6000954043EA0C0C94404FEA154EA8B2BCFBEA
:100B7000FEF8230C0EFB18CC08FB00F943EA0C43EB
:100B8000994528D9EB1808F1FF3704D2994502D9C5
:100B9000A8F102072B44A3EB0903A4B2B3FBFEFCAC
:100BA0000EFB1C330CFB00F044EA0344A04214D9B2
:100BB0002C190CF1FF3304D2A04202D9ACF102038C
:100BC0002C44241A43EA07401EB1D4400023346069
:100BD0007360BDE8F0874746DDE76346F1E792BB07
:100BE000431B01214FEA154EAFB2B3FBFEFC200CB4
:100BF0000EFB1C330CFB07F840EA0343984562D90F
:100C0000EB180CF1FF3004D2984502D9ACF1020088
:100C10002B44A3EB0803A4B2B3FBFEFC0EFB1C3376
:100C20000CFB07F744EA0344A7424ED92C190CF1F8
:100C3000FF3304D2A74202D9ACF102032C44E41BD7
:100C400043EA0040C0E7C2F1200320FA03F19540D7
:100C500090402EFA03F303434FEA154EAFB2B1FBB7
:100C6000FEFC0EFB1C10190C0CFB07F841EA0041BE
:100C7000884504FA02F422D969180CF1FF3004D235
:100C8000884502D9ACF102002944A1EB08019BB2CE
:100C9000B1FBFEFC0EFB1C110CFB07F743EA014302
:100CA0009F420ED9EB180CF1FF3104D29F4202D9BA
:100CB000ACF102012B44DB1B41EA004192E76046A4
:100CC000E3E76146F7E76046A3E76346B7E7834299
:100CD00006D916B9002108467BE7C6E900E0F9E726
:100CE000B3FA83F78FB9834201D3724508D8BEEBBC
:100CF000020460EB030301209C461EB9002168E753
:100D00003846FAE7C6E9004CF8E7C7F1200CBB40CB
:100D100022FA0CF41C432EFA0CF120FA0CF3B84022
:100D200001434FEA14490EFA07F5B3FBF9F81FFA2D
:100D300084FE09FB18300B0C08FB0EFA43EA004353
:100D40009A4502FA07F240D9E31808F1FF3004D2BD
:100D50009A4502D9A8F102002344A3EB0A0389B201
:100D6000B3FBF9F809FB183308FB0EFE41EA034117
:100D70008E452CD9611808F1FF3304D28E4502D973
:100D8000A8F10203214443EA0040A0FB0298A1EB32
:100D90000E014145CE46434602D306D14D4504D20D
:100DA000B9EB020E68EB04030138002EA6D0B5EBB8
:100DB0000E0261EB030101FA0CFC22FA07F34CEA84
:100DC0000303F940C6E9003198E74046C5E74346CA
:100DD000D9E70000000000002DE9F04F9FB08246E7
:100DE000039117461C460025387810B9284600F0B4
:100DF000A6BD252809D00399D0470028C0F29F85B9
:100E00007B1C01350593059FEEE71822002110A8F1
:100E100010F075FF7B78252B00F0BC800023791C37
:100E200098469E469C4618460E4611F8012B2B2AE2
:100E300000F0E38000F2DA80202A00F0E180232A2B
:100E400000F0E1802BB19DF8483043F040038DF86D
:100E50004830B8F1000F05D09DF8483043F020032A
:100E60008DF84830BEF1000F05D09DF8483043F0B2
:100E700010038DF84830BCF1000F05D09DF84830C4
:100E800043F008038DF8483028B19DF8483043F00E
:100E900004038DF848309DF8483003F0440144299C
:100EA00003D16FF386138DF848309DF848300E96C5
:100EB00043F080032A2A8DF8483040F0A9809DF83D
:100EC000493043F001038DF84930731C1A782E2AFB
:100ED0009DF849200CBF0121002161F341028DF8EA
:100EE00049200CD15A1C0E925A782A2A40F0A08030
:100EF0009DF8492042F004028DF8492002331A7807
:100F00006C2A00F0C18000F2A380682A00F0A9805A
:100F10006A2A00F0C2804C2A00F0C78013F8012B27
:100F20000593782A8DF84B2000F209816D2A00F292
:100F3000C980692A00F20381572A00F2E280412A1F
:100F400004D0A2F14503022B00F2F9809DF84A304B
:100F500002F0DF020421A2F1410961F30203D9F199
:100F600000029DF849108DF84A3042EB090262F305
:100F7000C7110A068DF84910CBB200F11F8103F0AA
:100F80007802182A40F009816FF3C6038DF84930C2
:100F90000023F8E08DF84B30BB1C05939DF84930D9
:100FA0009DF84A20DE0702F0070040F1098154F85D
:100FB000041B0491002908DA9DF8481041F004014F
:100FC0008DF84810049949420491590740F1008175
:100FD00054F8046B002E80F2FF809DF849306FF3C7
:100FE00041038DF849304FF0FF36F5E02D2A0DD042
:100FF000302A7FF427AF012316E74FF0010C13E7E7
:101000004FF0010E10E74FF001080DE701200BE74C
:101010000EA801F0C7FD0E9BB3423FF457AF9DF8F9
:1010200048201390C00F60F341028DF848204DE72F
:101030000EA801F0B7FD9DF848301490C3F34002AC
:1010400042EAD07262F341038DF848300E9B56E7B6
:10105000742A26D07A2A7FF461AF9DF849200621B0
:101060000CE05A78682A9DF8492006D1012161F3E5
:10107000C6028DF84920023350E7022161F3C6020F
:101080008DF84920013349E75A786C2A9DF84920A8
:1010900001D10421EBE70321F0E79DF84920052168
:1010A000ECE79DF849200721E8E7BDF8482022F445
:1010B000F04222F0020242F4804242F00202ADF815
:1010C0004820DFE76E3AD3B201229A4040F28243D1
:1010D0001A429DF8493039D112F0240F61D1D1075D
:1010E0002DD59DF84A2003F07803A3F14008032191
:1010F00061F30202D8F100038DF84A2043EB0803A4
:1011000041E0A2F15801C9B2012000FA01F111F445
:10111000624F7FF41BAF40F6010319429DF849303E
:101120001AD111F4043F0AD09DF84A2060F302025C
:1011300003F07803402B8DF84A207FF429AF9DF807
:10114000483043F001038DF8483021E79DF84A20EC
:10115000022161F30202EBE79DF84A10022003F03E
:10116000780360F30201402B8DF84A1002BF9DF80E
:10117000481041F001018DF84810632A7FF408AF50
:10118000003B18BF01239DF84820C2F340010B43E8
:1011900063F341028DF8482000E713F0380FCED1F9
:1011A000F6E69DF84A20032113F0780F61F302025E
:1011B0008DF84A2014BF01230023E4E70123E2E76E
:1011C0009DF948100029B4BF13994FF0FF31FBE699
:1011D0009E077FF508AF149E00230428CDE9133342
:1011E0009DF8493007D1990705D49DF94910002988
:1011F000ACBF06260D2602F00702012AC3F3C30383
:1012000032D1DA1E042A04D8DFE802F02045452056
:1012100020002268012B4FEAE271CDE910211BD199
:101220009DF94020D117CDE9102104349DF84820C4
:10123000069292074FD0059B03993A4650460DF00F
:1012400065FF0028C0F27B830544DCE554F8042BDD
:10125000D117CDE91021E9E7022BE6D111B242F313
:10126000C032CDE91012E0E7022A24D1DA1E042AA6
:1012700004D8DFE802F0181010181800012B54F8F9
:10128000042B4FF0000114D0022BCDE91021CDD159
:1012900092B21092CAE7073424F00704F4E802017E
:1012A000CDE91001C2E754F8042B109200221192EC
:1012B000BCE7D2B2CDE7042A08D1073424F00704F2
:1012C000D4E900010834CDE91001AFE7032AADD11C
:1012D00054F8042BDDE79DF84B80B8F1780F3FF60A
:1012E00092ADB8F1570F5CD8B8F1250F00F0A4808B
:1012F000B8F1240F7FF687ADB8F1410F04D0A8F103
:101300004503022B3FF67FADDDE91023002BC0F231
:101310004D810699080700F14C81C1F300194FEA8D
:101320004919C3F30A51C3F31303002940F0448160
:1013300052EA030014BF4FF0010C4FF0000CD8022A
:1013400040EA5250D702CDE90C70B8F1460F47EA97
:10135000010740EAE17008BF4FF06608384300F02B
:10136000B881BCF1000F10D01B0343EA12531703DE
:101370003A4618464FF0000C002880F25681BCF126
:10138000000F40F05981CDE90C730D9B43F00043F1
:10139000A1F2FE3B0D930021DDE90C230F46052051
:1013A00060E1A8F15802202A3FF62DAD01A151F8C5
:1013B00022F000BF7F150000070E0000070E00009E
:1013C000070E0000070E0000070E0000070E0000C9
:1013D000070E0000070E000009130000070E0000B2
:1013E0002B1500003F150000091300000913000031
:1013F00009130000070E00003F150000070E000053
:10140000070E0000070E0000070E00008515000003
:101410007F150000CF140000070E0000070E00002B
:1014200049140000070E00007F150000070E0000A1
:10143000070E00007F15000003994046D0470028A2
:10144000C0F27D820135DEE4002E109F3BDB314689
:10145000384610F0B7FD002F3FF4D5AC3E18F31B13
:101460004FF000099DF84A2012F01001069100F09B
:101470005B82023312F04002DDF84C80089218BF04
:10148000149ACDF81C80434418BF9B18049A002A74
:1014900040F36582D31A9DF8482004935007C2F3A5
:1014A000800B00F15C82510640F14C82B9F1000FD3
:1014B00007D003994846D0470028C0F24082013542
:1014C000D94630223FE23846FFF718FBC6E71098AE
:1014D000002800F024820DF17503009312AA17ABC7
:1014E000002101F075FBBDF84A3003F0EF0343F42F
:1014F000F04343F010030746ADF84A304FF00009BF
:10150000002E0CDB9DF848200DF17503DB1B6FF3FB
:1015100086129E428DF8482001D9F31A1393002FAA
:101520003FF471AC0DF175066DE0109B8DF85C30E9
:101530004FF000090DF15D0617AF012392E7069BFE
:101540001F0758BFC3F30019DDE9102354BF4FEA4A
:1015500049194FF02B09002B06DA524263EB430383
:10156000CDE910234FF02D090DF175030093DDE94E
:10157000100117AB12AA01F02BFB0746C0E74FF092
:101580000009F1E7109A072B3FF63DACDFE803F0C6
:101590000C04060C08080C0C157034E4158032E4B9
:1015A000EB17C2E900532EE415602CE44FF02D092F
:1015B000B7E64FF02B09B4E640F2FF70814231D11B
:1015C00008F10108A2495FFA88F8134311F80810DE
:1015D00001F003011ED101290BBF492369234E21CC
:1015E0006E210CBF462266228DF85C309DF8483093
:1015F0008DF85D106FF386138DF85E208DF84830FE
:101600000DF15F0617AFF31BB9F1000F3FF42AAFDE
:10161000013327E7012915BF6E234E2361214121A4
:101620001A46E1E74FF0000C89E6921801F1FF310C
:1016300040414FF0010C9FE6CDE90C20A5E6520891
:1016400042EAC3725B08B3F1333F59460BF1010B19
:10165000F5D200FB03FCA2FB002301F1020B634463
:10166000013F01211BF1020FE9DB09B1CDE90C2398
:10167000BBF1000FDDE90C322EDCCBF10401A1F14E
:1016800020000BF11C0B02FA0BFB22FA00F0CA40FF
:10169000CB40079208F0DF0243EA0B03472A43EAF4
:1016A00000037DD1F91C01DBBE422BDAA8F1020850
:1016B000002E5FFA88F87CDD9DF84820920606F13E
:1016C000FF3676D4B6F1000B18BF4FF0010B721C39
:1016D00027E04FF0000B5EE6023342F100020CA857
:1016E000CDE90C320DF0E3FCDDE90C320BF1FF3BF0
:1016F0000137DB185241002A0BF1FF3BF9DACDE943
:101700000C32B5E79DF848209006A6EB07064DD4AD
:10171000B6F1000B18BF4FF0010BF2194FF066083D
:101720004AD4102AA8BF10229FED477B8DED0E7B77
:1017300010200B90DDE90E01002A3FD1079A1B18FB
:1017400042EB0101B1F1805F47D2CDE90C31069B3C
:10175000B8F1660F03F0200240F0C180002F47DC93
:1017600030238DF85C30002A74D1002E40F3BA810A
:101770002E238DF85D3087B17B42B342A8BF33463C
:101780009DF84A201393002BA6EB0306D4BF002339
:10179000012363F345128DF84A200DF15E0340E00A
:1017A000B8F1660F4FF0000BB7D090E74FF0000B89
:1017B000B3E74FF0000B8AE70022B5E7400840EAA4
:1017C000C1704908CDE90E010EA8CDE908230DF03E
:1017D0006EFC089A099B013AACE75B0843EAC173C7
:1017E0000CA84908CDE90C3101370DF060FCAEE7DB
:1017F00017AB0B9900290BDD0BA90CA8CDE906321C
:101800000DF06DFC069B079A03F8010B013FF0D128
:101810001397AAB9002E40F363812E2103F8011B10
:101820000027002E1FDD0B9A002A1CDD0BA90CA837
:1018300006930DF054FC069B013E03F8010BF0E704
:101840002E2203F8012BEBE7000000000000000847
:10185000BB4201002E238DF85D30002F9DD0002E5D
:101860008ADC0DF15E03BBF1000F4CD114961E46CD
:1018700008F0DF03452B21D1002FBABF7F422D2373
:101880002B23632FC8BF64227370C2BFB7FBF2F370
:1018900003F1300102FB13774FF00A0286F8008053
:1018A000CABFB17002360336B7FBF2F303F1300161
:1018B00002FB13733033317073700236139B002BAD
:1018C0002BDC149B002BD4BF002301239DF84A205E
:1018D00063F3861200238DF84A20337092E60BA939
:1018E0000CA806920DF0FBFB069A8DF85C003028E0
:1018F00018BF07F1FF3712B9002E40F3F3802E23F3
:101900008DF85D3049E71E46013B16F8012C302A60
:10191000F9D02E2A08BF1E46AAE70123D6E7734E48
:101920008146771F05239DE5110748BF0133A1E5D7
:10193000104609920399D0470028099A05DA1FB08A
:10194000BDE8F08F2022DDF810B0594600290BF1D8
:10195000FF3BEDDC049BCDF810B02B445D1AB9F1D0
:10196000000F05D003994846D0470028E7DB013532
:10197000089B002B79D09DF94930002B29DBDFF83B
:1019800070913B46187819F8002052079B4603F1E6
:1019900001033FD49DF84A30EF1B98065F4407D4FB
:1019A0004246002A08F1FF383BDC079B3B449F1A64
:1019B0009BF800002E280AD10399D0470028BEDBEF
:1019C000B8F1000F07F1010731DC0BF1010B5D46A7
:1019D00038E0B94699F800007028C84609F10109B5
:1019E00013D1EF1B149D47443D44EB1B002B34DC0B
:1019F00003993346424650460DF088FB00289EDB93
:101A00003844049E0546064465E00399D047002803
:101A1000E0DA94E706930399D0470028069BB1DAF1
:101A20008DE703993020D0470028B9DA87E703997A
:101A30003020D04708F1FF38C0E70399D04700288D
:101A4000FFF67DAF287819F800305907A84605F150
:101A50000105F2D4A7EB0B07C4E703993020D04768
:101A60000028FFF66CAF0137BFE79DF84A30DA0671
:101A700001D41B0706D503993020D0470028FFF674
:101A80005EAF0135069B3BB103999DF84B00D047F3
:101A90000028FFF654AF0135A84406E00399302032
:101AA000D0470028FFF64BAF0135A8EB0503002B0C
:101AB000F4DC039933463A4650460DF027FB0028E4
:101AC000FFF63DAF28449CE703992020D04700282B
:101AD000FFF635AF0135731B002BF5DCFFF793B92B
:101AE0001746C0E60DF15D03BDE600BF622F0100A1
:101AF000BC420100000000002DE9F04F476A97B09A
:101B00008DED000B55EC104B209E089183460C92F6
:101B100012937FB910200BF0B7FC0246CBF82400DB
:101B200020B9A74BEA21A7480CF0FCFBC0E90177DC
:101B30000760C760DBF82430196859B15A684A60F9
:101B4000012393408B6058460CF012F9DBF82430E7
:101B500000221A602B1EB9BF23F00043019300231B
:101B60003360019F984BBCBF01223260BB4319D147
:101B7000129A42F20F731360C7F31303234300F06A
:101B8000DD85219B53B9914B21E0914B03930833A1
:101B9000219A1360039817B0BDE8F08F8B4B039325
:101BA0000333F5E79DED007B002251EC170B00237A
:101BB0008DED0A7BFEF718FF804650B1129A012383
:101BC0001360219B13B1219A824B1360824B0393C4
:101BD000E0E79DED0A0B14AA15A958460CF04AFB44
:101BE000C7F30A560290002E78D00B9BCDF84C809C
:101BF000C3F31303DDE90A0143F07F5343F44013B9
:101C0000A6F2FF3619460022744BFEF7CDFA66A302
:101C1000D3E90023FEF780FC65A3D3E90023FEF798
:101C2000C5FA044630460D46FEF70CFC62A3D3E924
:101C30000023FEF771FC02460B4620462946FEF7BC
:101C4000B5FA04460D46FEF717FF002207460023AB
:101C500020462946FEF7D2FE40B13846FEF7F2FB99
:101C600022462B46FEF7C0FE00B9013F162F52D880
:101C70005B4B03EBC703D3E90023DDE90A01FEF761
:101C8000BDFE002849D0013F00231193149B9B1BEC
:101C90005A1E45BFC3F10103069300230023079298
:101CA00054BF06930793002F39DB079B10973B44E3
:101CB000079300230993089B092B66D8052BC4BF03
:101CC000043B0893089BA3F10203CCBF002401242A
:101CD000032B65D8DFE803F02B383657DDE91463B2
:101CE0001E4406F23243202BC1BFC3F140039F4084
:101CF00006F2124324FA03F3D6BFC3F1200347EAE6
:101D0000030004FA03F0FEF78DFB0122A1F1F87342
:101D1000013E139276E70123B7E71190B6E7069BE1
:101D2000DB1B06937B42099300231093C3E7002338
:101D30000D930C9B002B57DC0123049399461A4604
:101D40000C920CE00123F3E700230D930C9BFB188E
:101D500003F1010904934B46012BB8BF0123DBF8C3
:101D600024000021042202F114059D4240D9416063
:101D700058460BF0BDFF039000283CD1194B02469A
:101D80004FF4D571CFE60123DFE701240023089348
:101D90000D944FF0FF330493994600221223CFE7AE
:101DA00001230D93F5E700BF61436F63A787D23F1F
:101DB000B3C8608B288AC63FFB799F501344D33F3A
:101DC000F74301000E4401000000F07FF3430100DF
:101DD000EA430100473B0100463B01000000F83F99
:101DE000D02801006A4401000C9B04939946B6E791
:101DF00001315200B7E7DBF82430039A1A60B9F1D9
:101E00000E0F6FD8002C6DD0002F36DDA14B07F0E0
:101E10000F0203EBC20393ED007BF8058DED0E7B03
:101E20004FEA271417D59C4BDDE90A01D3E90823B3
:101E3000FEF79CFCCDE9000104F00F044FF003080D
:101E4000954D5CB9DDE90E23DDE90001FEF78EFC5E
:101E5000CDE900012BE04FF00208F1E7E10709D5D9
:101E6000DDE90E01D5E90023FEF756FBCDE90E01B1
:101E700008F1010864100835E3E700F007817C42AF
:101E8000844B854D04F00F0203EBC203D3E900231A
:101E9000DDE90A01FEF740FBCDE900012411002332
:101EA0004FF00208002C40F0E580002BD0D1119BB0
:101EB000DDE90045002B00F04C81784B00222046E4
:101EC0002946FEF79BFD002800F04381B9F1000F81
:101ED00000F03F81049B002B00F3E480DDE90A342D
:101EE000CDE90034159B002B02DB0E2F40F342821C
:101EF0000D9A002A40F06782099CDDF818800025C1
:101F0000B8F1000F0DD0079B002B0ADD4345069A60
:101F1000A8BF4346D21A0692079AA8EB0308D31A21
:101F20000793099B0BB30D9B002B00F0A682002C9E
:101F300000F0A1822946224658460CF041F8029A48
:101F40000146054658460BF091FF02990646584651
:101F50000BF00EFF099B1B1B099300F09182099A5D
:101F6000314658460CF02CF80290012158460BF0EF
:101F700067FF109B0446002B00F084821A4601463E
:101F800058460CF01DF8089B012B044603DC009B0F
:101F9000002B00F07C820026236904EB8303186980
:101FA00010F0B4F81096C0F12000079B184410F010
:101FB0001F0000F09182C0F12003042B40F38182C6
:101FC000069BC0F11C0003440693079B0344804416
:101FD0000793069B002B05DD02991A4658460CF024
:101FE00049F80290079B002B05DD21461A4658460A
:101FF0000CF040F80446119B002B00F0768202980A
:10200000214610F0D2F8002880F26F820023029956
:102010000A2258460BF0CEFE0D9B02907E1E002B2E
:1020200000F05C82002329460A2258460BF0C2FECB
:10203000049B002B054603DC089B022B00F35E8209
:10204000B8F1000F05DD2946424658460CF012F85B
:102050000546109B002B00F0D082696858460BF0B3
:1020600047FE0746002840F07F820D4B024640F2B3
:10207000EA2158E5E20706D5D5E90023FEF74CFA38
:1020800008F101080123641008350BE74FF002083E
:102090000DE700BFD0280100A82801000000F03F94
:1020A0006A4401002046AD4B00222946FEF734FA6F
:1020B000CDE90001049C7E1E08F101084046FEF7B0
:1020C000C1F9DDE90023FEF727FAA54B0022FEF750
:1020D0006DF8A1F15073CDE90E010F93002C3BD1A7
:1020E000DDE900019F4B0022FEF75EF802460B4639
:1020F000CDE90023DDE90E23FEF79EFC002840F029
:102100005781DDE90E2101F10043DDE90001FEF711
:1021100075FC00283FF4E2AE002425460C9BDDF858
:102120000CA0DE434FF00008214658460BF020FE7D
:10213000002D00F0A980B8F1000F05D0A84503D00C
:10214000414658460BF014FE294658460BF010FE47
:102150009AE03E464C46B1E7834B03EBC40353E998
:102160000201039B1C440D9B002B4AD002460B46E8
:1021700000207E49FEF7FAFADDE90E23FEF714F897
:10218000CDE90E01DDF80CA0DDE90001FEF774FCDD
:102190000546FEF757F902460B46DDE90001FEF75A
:1021A00003F83035CDE9000102460B460AF8015B21
:1021B000DDE90E01FEF740FC002865D1DDE90023D2
:1021C0006B490020FDF7F0FF02460B46DDE90E01EA
:1021D000FEF732FC002840F00D81A24500F0EA80B5
:1021E000DDE90E015D4B0022FEF796F95B4BCDE970
:1021F0000E010022DDE90001FEF78EF9CDE90001B4
:10220000C2E7DDE90E23FEF787F9CDE90E01DDF81F
:102210000CA0A046DDE90001FEF72EFC0546FEF706
:1022200011F902460B46DDE90001FDF7BDFF30352F
:102230000AF8015B02460B46A245CDE900234FF0A8
:10224000000223D1494BDDE90E01FDF7AFFF024645
:102250000B46DDE90001FEF7EFFB002840F0CA80E5
:10226000DDE90E2341490020FDF79EFF02460B46A3
:10227000DDE90001FEF7C2FB70B1C24608F1FF388C
:102280001AF8013C302BF8D0374655E0334BFEF7B7
:1022900043F9CDE90001BDE7DDE90A34CDE90034B9
:1022A000159B002BFFF628AE0E2F3FF725AE2E4BC9
:1022B00003EBC70393ED007B0C9B002B8DED047BA0
:1022C00002DAB9F1000F64D0DDE90045DDF80CA0B9
:1022D000DDE9042320462946FEF748FAFEF7CCFB49
:1022E0000646FEF7AFF8DDE90423FEF715F90246CE
:1022F0000B462046294606F13004FDF755FF0AF843
:10230000014B039CAAEB0404A14502460B4640F096
:102310008280FDF74BFFDDE9042304460D46FEF7FE
:102320008BFB002865D1DDE9042320462946FEF712
:102330005BFB08B1F3075CD4029958460BF018FD1B
:1023400000238AF80030129B01371F60219B002B6D
:102350003FF420ACC3F800A01CE400BF0000244000
:1023600000001C4000001440D02801000000E03FA5
:102370000000F03FA24B03EBC70393ED007B0C9BE7
:10238000002B8DED047B9FDAB9F1000F9CDC7FF40C
:10239000C3AE9C4B0022DDE90401FEF7BDF8DDE988
:1023A0000023FEF73FFB044600287FF4B5AE3E460F
:1023B0002546B4E0DDE90A34CDE90034159B002B55
:1023C00001DB0E2FD6DD089A012A36DC139A82B380
:1023D00003F23343099CDDF81880069A1A440692EA
:1023E000079A01211A44584607920BF029FD054629
:1023F00086E53E4653469A4613F8012D392A06D102
:10240000039A9A42F7D10399302201360A701A785A
:1024100001321A7038E77C4B0022FEF77DF800226B
:10242000002304460D46FEF7DFFA00283FF450AFC4
:1024300082E7149BC3F13603CCE7099B09F1FF3413
:10244000A34208DBB9F1000FA3EB04040EDBDDF8B7
:1024500018804B46C1E7099B109A0994E31A1A4465
:10246000DDF8188010924B460024B6E7069BA3EBDC
:1024700009080023B1E7029E71E5099A029970E507
:10248000029672E5089B012B17DC009BABB9019B00
:10249000C3F313039BB9019B23F00046360D3605A9
:1024A00036B1069B01330693079B01330793012640
:1024B000109B002B7FF470AD1096012075E500266F
:1024C000F6E73FF486AD069A1C331A440692079A43
:1024D0001A44984407927CE50346F4E7049B002BDA
:1024E0002BDC089B022B09DC27E0B9F1000F1DDC77
:1024F000089B022B1ADDCDF810903E46049B002B62
:102500007FF40CAE2146052258460BF053FC0146E1
:10251000044602980FF049FE00287FF7FFADDDF872
:102520000CA031230AF8013B0136FBE50D9BCDF8E9
:1025300010903E46002B7FF483AD039F0298214606
:102540000FF05CFD00F1300907F8019B039B049A32
:10255000FB1A9A4240F3CB80029900230A22584684
:102560000BF028FC0290E9E72A690232920005F19B
:102570000C010C300FF0B5FB0122394658460BF028
:1025800079FD039B03F1010ADDE90323134407935B
:10259000009B03F00103A846099305460AF1FF33A7
:1025A0002146029804930FF029FD4146069000F160
:1025B000300902980FF0F9FD2A4621460746584691
:1025C0000BF0C4FDC268014602B358460BF0D0FBC5
:1025D000002F3ADA0299012258460BF04BFD2146B2
:1025E00002900FF0E2FD002803DC29D119F0010F61
:1025F00026D0B9F1390F1DD132E02846C1E700BF1E
:10260000D028010000001440000024400A900298E5
:102610000FF0CBFD0A990C9058460BF0A9FB0C9AD1
:102620005ABB089B53B9099B43B9B9F1390F17D06D
:10263000002F05DD069B03F1310901E0002F2ADAA6
:10264000DDF810A00AF8019B6EE5089B3B4304D11E
:10265000009B03F00103002BBCD0B9F1390F36D138
:10266000049F392307F8013BBA46013F1AF8013CA1
:10267000392B5BD001333B7056E5002F06DB089BFE
:102680003B4306D1009B03F0010313B9002AA1DCF0
:10269000D6E7002AE1DC079B0AF8019C5345574620
:1026A0002FD0029900230A2258460BF083FBA8453D
:1026B00002904FF000034FF00A02414658460BD1FA
:1026C0000BF078FB804605460AF1010A66E7DDF863
:1026D00010A009F10109B5E70BF06CFB2946804613
:1026E00000230A2258460BF065FB0546ECE7049BE5
:1026F000002BC8BF1F46039BD8BF01271F444FF0C4
:1027000000080299012258460BF0B4FC21460290C1
:102710000FF04BFD0028A7DC02D119F0010FA3D167
:10272000BA4617F8013D302BFAD0FDE4039BBB42BB
:102730009AD1039A312301361370F5E4219B002BC3
:102740007FF423AA014BFFF742BA00BFEA4301001E
:1027500030B585B000241F4B1F4D20490293032242
:1027600023462046CDE900440CF09BF9284602F0B0
:1027700037F900280CDA1A4B0390CDE901431749C9
:1027800000942346012220460CF08BF905B030BDA1
:10279000EB680393134B11490094CDE901430322E5
:1027A000234620460CF07DF90F4802F0C5F80028BA
:1027B00005DA10F1110F02D00C4B0390DDE70C4B42
:1027C00002930023CDE900330449032218460CF09C
:1027D00068F9DBE7CC2E01006005002034280100F9
:1027E000E12E0100F22E0100092F0100132F01003C
:1027F000242F01002DE9F04F91B08407009302F0DF
:1028000004030293C2F3C20303F10103DDF86890ED
:10281000039205460E46059340F0BA81041D30B17F
:10282000072909D86FF01B0011B0BDE8F08F01F047
:102830000706341DC6F10806009B4FF00008591E1C
:102840004FF0040A4FF0FF330193CDF81080474654
:10285000C34653460DB1009820600598002800F348
:10286000E8809848009A824203D397488242C0F099
:10287000E080039AA4EB050E92074FEA9E0000F158
:1028800003810F2F00F2B180002D00F0058107F1C8
:1028900040020DEB020C019A0CF8200C0CF8102CE5
:1028A000049801300490E7E07A285DD84B280ED8D0
:1028B000472859D829282DD8252852D054D820283F
:1028C0007AD02338D0F1000B4BEB000B74E04C387E
:1028D0002E2849D8DFE800F0704848484848484862
:1028E000484848484B484848484848484859484B51
:1028F0004B595959704B6D487048184B18484882CD
:102900007F4B48484B487F0000204FF0000B4FF0B2
:10291000040A38E02A38C0B2012202FA00F010EAB4
:102920000E0F49D110F0625C2FD110EA020B43D098
:102930006046013C5444B4FBFAF40AFB04F4002D55
:1029400061D0A3EB050CA444B4453FF66BAF00285F
:1029500068D1042B47D159F8043B23600434042385
:102960002AE0019A013A01924FF0000B24E011F89D
:10297000010C6C2834D111F8023C00206C2B8346EA
:10298000C5D14FF0080A5346D3E709F1070929F0EA
:1029900007090734F9E802AB24F0070435B10698BB
:1029A0002044B0423FF63EAFC4E900AB08344FF0DC
:1029B000000B4FF0080A534611F8010F002878D099
:1029C000BBF1000F7FF470AF2528F5D1019B0133D7
:1029D00001934FF0010B4FF0040AECE7584694E7DF
:1029E00000208346A5E7082B02D06FF015001BE7F7
:1029F00009F1070929F00709B9EC027B84ED007B96
:102A000008340823D8E768B9042B02D109F1040976
:102A1000A4E7082BE9D109F1070929F0070909F111
:102A20000809EDE705980138059059F8040B009066
:102A300010E7039A900720D5A4EB050E4FEA9E00FD
:102A40004FF0010CBEF5007FCFD20F2FCDD8F5B1DE
:102A500007F140020DEB020EC0B2019A0EF8200CF5
:102A60000EF8102CBCF1000F3FF41AAF60F07F009D
:102A70000EF8200C08F101080137C5F108020434F2
:102A800006924FF6DA7E97E74FF0000CDAE7BCF1DA
:102A9000000F01D00136EFE7029A0236002AEBD18F
:102AA0000098CDE90631FEF729F8DDE90631064444
:102AB000E2E7631BB3F5806F97D23DB9A6F1080436
:102AC000E018B1E6D82401002C450100029A2860E4
:102AD0009B082B709DF81030C2B1EB7085F8028016
:102AE000B8F1000F05D008A80022C5F1010C9742EB
:102AF0000ED1C5F101030DF120094FF0000A019339
:102B00000DF1300B574512D1601B8DE66B70E5E778
:102B100010F8013B190608D504EB0C0EB64503F07E
:102B20007F033FF67FAE04F8013B0132DFE7B8F1E7
:102B3000000F03D099F90020002A17DB029BD3B1C4
:102B40001AF80B2004F8012B0022019B981820444E
:102B5000B0423FF667AE99F8000004F8010B009907
:102B6000039220460FF0BDF8039A14440AF1010ABB
:102B700009F10109C6E799F8002055F822300093C1
:102B8000029B45F822300098FDF7B8FF421CDCE7B5
:102B90006FF00D0048E600BF014B1860704700BFA2
:102BA00098060020F0B5094E016802460A27002069
:102BB0000B4601311C78355D6D0701D41360F0BD03
:102BC00007FB0043A3F13000F2E700BFBC42010065
:102BD0002DE9F84F15469A46D378234A12F803B0E8
:102BE0006F2B81460F460BF0030B2BD026D8582BAA
:102BF0000CBF10260A26DDF82880324600234846FE
:102C00003946FDF761FF092A08F1FF38D4B21ED812
:102C10003034B145E4B277F1000788F8004001D3C1
:102C2000D04511D82B789B0605D5082E15D1AB7849
:102C300043F00803AB704046BDE8F88F03F0F7039C
:102C4000702BD5E70826D6E781460F46D5E7BBF1BE
:102C5000010F0CBF37345734DBE7102EEBD1AB78C4
:102C600043F01003E6E700BFBC42010008B504468C
:102C7000EFF31183202383F31288BFF36F8F04F0E7
:102C80004FFE204601F088F902480CF0F9F90CF0EB
:102C900075FCFCE7632F01002DE9F047058B044626
:102CA0002807904611D4022905F0070540F0CC8092
:102CB00020460CF042FA78B10138218B042811D853
:102CC000DFE800F0C2106D85950001290CBF45F0CA
:102CD000100545F02005258388F31188BFF36F8F19
:102CE000BDE8F08701F0070AAA4500F0A58000279B
:102CF000B9463E46A368002B00F0BC8041F00801B5
:102D0000218388F31188BFF36F8FA168002900F039
:102D1000BA800D68002900F0B680D1F804803346EF
:102D200052462046C047002D76D02B6829461D46C6
:102D3000F0E701F007035A1F012A1BD8002221F0F7
:102D40000701062B276889B2C4E9002209D13B4656
:102D500003E0628B013262831B68002BF9D141F0E2
:102D60000201218320460CF0E8F900287AD041F0D6
:102D7000200176E0042B0AD121F0070189B22183DA
:102D800020460CF0DAF910B141F020012183218BAB
:102D900001F0070AAA454FD00027B946AAE72369E0
:102DA00021F0070141F00601062DD3F800902183A0
:102DB0002DD1B9F1000F3FD041F00801218388F3F4
:102DC0001188BFF36F8F3A492046C84729E021F0A8
:102DD0000701236941F0040189B2042DD3F804905E
:102DE0002183E6D000273E464FF0040A82E721F017
:102DF0000701236941F0050189B2052DD3F8089038
:102E00002183D6D000273E464FF0050A72E70027FF
:102E10003E464FF0060A6DE72B4687E7B9F1000FF3
:102E2000D1D1EFF31188202383F31288BFF36F8F82
:102E3000238B23F008032383258BEA062ED525F068
:102E40001003238305F007056669218B002EBFF66A
:102E500070AF00232768C4E9003321F0070141F077
:102E600001012183218B01F0070AAA454FF00009D7
:102E70007FF440AF002F9CD041F00801218388F3FC
:102E80001188BFF36F8F002FC8D03D683946334695
:102E9000524620460CF07DF92F46F4E7AB067FF54D
:102EA0001BAF25F02003238305F0070500E700BFD3
:102EB000BFF100002DE9F84F81462F480F460CF076
:102EC00019FA064670B92D4CDFF8B4A00546A046A5
:102ED0004FF0010B544507D3B9F1000F02D04FF06A
:102EE000010AE5B9BDE8F88F237B6BB12368DB6885
:102EF0000BB12046984723681B6943B963680422D5
:102F00001968204600F0C8F801361034E2E7204680
:102F100098470028F2D00BFA06F31D43F4E7A946C0
:102F200095FAA5F4B4FA84F40AFA04F3260108EB3E
:102F300004146FEA030B25EA0305237B63B158F8F9
:102F400006301B6993B94644042273682046196809
:102F500009EA0B0900F0A0F8002DE1D127B14FF4E8
:102F6000A470002109F0EEFD4D46BAE720469847CF
:102F70000028F1D1E7E700BF281000207C280100DD
:102F80008C280100014B53F820007047982901005C
:102F900008B5034608462BB1044A136000F082FAD4
:102FA000002008BD6FF01500FBE700BF9C06002065
:102FB000054A064800231370054A1360054A4FF47A
:102FC00000411360FFF7E4BFBC190020F1F20000DC
:102FD000201000202410002070B50B4D297841B935
:102FE0000120FFF767FF094C094EB44202D30123C9
:102FF0002B7070BD63685B791BB1236820469B68AA
:1030000098471034F1E700BFBC1900207C2801006C
:103010008C28010010B5044608480CF06BF95CB12F
:10302000BFF35B8F064B53E8001F013943E80012E2
:10303000002AF8D1BFF35B8F10BD00BF2010002025
:103040002410002070B50A4B0A4C1B680A4E054636
:103050009847A860B44200D370BD63685B7923B120
:10306000236829461B68204698471034F2E700BFC2
:103070009C0600207C2801008C280100044A054B96
:103080009B1AB1EBD30F34BF52F8310000207047C8
:10309000E42701007C280100084BC31A10B41B115F
:1030A00044680133237143689A7143681960436827
:1030B00001225A715DF8044B0CF03EB97C280100E6
:1030C0002DE9F04F87B004AFD7E90EA93D6B044658
:1030D0000E4693469846BAF1000F1ED0C7F80490EA
:1030E000CDF8009010217A6B53460020FFF782FB49
:1030F000B0F5006F014611D340F2FF730393194BF3
:1031000002930023CDE900331749022218460CF040
:103110002FF90C37BD46BDE8F08F514604F0070487
:103120000BF0070BE40044EA8B1444EA412444EA20
:10313000055417350D4425F00705ADEB050D04AD1D
:10314000BAF1000F07D0CDF800907A6B534605F125
:103150001000FFF74FFB43462246314628460CF04D
:10316000EEF8D6E7992F010024280100406820B12D
:10317000034BC01A40F3CF0070474FF0FF30704749
:10318000E42701000EB403B503AB014653F8042B4A
:10319000044801930CF026F902B05DF804EB03B08B
:1031A000704700BFADF30000CA0605D48B064CBFC4
:1031B00002490349FFF7E6BF704700BFD22F010065
:1031C000D12F01002DE9F04F89B004469DF84CB095
:1031D000179E0D4690469946BBF1000F00F09E8069
:1031E00006F00103069306F00803059306F48073C6
:1031F00007930CF0A2F806F0020A024600283BD022
:1032000093492046FFF7BEFF0746BAF1000F08D0EA
:1032100016F0440F32D18F492A462046FFF7B2FFFD
:103220000744069B53B18C4B8C4953F82B208C4B95
:103230002046002A08BF1A46FFF7A4FF079B002B71
:1032400048D0059B002B62D1B8F1000F64D08549AE
:1032500042462046FFF796FF0546149B3D44002B4F
:103260006BD1169B002B71D1F30700F1EA80314638
:103270002046FFF799FFD7E00746C6E77A4B186864
:103280000028CDD0794B4FF47A7A1B68B5FBF3F563
:103290004FF46161B5FBF0F300FB13550AFB05F534
:1032A0004FF03C0CB3FBF1F201FB1231B5FBF0FE29
:1032B000B1FBFCF300FB1E550CFB13110AFB05F5DB
:1032C0000091B5FBF0F56A49CDE901E52046FFF72D
:1032D00059FFA5E7059BEBB1664B674953F82B20D7
:1032E0002046FFF74FFF0546B8F1000F05D05D49B6
:1032F00042462046FFF746FF0544B9F1000FACD027
:103300005E494A462046FFF73DFF0544A5E74FF0DA
:103310000009E1E7059DE7E745469EE7B9F1010FA2
:10332000149B06D1002B65D1169B002B7CD0002569
:103330000CE0002BF8D052485DE05248149B5249F3
:1033400022460BF06AFE169B002B69D0DFF84C81F9
:10335000DFF84C91169F3146102F204628BF1027CA
:10336000FFF722FF4FF0000A554546DC159B494602
:103370001A782046FFF706FF4FF0010A1AF0070FF0
:1033800003D141462046FFF7FDFE57453CD9159B2A
:10339000494613F80A202046FFF7F4FE0AF1010A15
:1033A000BAF1100FEAD1394920464FF0000AFFF771
:1033B000E9FE5246159B9A5C354B995C11F0970FCC
:1033C00008BF2E2233492046FFF7DCFE0AF1010A2E
:1033D000BAF1100F1DD01AF0070F03D14146204655
:1033E000FFF7D0FE57455246E4D841462046FFF746
:1033F000C9FEEBE723485D46A0E741462046FFF7BC
:10340000C1FE0AF1010AAFE723492046FFF7BAFEE1
:10341000C4E7159B3B441593169BDB1B169399D170
:10342000BBF1000F7FF420AF6268A1682068D2E989
:1034300000230BF0ADFF636800221A6009B0BDE8FD
:10344000F08F074A05492046FFF79CFE0FE700BFB3
:10345000D92F0100DD2F0100A82901004A38010001
:10346000D42F010002300100301000202C10002069
:10347000E62F0100BC290100063001000C300100DC
:10348000C9F30000ADF30000E5F300001B300100BC
:10349000BC4201001D30010017300100193001004D
:1034A00011300100074A00210123904206D8064A44
:1034B00001B901231360054B1860704740085B0099
:1034C0000121F2E740420F002C10002030100020B4
:1034D000014B01221A707047BD190020014B0020DA
:1034E000196070474810002010B5064B18680C464C
:1034F000FFF748FD21460346BDE8104002480F2271
:10350000184700BF48100020EC290100F8B5094D0C
:10351000094B0A4ED5E9004701221A700CB92C60FC
:10352000F8BD214630463A4600F00AF8241A06440F
:10353000F4E700BF3C100020BE190020BF19002096
:10354000F8B5194D07460E46042432463946002088
:1035500008F064FCC8B101232B70144B1B782BB905
:103560003046F8BD5CB92C704FF0FF34002008F0F5
:10357000DDFC0028F4D02B78002BF3D1F0E7013CE0
:1035800041F288300EF0E7F8F0E72B7813B1013CF8
:1035900004D12C702B78002BD7D1E1E741F2883091
:1035A0000EF0D9F8F6E700BFBD190020BE190020C3
:1035B000014B036000207047FC29010070B5114BDE
:1035C0001C680D46DCB1104B196800238B4202DBEE
:1035D0006FF0010070BD224612F8106B864202D0D7
:1035E00001331446F2E7E06810B96FF01200F1E71A
:1035F0000EF0B6F80028F8D02C600020EAE76FF053
:103600000C00E7E7A0060020FC29010008B50448EB
:103610000BF036FDBDE8084002480BF031BD00BF9D
:103620005B30010090300100014809F089BD00BF06
:10363000102A010038B5044618B90F4B0F485B68D3
:1036400098476168B1F5683F10D0B1F5680F0DD0AB
:103650000B4DA9420AD011F46861206807D00146D9
:1036600008480EF055F900232360656038BD142228
:103670000EF045FBF9E700BFA0090020BE300100B5
:103680002C5F5CA94C15002008B520B34368B3F546
:10369000683F10D101220368BFF35B8F53E8001F1E
:1036A000002903D143E800200028F7D1BFF35B8F46
:1036B0000DD1002008BD094A93420AD000684FF09E
:1036C000FF324FF0FF3308F047FE0028F1D00448E6
:1036D000F0E70448EEE76FF4E040EBE72C5F5CA90D
:1036E000E98FFFFFEA8FFFFF08B5D8B14368B3F554
:1036F000683F10D100220368BFF35B8F53E8001FBF
:10370000012903D143E800200028F7D1BFF35B8FE4
:103710000BD1002008BD074A934208D0006808F08A
:1037200093FEF6E76FF4E040F4E70348F2E703485E
:10373000F0E700BF2C5F5CA9E98FFFFFEA8FFFFF76
:1037400010B5044618B91D4B1D485B68984763685F
:10375000B3F5683F2FD0B3F5680F2CD0194A9342C8
:1037600019D1236803BB18484FF0FF324FF0FF33E5
:10377000214608F0C3FD08B923681BB90F4B134855
:103780005B6898472068142200210EF0B8FA4FF4C5
:103790006863636008E0B3F5683F0DD83A2B03D047
:1037A00040F6BA629342DED120680EF0E9F8636811
:1037B00043F03A03636010BD054AF3E7A009002017
:1037C000BE3001002C5F5CA94C150020E4300100E4
:1037D0003A00003A08B506490648402314220EF084
:1037E00089F8BDE808400449044809F01BBD00BF42
:1037F0004C1000204C150020182A01002C2A010032
:103800002DE9F04780468CB00D46002967D08B68C3
:1038100005934B6804930B68039300243C4B3D498C
:103820000293012223462046CDE900440BF070FEAE
:103830006B6905932B690493EB680393364B354909
:103840000094CDE901430122234620460BF060FE9F
:10385000EB690393314B2F490094CDE901430122D9
:10386000234620460BF054FEDFF8C0A0DFF8A490FA
:103870002F462646FB6A0A93E31C0993BB6A08930A
:10388000A31C07937B6A0693631C05933B6A00960F
:10389000CDE903430023CDE9016A012249461846D8
:1038A00004340BF035FE102C07F11007E2D12B6E1B
:1038B00003931B4B17490096CDE90163002318467B
:1038C00001220BF025FEAB690393164B11490096BC
:1038D000CDE901630023012218460BF019FEB8F16F
:1038E000010F0DD1EFF30583103B03930E4B0293B1
:1038F0000023CDE900330749424618460BF008FE85
:10390000294640460CB0BDE8F04708F03FBB00BF79
:103910001131010044280100403101006F310100E4
:10392000C1310100D0310100FE3101007E310100C2
:1039300030BFFFF7FDBF00BF074A936893F90E1031
:10394000002907DB926993421FBF044A536843F082
:1039500080535360704700BFA017002000ED00E0C7
:10396000F0B585B00024434B0293CDE900442346D3
:1039700007460E460122404920460BF0E4FD3F4B2E
:103980009B6ADB0465D53E4B3B490094CDE901437E
:103990002046234601220BF0D6FD1720374B9B6AA9
:1039A0001D050AD5374B029300231846CDE9003395
:1039B000314901220BF0C7FD1820304DAB6A9C0540
:1039C0001FD50024304B0293012223462046CDE927
:1039D000004429490BF0B7FDAB6BAA6A10040FD560
:1039E00003932A4B24490094CDE901430122234645
:1039F00020460BF0A8FD1FB1AB6A23F40043AB6275
:103A000019201E4B9B6A59050AD5214B02930023AE
:103A10001846CDE90033184901220BF094FD1A2015
:103A2000164A936A13F4807315D01A4B029300233D
:103A30001846CDE90033104901220BF084FD1B200C
:103A40000E4A936A43F47F4393620023337005B0B8
:103A5000F0BD1620A2E7926A9204F1D50E4A0649FB
:103A60000093CDE90132184601220BF06CFD1C20B9
:103A7000E6E700BF113201004428010000ED00E03C
:103A800027320100383201004B320100643201005C
:103A90007932010094320100AC3201001FB50024DC
:103AA000374B029301222346CDE900443549204695
:103AB0000BF049FD344B9B6A9A015ED5334B31497B
:103AC0000094CDE901432046234601220BF03BFD43
:103AD0001E202D4B9B6ADB010AD52D4B0293002340
:103AE0001846CDE90033274901220BF02CFD1F2099
:103AF000254B9B6A1C030AD5264B029300231846CC
:103B0000CDE900331F4901220BF01DFD21201E4B82
:103B10009B6A59030AD5204B029300231846CDE92E
:103B20000033184901220BF00EFD2220164B9B6A30
:103B30009A030AD5194B029300231846CDE90033A6
:103B4000104901220BF0FFFC23200F4B9B6ADB0383
:103B50000AD5134B029300231846CDE900330949D7
:103B600001220BF0F0FC2420074A936A6FEA03431A
:103B70006FEA1343936204B010BD1D20A9E700BF94
:103B8000DB3201004428010000ED00E0F3320100C7
:103B900006330100203301003E330100633301008E
:103BA0007D3301002DE9F04385B000244D4B029395
:103BB000CDE9004423468046894616464A490122FB
:103BC00020460BF0C0FC494B9B6ADF0640D5484BB2
:103BD0000094CDE9014320462346434901220BF0DE
:103BE000B2FC1124414B9B6A1D070AD5414B02933D
:103BF0000023CDE900333C49012218460BF0A3FC19
:103C000012243A4DAB6A980724D500243A4B364922
:103C10000293CDE900442346012220460BF093FC99
:103C20006F6BAB6A190659D5344B2F490397CDE911
:103C3000014300942346012220460BF084FCB9F195
:103C4000000F03D0AB6A23F08003AB62132403E0C0
:103C50001024C7E76FF01507244B9B6ADA070AD5D3
:103C6000274B02930023CDE900331F490122184658
:103C70000BF069FC14241D4B9B6A9B060AD5214B53
:103C800002930023CDE900331749012218460BF0B7
:103C90005AFC1524154B9A6AD50602D49A6A9007E5
:103CA0000AD55B68190507D54146384600F044FB44
:103CB00010B180F3098802240C4B9A6A920642BF25
:103CC0005A6A22F400525A629A6A42F0FF029A62D9
:103CD00020460023337005B0BDE8F0836FF0150770
:103CE000B4E700BFA83301004428010000ED00E064
:103CF000BE33010038320100F13301000934010004
:103D00001F340100AC3201002DE9F041724B5F68B5
:103D1000A2B00546C7F30804002383F31188BFF35C
:103D20006F8F02F07F40B0F17F4F0CD102F00C009A
:103D3000082819D1694A6A490093CDE90132184629
:103D400001220BF000FC002635464FF00008E31E70
:103D50008DF81F80092B00F2A580DFE803F00B9996
:103D60009D96A3A3A3A3A3A1120746BF0D461E467B
:103D70000126EAE75B4B5A49574FCDF80080CDE961
:103D800001830023012218460BF0DDFB8DF81F8014
:103D9000FC6A14F0020405D0534BCDF80080CDE945
:103DA000018306E0FB6A002B0BDA504B0094CDE94F
:103DB000014300234A49012218460BF0C4FB0024AA
:103DC0003BE0FB6A5B00FAD5494B45490094CDE9DD
:103DD00001430122234620460BF0B5FB7B69AA690B
:103DE00043F480737B61BFF34F8FBFF36F8F7B69A9
:103DF00032F8022C23F480737B61BFF34F8FBFF343
:103E00006F8F4DF602739A420AD0BB6ADBB273B36E
:103E10000DF11F0201212846FFF7C4FE04460CE005
:103E20002B680393334B0094CDE90143204623468E
:103E30002B4901220BF087FB2C689DF81F309BB9A2
:103E40006822294608A80DF04CFF0F9B002E3DD09C
:103E5000C3F3080222B96FEA53236FEA43230F9397
:103E600008A92046FFF7CCFC22B0BDE8F081BB6A70
:103E700013F47F4F05D00DF11F010120FFF770FDF6
:103E8000CCE7BB6AB3F5803F99D3FFF707FEC5E7E0
:103E90000DF11F020021BEE70DF11F010020EDE72B
:103EA000154B7AE7154A164B0D4917F4F87F18BFE2
:103EB0001346103CCDE90334124B02930023CDE9A5
:103EC0000033012218460BF03EFB78E723F4FF7322
:103ED00023F00103C3E700BF00ED00E06C340100F4
:103EE0004428010097340100AE340100CF340100B2
:103EF000DD340100FC3401001835010053340100A9
:103F00003E3401003C350100044B5A6942F0100276
:103F10005A615A6922F008025A61704700ED00E0C8
:103F2000EFF30880EFF3098101B57246FFF7ECFE6D
:103F300001BD00BF002080F31488BFF36F8F03F032
:103F4000BFFD002011490860BFF34F8F104880F378
:103F5000088800F045F8202080F311880D484FF0C4
:103F6000AA014FF488620DF036FC0A484FF48861CC
:103F7000401880F30988EFF314800221084380F38E
:103F80001488BFF36F8F00F041F9000094ED00E05A
:103F900000300020001A0020BFF34F8F0549064B68
:103FA000CA6802F4E0621343CB60BFF34F8F00BFD7
:103FB000FDE700BF00ED00E00400FA050749D1F875
:103FC00090200023C2F307221846934200DB70477B
:103FD000C1F89830C1F8A0000133F6E700ED00E029
:103FE00008B572B6002383F31388FFF7E7FF144B7D
:103FF0004FF0FF32C3F88020C3F88420C3F8882034
:10400000C3F88C20C3F89020C3F89420C3F89820FC
:10401000C3F89C20C3F88021C3F88421C3F8882109
:10402000C3F88C21C3F89021C3F89421C3F89821D8
:10403000C3F89C2162B6BFF34F8FBFF36F8F08BDEB
:1040400000E100E0084B9B6883420BD1EFF305834E
:1040500043B1064B5A6842F080525A605A6A22F4C1
:1040600000425A620DF08FBDA017002000ED00E065
:10407000094A93686FF00A019967084958674B68C5
:1040800043F080534B60002383F31188BFF36F8F9D
:104090009368986F704700BFA017002000ED00E004
:1040A00010B5114A9168034681F8BD00EFF3118104
:1040B000202181F31288BFF36F8F906990600B4AC3
:1040C0004FF00061516090F8BD4023F0FF030022E3
:1040D0001C43436F426783F31188BFF36F8F00F077
:1040E000C5F9204610BD00BFA017002000ED00E07C
:1040F00019498A6882F8BDE04FF030001044EFF3B0
:10410000098C80E8F01F1EF0100F03D102F17C0033
:1041100080EC108A74467046FFF7C2FFA6460E492F
:104120008A6886461EF0100F03D00023E1EE103A95
:1041300003E002F17C0090EC108AEFF3148323F08B
:10414000040383F31488BFF36F8F02F1300090E80B
:10415000F01F8CF309887047A01700201EF0040F91
:104160000CBFEFF30880EFF30980816911F8021C9E
:104170000229FFD001B50BF0DBF901BD40B20028E8
:1041800007DB044A4109012300F01F00834042F885
:104190002130704700E100E040B200280CDB430909
:1041A000064900F01F0020330122824041F82320FD
:1041B000BFF34F8FBFF36F8F704700BF00E100E088
:1041C000054B420900F01F0053F82220012303FA97
:1041D00000F01040704700BF00E100E040B200284E
:1041E000A8BF00F1604001F10101B8BF064B4FEAE2
:1041F0004111ACBF00F5614000F00F00C9B2B4BF7F
:10420000195480F80013704714ED00E0144A08B503
:10421000144B22F07F029A60BFF34F8FBFF36F8F72
:10422000D3F8882022F47002C3F88820D3F88820BD
:1042300042F4A002C3F888204FF04042C3F8342271
:10424000BFF34F8FBFF36F8F0023E1EE103A07F0FB
:104250007BFF08F021FD00F0DFF807F0B9FF00BF99
:104260000000000000ED00E0017B890705D5416EEC
:1042700040314166816E4039816642F8203C009BA6
:1042800042F81C3C0F49019B42F8183C029B42F843
:10429000143C21F001014FF0807342F8043C42F8D5
:1042A000081C00234367037B13F0020FA2F12002D6
:1042B0004FF6085308BF4FF47D430265C0F8BC3089
:1042C000704700BF9BF00000037B13F0020F194BF7
:1042D00003D190F8BD20D20617D45A6B42F0804229
:1042E0005A63D0F8BC30190709D443F00803C0F86A
:1042F000BC30436E40334366836E403B8366037B32
:1043000043F002030373802070475A6B22F080420F
:104310005A63D0F8BC301A0701D44020704723F00C
:104320000803C0F8BC30436E403B4366836E4033A5
:104330008366F2E700EF00E00C4A03469068A0B104
:10434000D0F8BC20406E12F0080F0CBF4022802233
:1043500013F1160F04D0821A9A4205D8834203D271
:10436000814228BF0020704700207047A01700201E
:10437000104B9B6883421AD1EFF30580B8B9EFF375
:104380001181202282F31288BFF36F8F1A7B22F0F3
:1043900002021A73EFF3148323F0040383F31488E7
:1043A000BFF36F8F81F31188BFF36F8F70476FF08A
:1043B00015007047A017002008B515460E460022CC
:1043C000E1EE102AEFF3148222F0040282F3148843
:1043D000BFF36F8FBFF36F8F094A906000F046F80C
:1043E0002C4686F309884FF00000064B984720467C
:1043F0004FF000014FF000024FF00003024C204745
:10440000A01700206FF500009BF00000014B102268
:104410001A61704700ED00E0044800232021C21813
:104420000133302B82F80013F9D1704700E100E02E
:1044300008B5EFF30583064A103B02EBC30152F8BF
:10444000330049688847BDE80840FFF775BA00BFE8
:1044500064260100024B034A0348012100F09CB886
:1044600000000420000000203C2A010010B5044692
:10447000FFF72AFF626E03460548D21AC0E90023FF
:10448000044B8360BDE81040012100F08FB800BFED
:104490006815002000000B151FB5144AD2F89030A3
:1044A000C3F30723013B98420FD9114B029300231A
:1044B0000390CDE9003318460E4901220BF08AF82B
:1044C0006FF0150005B05DF804FBC2F898000B68AA
:1044D00023F01F03034343F01003C2F89C308B68A2
:1044E00043F00103C2F8A030ECE700BF00ED00E0AC
:1044F000533501003C280100F0B50E4689B01F4637
:1045000004460025B54212DA606838B3BFB1431ED5
:1045100018420FD0134B02930023CDE90033124908
:104520000395012218460BF055F86FF0150210465E
:1045300009B0F0BD1F28EDD921680B42EAD12368EC
:1045400005930BF037F8A36805A90343D0B207938E
:10455000FFF7A2FF10F1160FE7D0421C01350C3413
:10456000D0E700BF793501003C280100044B05224B
:10457000C3F89420BFF34F8FBFF36F8F704700BF16
:1045800000ED00E0BFF35F8F024B0022C3F89420E0
:10459000704700BF00ED00E010B5034C0123227806
:1045A000FFF7AAFF207010BDC019002008B50B4A04
:1045B00000231278FFF7A0FF10F1160F07D0084A6A
:1045C0000021D2F89030C3F30723984200DB08BDE6
:1045D000C2F89800C2F8A0100130F2E7C01900201C
:1045E00000ED00E02DE9F04357485849D0F89030ED
:1045F0000D68C3F307239D4285B000F2A180FFF749
:10460000C1FF49680022954201F10C011AD1504CBA
:10461000504F25706846FEF7CBFFDFF83C81DFF88E
:104620003C9106460025AE421FD123784649002022
:10463000D1F89020C2F3072293427BDBFFF796FF6D
:1046400000204CE0C0F8982051F80C3C23F01F03E8
:10465000134343F01003C0F89C3051F8043C43F07E
:104660000103C0F8A0300132CDE7009800EB05113E
:104670004FEA051CCB683B40B3F5000F44D00AD885
:10468000B3F5001F2ED0B3F5800F34D0B3F5801FE3
:1046900010D00135C7E7B3F1807F3ED0B3F1007F82
:1046A000F7D150F80C3088684A680AF083FF40F46C
:1046B000802009E050F80C3088684A680AF07AFFD8
:1046C00040F0885040F43020039001A92078CDE9D3
:1046D0000123FFF7E1FE002828DA6FF0150005B08E
:1046E000BDE8F08350F80C3088684A680AF062FF31
:1046F00040EA0800E8E750F80C3088684A680AF099
:1047000059FF40EA0900DFE750F80C3088684A6832
:104710000AF050FF40F08270D6E750F80C308868FD
:104720004A680AF047FF40F08870CDE723780133EC
:104730002370AEE7C1F89830C1F8A000013377E7E5
:104740004FF0FF30CBE700BF00ED00E0482A01004A
:10475000C01900200000F0FF000008110000020254
:10476000014B1860704700BFC8060020F8B5084F1D
:1047700006460D460024AC4208DA3B6898470A28F2
:10478000305504F1010401D00D28F4D12046F8BDC4
:10479000C4060020F8B50A4F0D46461EC0F10104BC
:1047A000A3199D4201DC2846F8BD73780A2B02D17B
:1047B0003B680D2098473B6816F8010F9847EFE7D4
:1047C000C806002010B5074C2368C2180648C0F17F
:1047D000005101F580218A423ABF2260C0184FF093
:1047E000FF3010BD741500206074002008B5054826
:1047F0000AF046FC002383F31188BFF36F8F042374
:10480000184602DFAB3501000E4A0123C2F84035DD
:104810004FF080424FF08051C2F87835D1F8300126
:10482000082808D1D1F83411052904D80648415C7C
:1048300009B1C2F838364FF080430122C3F8802511
:104840000020704700E00140B435010020B1034B67
:10485000800143F001031847704700BFA028010002
:10486000084B5968024611B11968884207D0D868C8
:1048700030B1996804488A4218BF00207047184632
:10488000704700BF781500208015002002460B46B7
:10489000014807F061BD00BF9C0C0020014807F0F3
:1048A000D3BD00BF9C0C00202DE9F74F824608467F
:1048B0000F469046FCF722F94FF0FF3183464FF048
:1048C000FF30FFF7E3FF1B4B1C684FF000099C42D1
:1048D00008BF00245B684E465CB9FFF7DFFF36B3C4
:1048E000CAF80060B8F1000F1DD1002003B0BDE888
:1048F000F08FA569A94512D8AB4510D3012D03D976
:104900007A5D2F2A00D052B9E16801932A463846D1
:104910000DF033FB019B002804BFA94626469C42AC
:10492000DBD02468D8E7B369C8F80030DDE76FF062
:104930000100DBE7CC06002070B5064686B030B13A
:10494000FCF7DCF8012802D933782F2B0ED0204B4E
:1049500002930023CDE900331E49012218460AF0D4
:1049600079FE6FF01504204606B070BD0022314676
:1049700005A8FFF799FF041E0ADA174B02930023DC
:10498000CDE900331349012218460AF063FEEAE735
:10499000059890F8205015F0020512D1C369DB6B21
:1049A00093B131469847041EDDDA0C4B0949039454
:1049B000CDE9015300952B46012228460AF04AFE14
:1049C000D1E76FF01D04CEE76FF08504CBE700BFA1
:1049D0006936010014280100D23501009C3601001F
:1049E0002DE9FF41044608B1C66866B9574B0293EA
:1049F0000023CDE900335649012218460AF02AFE69
:104A00006FF015050DE005687DB1524B0293002350
:104A1000CDE900334E49012218460AF01BFE6FF023
:104A20000F05284604B0BDE8F0813046FCF766F873
:104A30000128074602D933782F2B01D0464BD6E701
:104A4000464E4FF0FF304FF0FF31FFF71FFF336846
:104A5000D6F80480B34218BF1D46B5B9A5682846EC
:104A6000FFF7FEFE20B1D0F80480B8F1000F34D17A
:104A70003B4B02930023CDE9003335490122184610
:104A80000AF0E8FD6FF0010512E0AB69BB4220D1EE
:104A900022692B699A420ED12E4B02930023CDE955
:104AA00000332B49012218460AF0D4FD6FF00F05A0
:104AB000FFF7F4FEB5E7E968E0683A460DF05DFA05
:104AC000034630B9274A22490090CDE9010201226C
:104AD000EAE74545C2D02D68BFE7D8F82C3063B966
:104AE000214A0395CDE90132194900930122184664
:104AF0000AF0B0FD6FF08505DAE7D8F8303053B929
:104B0000E2680392194A12490093CDE9013218462E
:104B100002220AF09FFDD8F82C3020469847051E47
:104B20000BDA134B02930023CDE9003308490395B8
:104B3000012218460AF08EFDBAE77368C4E90678C8
:104B4000C4E900631C607460B2E700BFBC360100BA
:104B500014280100DA360100F8360100CC060020E6
:104B60002B3701000E370100573701007C37010059
:104B70009D37010038B504460D464FF0FF304FF029
:104B8000FF31FFF783FE2046FFF76AFE08B1436856
:104B90007BB90B4B5A6812B1DA686AB9012243F843
:104BA000324003EBC20300245D60FFF777FE20462E
:104BB00038BD6FF07704F8E76FF01B04F5E700BF2E
:104BC0007815002038B131B18B691844024B027856
:104BD000002A08BF1846704704300100014901202F
:104BE000FFF7C8BF682A010010B503685A6D044674
:104BF0001AB1196E04480CF047FE216803480CF006
:104C000087FE0023236010BD380C0020EC0B002031
:104C1000002807DA5430522802D8034B1856704740
:104C20006FF00400704700BF7C390100002805DAEE
:104C30005A30582804D8044B185670470020704743
:104C40006FF00400704700BF233901002DE9F04FD9
:104C500002238BB0164601270922CDE90332CDE9A4
:104C600005375F4B029304460023CDE90033184615
:104C70000D4603225B490AF03AFDD4F8FC30002BC4
:104C800040F0A88032070ED5574A56490396CDE921
:104C90000132184600933A460AF029FD6FF085006C
:104CA0000BB0BDE8F08F04F1FC01E8B2FEF786FC22
:104CB000002802DBD4F8FC0068B94C4B02930023B7
:104CC000CDE9003347490395012218460AF00FFD4C
:104CD0006FF01200E4E70AF001FC034600286AD0F6
:104CE000D4F814A0D4F81890E569D4F8FC00BAF10F
:104CF000000F08BF4FF0100AB9F1000F08BF4FF0C6
:104D0000100955B9CDE908050AF0E8FB384908AAA9
:104D10000BF0D8F8099D002D5FD0666A002E56D0A2
:104D200001DC4FF0FF36D4F82880E76AD4F8FC00A5
:104D3000B8F1000F08BF4FF04008002F08BF202730
:104D40008368B3FBF5FB0AF0C9FBCDE90656CDF845
:104D500014B0D4F8FC3023495B68049303680393D0
:104D60000020244B0293CDE90000034603220AF001
:104D7000BEFC0020204B0293CDE900000346CDE9A4
:104D80000587CDE903A9174903220AF0B0FCD4F83E
:104D9000FC302360194B6360194BA360194BE3602F
:104DA000194B2361C4E905A9C4E90A87C4E9075B73
:104DB0006662002074E7D4F8FC200A49D2681268C1
:104DC0000392124A0090CDE901023A467EE74FF481
:104DD0000076A8E76FF00F0062E76FF015005FE75D
:104DE000B13701001C280100DC370100193801002F
:104DF00077F600004D38010080380100D3F600003E
:104E0000B7F60000A3F6000073F600003238010088
:104E10002DE9F743436804461E6988461546014656
:104E200000222448002307F069FA014600283ED1F9
:104E30002768642238460CF062FFD6F8E4101E485A
:104E4000896A002200230CF015FD386660B3B9466C
:104E500049F8540F40466168FFF7B4FE804630467B
:104E60000AF054FC2901AB0103F4006301F48071E2
:104E7000194305F003030B4342463946CDF8009031
:104E800006F17C000CF061FB054606F580700AF027
:104E900045FC002D02DA2046FFF7A6FE284603B0A7
:104EA000BDE8F043FFF7B4BE6FF00B05F3E703B0C6
:104EB000BDE8F083EC0B0020380C002070B543688F
:104EC00004461E690D46002201460023144807F0DF
:104ED00015FA014608BB342220680CF010FF616807
:104EE0002846FFF76FFE054630460AF00FFC2A46BB
:104EF000216806F17C0006F0B9FE054606F58070D3
:104F00000AF00CFC002D03DA216805480CF000FDC6
:104F10002846BDE87040FFF77BBE6FF00B0070BD08
:104F2000080C002070B543681E69044630460AF03C
:104F3000EDFB216806F17C000CF0A9FB054606F5A7
:104F400080700AF0EBFB216803480CF0E1FC284676
:104F5000BDE87040FFF75CBE080C00207FB5066915
:104F6000054630460AF0D2FB06F17C000CF0D6FA7A
:104F700095F820301B0703D4D6F8FC000AF06EFA2F
:104F8000002406F58070C6F8FC400AF0C7FBEB6809
:104F90000393064B06490094CDE90143204623467E
:104FA00003220AF0A4FB204604B070BDA53801001E
:104FB0001C2801002DE9F043066985B0074606F577
:104FC000807840460CF0DCFC30460AF09FFB97F8F6
:104FD000202079693046FFF739FE041E43DB06F1D5
:104FE0007C093146484606F0C5FA002824DA97F8CD
:104FF000205015F001031FD115F0020528D1274BD1
:1050000027490390CDE9015302222B4628460095FB
:105010000AF06DFB3146484606F048FA041E26DACF
:10502000204B0394CDE9015328461D4900952B469A
:1050300001220AF05CFB2046FFF7EAFD0028044647
:1050400011DB40460AF06AFB204605B0BDE8F0835C
:10505000154A13490093CDE90132184601220AF09E
:1050600046FB6FF01D040023C6F8FC30E9E731462B
:10507000484606F07FFA041E02DA0C4B0394D1E78F
:10508000FB6803930A4B06490095CDE901530322BF
:105090002B4628460AF02BFBD3E700BFB2380100AD
:1050A0001C28010001390100D3380100F338010048
:1050B000183901002DE9FF411C4B002914BF0D4692
:1050C0001D46002604469046C5F8FC6005F580772D
:1050D00038460CF055FC28460AF018FB214642469B
:1050E0002846FFF7B3FD041E15DB294605F17C00B9
:1050F00006F0DCF9041E0EDA0D4B0394CDE90163D2
:10510000304633460B49009601220AF0F0FA204659
:10511000FFF77EFD044600233846C5F8FC300AF050
:10512000FDFA204604B0BDE8F08100BFD40600209F
:10513000013901001C280100054B0122C3F800259C
:1051400090F8761009B1DA6070471A605A607047BB
:10515000007000402DE9FF410F798E7907F01F00A4
:10516000072825D80D780B2D18D8DFE805F007079C
:105170000707170617171113171504254B78032B6C
:105180001BD0042B4FF0000318D0484A029208E0CD
:105190000525F3E70625F1E70725EFE7444B0293E2
:1051A0000023CDE900334349012218460AF043FCAD
:1051B0006FF0150004B0BDE8F08101234A8844F285
:1051C0000A04A2425ED843F6FE74A24203D8002A23
:1051D00066D0394BE3E7A2F57F523F3A0B2AF8D865
:1051E00001A454F822F000BFA9520000D3510000DE
:1051F000D3510000D351000019520000D3510000D8
:1052000081520000D3510000D3510000D35100005F
:10521000D3510000A15200000024284A4FF0010899
:1052200092F898C008FA00FE17F020075FFA8EFE89
:1052300014BF2CEA0E0C4CEA0E0C82F898C0024403
:10524000497982F890104FEA03324FEA001342EA9C
:10525000052203F1804303F5E04318BF474642EAC5
:10526000044242EA0752C3F81825030103F18043C0
:1052700003F5E0430020C3F81005C3F8146599E76F
:105280000124CAE744F21404A2420BD044F22804D9
:10529000A24209D044F20F04A2429AD10324BCE7EF
:1052A0000224BAE70424B8E70524B6E7F739010079
:1052B000D8390100E42701001B3A0100C004002096
:1052C000F0B50D4687B04FF0FF3375484FF0FF3211
:1052D00007F01AF96E68731EFE2B4FF0000309D910
:1052E000704A0292CDE900336F49012218460AF054
:1052F000A2FB14E06D4C6E4F1A46184626FA02F3D4
:1053000013F0010339D0BB5C8BB90392694A029256
:10531000CDE900336449012218460AF08CFB6FF096
:1053200015045F4807F0CCF8204607B0F0BD04EB49
:10533000021E95F811C0DEF81815BCF1000C18BF5C
:105340004FF0010C21F0807141EA0C61CEF8181584
:1053500002F15101090101306350C0B20132082A43
:10536000CCD12A7CA2F108010023062920D8DFE84D
:1053700001F0261F281F111F1D0004EB021CDCF882
:10538000181521F08071CCF8181502F151010901AE
:105390006350E3E70223454A0128C2F8F0356B7CED
:1053A00011D993B1444B029300239BE70323F2E707
:1053B0000392424A0093CDE901320023AAE7002379
:1053C000E9E70123E7E7082B16D8C2F8F4352A6885
:1053D0004300B2B9EA689A4217D2CDE90323384BA9
:1053E00002930023CDE900332F49012218460AF029
:1053F00022FB6FF00B0494E70393324B02930023DC
:1054000086E7928902FB0333E4E7284BAA68C3F8D6
:105410002C262F46C3F830060FCF2B4C04F1640620
:105420000FC63B683360002626662B68274693B379
:105430000FCB04F1780585E80F006566A4F8886055
:1054400048B3BFF35B8F57E8003F47E80062002A8C
:10545000F9D1BFF35B8F1D49A56F1D4A4FF4004082
:105460000F463146E5FB007100233846FBF72CFB65
:105470000022CDE90001002304F1080007F0D6FD69
:1054800014484FF0FF324FF0FF3307F03DF800B102
:105490002066246E45E70C48FFF74EFEF0E700BF9C
:1054A00000050020463A0100E4270100007000409A
:1054B00050050020643A0100A33A01007E3A010041
:1054C000F83A0100D53A0100C00400203F420F0025
:1054D00040420F001005002010B50E4B0024C3F809
:1054E0000441D3F80421C3F81041D3F8102112224B
:1054F000C3F804230720FEF741FE224601210720BE
:10550000FEF76CFE0448836C13B9403006F0D8FFF8
:10551000002010BD00700040C0040020F8B53B4BD7
:10552000D3F80421002A63D00021C3F80411D3F872
:105530000421374C01229A60C3F80015A66E94F836
:1055400098703742254606D1636EC3B93148BDE82D
:10555000F84006F0B5BFD3F82C16F6B213461E423B
:1055600008D01F4205D0B1F90020002ABCBF00229C
:105570000A8002315B009BB29F42F0D2E4E7E36F06
:10558000B4F888202BB124499847012814D0022868
:1055900027D0B4F88830B4F884209A4221D9013356
:1055A000A4F88830194BD3F82C26D3F8341689B2D6
:1055B00002EB4102C3F82C26A36F23B9BDE8F840E3
:1055C0001348FFF7B9BDBFF35B8F55E8003F5A1E84
:1055D00045E800210029F8D1BFF35B8F012BEDDCFA
:1055E000F8BDA36F002BB1D00C480CF04EFBADE71B
:1055F000D3F810110029F3D0C3F81021D3F81021EB
:1056000001229A601A605A60EAE700BF0070004009
:10561000C00400201005002024050020C80400203C
:10562000084B70B5C31A0D4607499B1004465943F1
:10563000064840220AF031FA2B4601462046BDE8D2
:10564000704018473C160020B76DDBB68825010076
:1056500073B50C4C0C4A4023041B00930D460B46BB
:105660000A49A4106143064609480AF041FA011E9E
:1056700005DA30462B4602B0BDE87040184702B04C
:1056800070BD00BF3C16002059FB0000B76DDBB6B3
:105690008825010010B5EFF31184202383F31288CD
:1056A000BFF36F8F074A136823F00201DB07116015
:1056B00002D401200AF057FE84F31188BFF36F8FE4
:1056C00010BD00BF8C160020002270B501210446D9
:1056D0001046FEF783FD0F4802F08AFB0E4B9842FE
:1056E00015D102F095FB26690C49304609F075FD8D
:1056F00000280BDB012535642469084904F11C00EE
:1057000009F06BFD002801DBE564002070BD6FF03F
:105710000400FBE71D5800000000AD0BC02A01008B
:105720001FB500220123CDE90223094ACDF800D09C
:105730006B46CDF804D00AF008FA002805DB4FF4D8
:1057400080420023684606F0DFFE05B05DF804FBEA
:1057500079FB000030B4104B0C2202FB00330146F1
:105760000020D3E90E529863EFF31180202484F3D4
:105770001288BFF36F8F1C6C04F0C00444F0020465
:105780001C6480F31188BFF36F8F1DB12B46034853
:1057900030BC184730BC70473C16002088250100FB
:1057A00010B4EFF31182202383F31288BFF36F8FBD
:1057B0001848016841F002040460C80708D482F365
:1057C0001188BFF36F8F01205DF8044B02F032BBEC
:1057D0004FF08041D1F80C04D1F80C14C907EED574
:1057E000EFF3118083F31288BFF36F8F0A490B6CBC
:1057F00003F0C00343F002030B6480F31188BFF38E
:105800006F8F82F31188BFF36F8F00205DF8044B18
:10581000FFF7A0BF8C1600203C16002010B1012815
:1058200004D07047034B1B6C5B0701D1FFF792BF9D
:10583000704700BF3C1600202DE9F0413849BFF306
:105840005B8F0746012251E8003F41E80020002815
:10585000F9D1BFF35B8F33B9324933484B60CB602A
:105860008A6009F0CDFC7B1E012B2BD8012F07D1BC
:105870004FF08043D3F81C3403F00303012B21D0F5
:105880000CF091F80546F8B9284B1B78E3B14FF0BE
:1058900080430222C3F808230646DFF894804FF0C5
:1058A0008044D4F81824D4F81834D20315D503F062
:1058B0000303012B01D0012F0FD155B386F31188BB
:1058C000BFF36F8FBDE8F081EFF31186202383F3E0
:1058D0001288BFF36F8F0125DFE7ADB1304609F0C5
:1058E0005AFED4F81835002BDBD1D4F80421002A55
:1058F000D7D0C4F80431D4F804310123C4F81835E2
:10590000C8F88031A360CCE70021212007F01AF904
:10591000E7E74FF080430222C3F80423D2E700BF39
:10592000381600202816002058160020D51900200F
:1059300000E100E010B5044C2046FDF72DF92046AB
:10594000FEF70EFF002010BD4D59000073B5104E3C
:105950008DF807000446032501220DF10701002000
:1059600006F0CCFA20B101233370204602B070BD9E
:105970003378002BF9D0013D08D00CF014F8002842
:10598000EAD10021422007F0DDF8E5E73570ECE7C9
:10599000C119002000487047542B01002DE9F3473E
:1059A00043680F1ED3F81890054616467DDBBB18DA
:1059B0004B457AD847EA0204C4F30B04002C74D197
:1059C00000690AF00DF9214628460AF065F94FF002
:1059D000FF3A0446002E45D1012128460AF05CF921
:1059E000002C08BF044628690AF0F8F8204602B0E7
:1059F000BDE8F0872E4B80465A7882B10AFA02F150
:105A000037EA01010BD101219140B14207D8B8F129
:105A1000000F1ED098F80110914238BF984601340B
:105A2000042C03F10203E7D1B8F1000F13D00023D7
:105A300098F800108122CDE9003328463B460AF051
:105A4000E9F898F801200123934004461F44F61A10
:105A500021E09846E3E76FF01504012128460AF09B
:105A60001BF9C0E7002CF8D1CDE900442346802281
:105A7000062128460AF0CEF804460028EDD14E450E
:105A8000B8D1CDE9000003468022C72128460AF09C
:105A9000C1F800260446002CDFD140F267620023E3
:105AA00028460AF048F9044694E76FF015049DE78C
:105AB000BB3C01002DE9F04104468CB000694FF079
:105AC000FF3201210BF063FF636893F83C209606D8
:105AD00022D5D86A0BF044FE034630B99F4AA0494C
